:020000040800F2
:10000000C80900207D0200088D0200088F02000848
:100010009102000893020008950200080000000009
:10002000000000000000000000000000970200082F
:1000300099020008000000009B0200089D020008D1
:100040009F0200089F0200089F0200089F0200080C
:100050009F0200089F0200089F0200089F020008FC
:100060009F0200089F0200089F0200089F020008EC
:100070009F0200089F0200089F0200089F020008DC
:100080009F0200089F0200089F0200089F020008CC
:100090009F0200089F0200089F0200089F020008BC
:1000A0009F0200089F0200089F0200089F020008AC
:1000B0009F0200089F0200089F0200089F0200089C
:1000C0009F0200089F0200089F0200089F0200088C
:1000D0009F0200081D1800089F0200089F020008E8
:1000E0009F0200089F0200089F0200089F0200086C
:1000F0009F0200089F0200089F0200089F0200085C
:100100009F0200089F0200089F0200089F0200084B
:100110009F0200089F0200089F0200089F0200083B
:100120009F0200089F0200089F0200089F0200082B
:100130009F0200089F0200089F0200089F0200081B
:100140009F0200089F0200089F0200089F0200080B
:100150009F0200089F0200089F0200089F020008FB
:100160009F0200089F0200089F0200089F020008EB
:100170009F0200089F0200089F0200080000000084
:100180009F0200089F0200089F0200089F020008CB
:100190009F0200089F0200089F0200089F020008BB
:1001A0009F0200089F0200089F02000800F002F86A
:1001B00000F055F80AA090E8000C82448344AAF1AC
:1001C0000107DA4501D100F04AF8AFF2090EBAE8AA
:1001D0000F0013F0010F18BFFB1A43F0010318477B
:1001E000DCDF0000FCDF0000103A24BF78C878C1D3
:1001F000FAD8520724BF30C830C144BF04680C602D
:10020000704700000023002400250026103A28BF74
:1002100078C1FBD8520728BF30C148BF0B60704778
:10022000662909F01282642900F09680782900F08E
:10023000CF80632900F06784732900F06C8400206C
:1002400070471FB509F0FCF900F07CFC04000020A9
:10025000002108F0A7FEE0601FBD10B510BD00F042
:1002600075FD1146FFF7EDFF06F05AFF00F093FD14
:1002700003B4FFF7F2FF03BC01F035FCDFF82C00FC
:10028000016841F47001016009480047FEE7FEE79C
:10029000FEE7FEE7FEE7FEE7FEE7FEE7FEE7FEE736
:1002A00004480549034A054B7047000088ED00E00B
:1002B000AD010008C8010020C8090020C8010020C5
:1002C000704700000FB4044910B503AA029800F06B
:1002D00027FC10BC5DF814FB180000200FB41CB5FF
:1002E000074B06AA7B4469460090059800F0E9FB9D
:1002F0000020694600F0F8FB1CBC5DF814FB000010
:100300000108000070B50C460546012A05D0287882
:10031000800600D5EA69002302E0012305E05B1CAA
:10032000934202D2E05C0028F9D1A869E618C01A0D
:10033000A861286A184428622846AFF3008004E0C8
:10034000D5E9012114F8010B9047B442F8D32846AF
:10035000AFF3008070BD00002DE9F0410646002497
:1003600010687529314616A510D0AFF3008000281B
:1003700002DA404213A507E031688A0701D512A5C9
:1003800002E0490704D511A5012401E0AFF3008084
:1003900000210A2206F1240709E0B0FBF2FCB0FBC1
:1003A000F2F302FB1C00303078541846491C002838
:1003B000F3D123462A463046BDE8F04100F014B997
:1003C000000000002D0000002B00000020000000B5
:1003D00070B504460D4621461068AFF300802188B1
:1003E000090502D50F4A7A4402E00E4A7A440E32D9
:1003F000002104F1240305E000F00F060009965DDA
:100400005E54491C0028F7D120780023000704D54A
:10041000702D02D009B1022311322046BDE8704090
:1004200000F0E2B886DC00002DE9F05F8946044662
:100430004FF0000ADFF824B1FB44C0F820A02046AA
:10044000E168884700287DD0252806D0D4E901211D
:100450009047206A401C2062F1E700255F46204655
:10046000E16888472028064607DB312E05D2B819F7
:1004700010F8200C08B10543F1E7A80701D525F0D5
:100480000405C4F81CA00027C4F818A02A2E09D01F
:10049000304601F021FB38B304EB8708303EC8F842
:1004A000186019E059F8041B204604EB870291619B
:1004B000E1688847012F064618D1E069002820DA54
:1004C00025F020051DE0D8F8180000EB800006EBB1
:1004D00040003038C8F818002046E16888470646D2
:1004E00001F0FAFA0028EED1012F0AD02E2E08D101
:1004F0002046E16888477F1C0646022F45F020050C
:10050000C4DBA069002803DA404245F00105A06180
:10051000E80701D025F01005A6B1A6F14100192881
:1005200002D8203645F400654A463146204625600B
:100530004D46FFF775FE60B1012807D0ED1D25F08F
:10054000070000E007E000F1080978E705F1040979
:1005500075E730467AE7206ABDE8F09F5CDC000072
:100560004FF0013C50F8042B51F8043B9A4221D142
:10057000A2EB0C03934313EACC1317D150F8042BCE
:1005800051F8043B9A4215D1A2EB0C03934313EAB2
:10059000CC130BD150F8042B51F8043B9A4209D1EB
:1005A000A2EB0C03934313EACC13DBD04FF0000013
:1005B000704700BFD01A01BAB1FA81F101F01801F9
:1005C00022FA01F0CB40C1F12001DBB2C0B2C01A67
:1005D0002CFA01F3D11A914311EAC311E6D1704705
:1005E00070477047704770472DE9F0470D469946B0
:1005F0009246044600F124080168880604D5E069A3
:1006000021F01001216000E00120A84201DD471B1C
:1006100000E00027A1697A1902EB0900081AA0611D
:100620002078C00602D42046AFF30080002608E000
:10063000D4E901211AF806009047206A401C761C74
:1006400020624E45F4DB2078C0060AD52046AFF381
:10065000008006E0D4E9012130209047206A401C48
:100660002062381EA7F10107F4DC07E0D4E901217C
:1006700018F805009047206A401C2062281EA5F14A
:100680000105F3DC2046AFF300802078000602D598
:100690000220BDE8F0870120FBE770472DE9FF4FFE
:1006A0000C461E464FF0FF378BB0D2E90001DDF853
:1006B00060800A908A46C1F30A5505B93D4600217B
:1006C00008464FF00000BAF1000F00F4400005DAD0
:1006D00000EB80004FF4400101EA50004FEA9059CE
:1006E000B9F1010F00DDB9460A9850EA4A000ED070
:1006F00044F61050A5F2FF3545432F14B8F1000F12
:100700001ED07542291E1EDDC9F100021CE0B8F1A1
:10071000010F4FF0000001D0302103E0F24305E06B
:100720002154401CB042FBDB304600220021215402
:100730000B99C1F80880C1E900200FB0BDE8F08F27
:10074000BD1B6D1CDEE74A4600DA694206A800F0D0
:1007500083FA06AB93E8070003AB83E80700504633
:100760000A9900F021FB8DE80700A0F500501F3822
:1007700000900398002D0ADD42F21F014A4608440A
:10078000002303A90390684600F08AFD09E0A0F564
:1007900000504A461F38002303A90390684600F022
:1007A00094FD8DE807000004000C03D04FF0FF30EB
:1007B000410800E01046B8F1000F03D0002200927B
:1007C00015461EE0751E05D400F0C0F930326255A2
:1007D0006D1EF9D5B3460122084302D000227F1CCA
:1007E00004E02078302801D100227F1E002A0997DA
:1007F00084D01DE0112D07DA00F0A8F930326255DF
:100800006D1C50EA0102F5D1084302D00098C8B12E
:100810000EE00021681E05E0235C625C63542254F4
:10082000401E491C8142F7DBAB46A81B401E0990C5
:10083000002004F80B000B98099AC0F80880C0E962
:10084000002B7AE711264FF0000857E72DE9F04F0B
:1008500088460446D21D22F0070191B0D1E900017B
:10086000CDE90A0101F020F902460B98C00F01D032
:100870002D2007E02068810701D52B2002E02021F0
:1008800001EAC000032A099001D0072A05DB0346CC
:100890004146204600F0A0F90BE12078800601D502
:1008A000E06900E00620B8F1650F814606D0B8F196
:1008B000660F18D0B8F1670F70D131E00020B9F1A0
:1008C000110F009001DB112301E009F101030AAAD5
:1008D00001A90CA8FFF7E2FEDDE90C70002609F182
:1008E0000105834647E001204B4600904FF000474A
:1008F0000AAA01A90CA8FFF7D1FEDDE90DB00C99F9
:100900005D46002610B909F101000D18B9EB05008C
:1009100003D4C0F1FF3609F10105A5EB09002BE076
:10092000B9F1010F01DA4FF001090020B9F1110FFF
:100930000090484601DD112300E003460AAA01A900
:100940000CA8FFF7ABFEDDE90C704D460026834690
:10095000207800070AD4AB4500DA5D4601A8012DD6
:1009600004DD411911F8011C302907D04F4502DA86
:1009700017F1040F04DA012082460FE06D1EEEE746
:10098000002F02DCED1B3E4403E0781CA84200DD92
:100990007D1CB81B00F1010A4FF0004720780007CA
:1009A00003D4AA4501DB4FF0FF3A0021B7F1004F15
:1009B0000DF143088DF8431024D002202B23002F83
:1009C00001DA7F422D230A21021EA0F1010000DC82
:1009D0005FB197FBF1FC97FBF1F201FB1C7C174622
:1009E0000CF1300C08F801CDEEE7A8F1010003701E
:1009F0002188090501D5452100E06521A0F1010804
:100A000000F8011C09980FA9A1EB0807FF1D00B110
:100A10000120411901EBEA70A1693844081A401E0F
:100A2000A0612078C00602D42046AFF30080099868
:100A300028B1D4E901219047206A401C2062207827
:100A4000C00622D52046AFF300801EE0002E04DB56
:100A5000B34502DD01A8805D00E03020D4E901212A
:100A60009047206A401C2062761CAAF101005FEAD0
:100A7000000A0AD100F066F8C0680168405CD4E959
:100A800001219047206A401C2062281EA5F1010523
:100A9000DCDC07E0D4E9012118F8010B9047206A5B
:100AA000401C2062381EA7F10107F3DC2046AFF39B
:100AB0000080032011B041E601694A1C02610878F8
:100AC000704700B58FB0CDE901310021059105498E
:100AD0007944CDE9031011466846FFF7A5FC0FB035
:100AE00000BD0000E5FFFFFF0A6802F8010B0A6085
:100AF000704710B5436913B1AFF3008001E0FFF711
:100B000001FC012010BD127800F124010A700022BE
:100B10004A700122EDE711684FF0FF32E9E700006B
:100B2000074B70B50D467B44FFF7CBFF04462846C4
:100B300000F004F910B14FF0FF3070BD204670BDD9
:100B4000EB150000004870478401002030B5B0F17B
:100B50000A024FEA900E71F100034EEA817EB0EB7B
:100B60000E0061EB91014FEA101E4EEA017E10EB80
:100B70000E0041EB11114FEA102E4EEA016E10EB00
:100B80000E0041EB11214FEA104E4EEA014E10EBE0
:100B90000E0041EB1141401841F100014FEAD00035
:100BA00040EA41704FEAD10110EB80054FEA810421
:100BB00044EA907444EB01046D1944EB0404521BA5
:100BC000A3414FF0000348BF0A3200D530BD401C9E
:100BD00041F1000130BD00002DE9F0411F460446FF
:100BE00003260168072A01F4006004DB08B116A59A
:100BF00005E016A503E008B115A500E015A521F054
:100C000010002060A069C01EA0610FB1401EA0614D
:100C10002046AFF300804FB1D4E901213846904718
:100C2000206A401C2062C01C206206E0206AFAE7AD
:100C3000D4E9012115F8010B9047761EF8D2204621
:100C4000AFF30080BDE8F0814E414E006E616E0052
:100C5000494E4600696E66002DE9F047814616460A
:100C60008AB0354878440DC88DE80D003248784484
:100C7000801C03AC0DC884E80D0041F69B3008448D
:100C8000372190FBF1F290FBF1F5A5F1800501FB16
:100C900012041B3C02D56442012000E00020DFF872
:100CA00098A080460027FA44AAF1BE0A0EE0E007A9
:100CB0000AD03246684607EB470101230AEB81015F
:100CC00000F003FB8DE8070064107F1C002CEED1C0
:100CD000194F7F44AE3F19E0E80715D007EB041029
:100CE0000DF1180A90E80E008AE80E00C068F04284
:100CF00001D1981908903246012306A903A800F0F3
:100D0000E4FA03AB83E807006D10641C002DE3D107
:100D10004FF0010332466946B8F1000F03A802D034
:100D200000F0BEFA01E000F0D0FAC9E90001C9F80C
:100D300008200AB0BDE8F087C0D40000007B00F0B6
:100D40008000704700487047640100207546FFF737
:100D5000F9FFAE4605006946534620F00700854678
:100D600018B020B5FFF79CFABDE820404FF0000610
:100D70004FF000074FF000084FF0000B21F0070183
:100D8000AC46ACE8C009ACE8C009ACE8C009ACE8C6
:100D9000C0098D46704710B50446AFF30080204669
:100DA000BDE81040FFF764BA5FEA400C08BF91F05D
:100DB000000F4FEA8C234FEAC12243EA51514FEA18
:100DC0001C5018BF00F5F0404FEA300018BF41F04A
:100DD00000415FEA6C5C00F02980BCF1FF3F08BF76
:100DE00040F080407047130C06BF12044FF0100C07
:100DF0004FF0000C130E04BF12020CF1080C130F7D
:100E000004BF12010CF1040C930F04BF92000CF10B
:100E1000020CD30F04BF52000CF1010C11464FF02D
:100E20000002A0F11F00A0EB0C00704711F0004F72
:100E300008BF704731F000413FF4D5AF0B0C06BF3F
:100E400009044FF0100C4FF0000C0B0E04BF090208
:100E50000CF1080C0B0F04BF09010CF1040C8B0FF3
:100E600004BF89000CF1020CCB0F04BF49000CF148
:100E7000010CCCF12003A0EB0C0022FA03F302FAE0
:100E80000CF241EA030100F10100704720F07F4CB1
:100E900080EA030023F07F47ACEB070303F57C53A4
:100EA00000F0004003F1FF032DE980494FEA154BA4
:100EB00009B44FEA144325EA0B4E24EA03480FF223
:100EC000042606EB132749083E785FEA320203FB4B
:100ED0000667C7F5000707FB06F64FEA54374FEAE7
:100EE000D64606F1020607FB066CCCF1005C4FEA21
:100EF0001C472CEA074C07FB06F40CFB06F504EB39
:100F000015464FEA961634BF00204FF000404FEAD6
:100F1000D13706FB07FC4FEA1C4C0CFB0BF7D21B2E
:100F200003FB0CF761EB07010CFB0EF7B0EB07407E
:100F300072EB17420CFB08F734BFA2EB0742B2EB8F
:100F4000074261EB17414FEA0C444FEA910706FB59
:100F500007FC4FEA1C4C0CFB0BF7B0EBC74072EBE5
:100F6000573203FB0CF734BFA2EBC742B2EBC742C8
:100F700061EB57310CFB0EF7B0EBC70072EB577209
:100F80000CFB08F734BFA2EBC702B2EBC70261EB60
:100F90005771039F4FEA816141EA921104EBCC043F
:100FA0004FEAD1374FEA826206FB07FC42EA901211
:100FB0004FEA80604FEA1C4C0CFB0BF7D21B03FB83
:100FC0000CF761EB07010CFB0EF7B0EB074072EB7F
:100FD00017420CFB08F734BFA2EB0742B2EB074203
:100FE00061EB17414FEA8C554FEA910704EB9C24C3
:100FF00006FB07FC4FEA1C4C0CFB0BF7B0EBC740A1
:1010000072EB573203FB0CF734BFA2EBC742B2EBD3
:10101000C74261EB57310CFB0EF7B0EBC70072EB28
:1010200057720CFB08F734BFA2EBC702B2EBC70242
:1010300061EB577115EB4C254FEA816141EA921142
:101040004FEA82624FEAD13742EA901206FB07FC70
:1010500044F100044FEA80604FEA1C4C0CFB0BF794
:10106000D21B03FB0CF761EB07010CFB0EF7B0EB97
:10107000074072EB17420CFB08F734BFA2EB0742A4
:10108000B2EB074261EB174115EB1C154FEA8131BA
:1010900041EA92414FEA823242EA90424FEA80307E
:1010A0004FEA0C7644F1000448EA03434EEA0B4849
:1010B0004FF0000EB2EB080C71EB030724BF624641
:1010C00039464EEB0E0E4FF0000B001852414941CD
:1010D0004BEB0B0BB2EB080C71EB03077BF1000B36
:1010E00024BF624639464EEB0E0E4FF0000B00183F
:1010F000524149414BEB0B0BB2EB080C71EB030770
:101100007BF1000B24BF624639464EEB0E0E51EACE
:10111000020718BF46F0010616EB0E7655F10002E5
:1011200054F1000103D5BDE88901BDE80088BDE8A0
:101130008901BDE80048B619524141EB0101A3F114
:101140000103704780807F7E7D7C7B7A797877761B
:1011500076757473727171706F6E6E6D6C6C6B6A94
:101160006A69686867666665646463636261616032
:10117000605F5F5E5E5D5D5C5C5B5B5A5A595958AF
:101180005857575656555555545453535252525119
:10119000515050504F4F4F4E4E4D4D4D4C4C4C4B6F
:1011A0004B4B4A4A4A4949494848484747474746B6
:1011B00046464545454444444443434343424242F2
:1011C00042414141002B9C4630D477002BD01CB5C6
:1011D0004FEA370703B44FF010004FF01001BAF197
:1011E000000F06D0BCF1000FDCBF40F0080040F05B
:1011F00008014FF000000FBCBDE810400BF1010BDF
:10120000BBF1010F08BF5FEA170722BF12F101020D
:1012100011F101014FF0004143F1000300F00040E3
:1012200043EA00007047F9D35708D0E746EA06467C
:1012300013F1400F4FEA16461FDD13F1200FDFBFF9
:1012400016430A46002120335B42BED0C3F120077B
:1012500046EA064602FA07F74FEA164646EA070646
:10126000C3F1200722FA03F201FA07F721FA03F18A
:101270004FF0000342EA0702A7E746EA020646EA01
:1012800006464FEA164646EA0106BCBF46EA06464F
:10129000360C4FF000034FF000024FF0000194E7CE
:1012A0002DE9804C9A46934670B491E8380007C8FF
:1012B00031EA400C48BF34EA430C03D5FFF7E6FDA2
:1012C000FFF780FFF0BCBDE8008C2DE9804C9A460A
:1012D000934670B491E8380007C810F0804F08BFFB
:1012E00013F0804F03D100F005F8FFF76BFFF0BC5F
:1012F000BDE8008C20F07F4780EA030023F07F4C9C
:1013000007EB0C03A3F57C5300F00040A3F1FE03B0
:1013100092F0000F00F0B38095F0000F00F077809E
:101320002DE901494FEA11404FEA144621EA0048ED
:1013300000FB06FC24EA064708FB06F607FB08F854
:1013400000FB07F718EB06484CEB164C4FEA124B24
:1013500018EB07484FEA15464CEB174022EA0B4EB4
:101360000BFB06FC25EA06470EFB06F607FB0EFE06
:101370000BFB07F71EEB064E4CEB164C4FF000062E
:101380001EEB074E4CEB174B18EB0B0840F100001F
:1013900018EB0E0B58EB000840F100008F1A4FF0CD
:1013A00000013CBFC943661B14BFB5EB040C002110
:1013B0003CBFC943F61B4FEA17444EEA8E0E27EA9C
:1013C00004454FEA1C4704FB07622CEA074C05FB67
:1013D00007F70CFB05F604FB0CFC16EB074642EB8B
:1013E000174216EB0C4642EB1C421BEB060658EB71
:1013F0000202414146EA9E0601D5BDE80189B619BF
:10140000524141EB0101A3F10103BDE801894FEA1B
:1014100014454FEA114724EA054621EA074C05FB2B
:1014200007F406FB07F70CFB06F105FB0CFC11EBC0
:10143000074144EB17444FEA124711EB0C4144EBD0
:101440001C4422EA074C05FB07F206FB07F70CFBDE
:1014500006F605FB0CFC16EB074642EB174216EBB3
:101460000C4642EB1C456A1854F1000148BF704716
:10147000B619524141EB0101A3F10103704795F008
:10148000000F37D04FEA11424FEA144721EA0246D3
:1014900024EA074C02FB07F106FB07F70CFB06F4F6
:1014A00002FB0CFC14EB074441EB17414FEA1547D4
:1014B00014EB0C4441EB1C4125EA074C02FB07F5F9
:1014C00006FB07F70CFB06F602FB0CFC16EB0746C7
:1014D00045EB174516EB0C4645EB1C42121951F132
:1014E000000148BF7047B619524141EB0101A3F119
:1014F000010370474FEA14454FEA114724EA0546B5
:1015000021EA074C05FB07F106FB07F70CFB06F287
:101510004FF0000605FB0CFC12EB074241EB1741B4
:1015200012EB0C4251EB1C4148BF7047921841EB43
:101530000101A3F1010370472DE9F0418AB00026B3
:10154000B04605278948808841F21801884200D1B9
:101550000A2787484168002088470026FEE0844823
:10156000808E0121B140084000287DD080480C3099
:1015700030F816007D490988884276DA7C482030A8
:1015800030F81600794949888842F6DA05E078484B
:101590008489058C4168002088477548808960B13E
:1015A000734880894FF6FF71884206D07048008CDE
:1015B00018B16F48008C8842E9D16E480068323813
:1015C000A04212DC6B4800683230A0420DDB694853
:1015D00040683238A84208DC664840683230A84289
:1015E00003DB01200AB0BDE8F08162488068323830
:1015F000A04210DC5F4880683230A0420BDB5D48BF
:10160000C0683238A84206DC5A48C0683230A84266
:1016100001DB0220E6E7574800693238A04210DCBF
:10162000544800693230A0420BDB524840693238DE
:10163000A84206DC4F4840693230A84201DB032053
:10164000D0E74C4880693238A04213DC49488069B1
:101650003230A0420EDB4748C0693238A84209DC6C
:101660004448C069323001E072E075E0A84201DB15
:101670000420B7E73F48006A3238A04210DC3D48FA
:10168000006A3230A0420BDB3A48406A3238A84246
:1016900006DC3848406A3230A84201DB0520A1E769
:1016A0003448806A3238A04210DC3248806A3230D6
:1016B000A0420BDB2F48C06A3238A84206DC2D4816
:1016C000C06A3230A84201DB06208BE72948006B54
:1016D0003238A04210DC2748006B3230A0420BDBCE
:1016E0002448406B3238A84206DC2248406B323036
:1016F000A84201DB072075E71E48806B3238A04204
:1017000010DC1C48806B3230A0420BDB1948C06BE8
:101710003238A84206DC1748C06B3230A84201DBE1
:1017200008205FE71348006C3238A04214DC1148EF
:10173000006C3230A0420FDB0E48406C3238A842B9
:101740000ADC0C48406C3230A84205DB092049E72E
:101750004FF6FF702DF82600701CC6B2BE42FFF691
:10176000FEAE052000F016FC00203BE7D200002072
:10177000340000207C00002010B50446621E074B98
:1017800003EBC202928891B2621E33F8322090B20B
:1017900040F2FF732D2204F02BF910BD7C000020D5
:1017A0002DE9F04104460D46002723E00CB3032D3C
:1017B00009D025B90221601E114A115403E001210C
:1017C000601E0F4A11540FA0FEF77CFD0F480178F0
:1017D00031310FA0FEF776FD002605E00848815D57
:1017E0000CA0FEF76FFD761C092EF7DB0AA0FEF7B2
:1017F00069FD7F1CB7F5FA7FD8DBBDE8F0810000FA
:101800005A01002063686573730000000C0000201B
:101810002563000025640000454F4D001C49096800
:1018200001F0200109B31A494968C8B21949098869
:1018300001F40041C9B91749098801F4804161B137
:101840000A2803D00021134A118020E01149098899
:1018500041F400410F4A118019E00D2806D10D49CD
:10186000098841F480410B4A118010E00949098838
:10187000C1F30D01084A505406490988491C054A1C
:101880001180114609880C2901DD00211180704763
:10189000001001401C000020C400002010B50021F1
:1018A000F1E00020EAE000F10A020D2392FBF3F4DC
:1018B00003FB1422764B9A5C452A7CD100F10B0283
:1018C0000D2392FBF3F403FB1422714B9A5C4F2A15
:1018D000F3D100F10C020D2392FBF3F403FB14226D
:1018E0006B4B9A5C4D2AE8D10D2290FBF2F302FB80
:1018F0001302674B9A5C674B1A70421C0D2392FBD4
:10190000F3F403FB1422624B9A5C01EBC103624CBB
:10191000E254821C0D2392FBF3F403FB14225C4B74
:101920009A5C01EBC1035C4C23445A70C21C0D232A
:1019300092FBF3F403FB1422554B9A5C01EBC103B9
:10194000554C23449A70021D0D2392FBF3F403FBC4
:1019500014224F4B9A5C01EBC1034F4C2344DA70C5
:10196000421D0D2392FBF3F403FB1422484B9A5CB7
:1019700001EBC103484C23441A71821D0D2392FBD5
:10198000F3F403FB1422424B9A5C01EBC103424C7B
:1019900023445A71C21D0D2392FBF3F403FB14225E
:1019A0003B4B9A5C01EBC1033B4C23449A7100F121
:1019B00008020D2300E060E092FBF3F403FB142225
:1019C000334B9A5C01EBC103334C2344DA7100F1D1
:1019D00009020D2392FBF3F403FB14222C4B9A5CB7
:1019E00001EBC1032C4C23441A722A4A1278F12AC3
:1019F0000CD1002204E0284B1B5C284C2354521CC1
:101A0000092AF8DB0122264B1A7010BD214A1278F0
:101A1000F22A0DD1002205E01F4B09331B5C1F4C3D
:101A20002354521C092AF7DB02221D4B1A70ECE7E3
:101A3000184A1278F32A0DD1002205E0164B123312
:101A40001B5C164C2354521C092AF7DB0122144B51
:101A50001A70DAE70F4A1278F02A0DD1002205E059
:101A60000D4B12331B5C0D4C2354521C092AF7DB1F
:101A700001220C4B1A60C8E703E0401C0D28FFF65A
:101A800012AF00BF491C0A29FFF60BAF00BFBCE72D
:101A9000C40000200C000020000100205A0100209A
:101AA0000E0000200400002003B4019841000098BB
:101AB00050EAC12018BF04204A0D18BF40F00100B1
:101AC00040F2FF72B2EB515F08BF40F00200012804
:101AD00008BF052002B0704730380A2801D2012023
:101AE00070470020704700BF704710B500F0E8FF56
:101AF00010BD70B505460C46164606E028466A1C21
:101B000095B200F008F804F8010B301EA6F10101AF
:101B10008EB2F3D170BD70B50446002601F064F8B2
:101B20002112A02202EB4101C8B201F037F801F006
:101B300093F82546E11704EB11610912A4EB01218A
:101B4000C8B201F02BF801F087F801F04DF8A120A0
:101B500001F024F801F080F8002000F0F5FF0646BF
:101B600001F060F8304670BD70B505460C4616466B
:101B700006E02178284600F009F8681C85B2641C4C
:101B8000301EA6F101018EB2F3D170BD70B50446CE
:101B90000E4601F029F82112A02202EB4101C8B241
:101BA00000F0FCFF01F058F82546E11704EB116145
:101BB0000912A4EB0121C8B200F0F0FF01F04CF8CB
:101BC000304600F0EBFF01F047F801F02BF80A2057
:101BD00000F0E0F970BD2DE9FE4304460D461646BF
:101BE0001F46DDE90A8925606660E760C4F8088061
:101BF000C4F81090B4F80CC01FFA8CF3B4F808C005
:101C00001FFA8CF2B4F804C01FFA8CF1B4F800C0CB
:101C10001FFA8CF003F0ECFE002120222069CDE9B0
:101C20000020029123899AB2A3880A3B99B22388A3
:101C30000A3B98B2322304F0E1FCBDE8FE830000C9
:101C40002DE9F04104460E46002505272C488088E2
:101C500041F21801884200D10A272A484168002031
:101C60008847002545E02748808E0121A94008408B
:101C7000D0B324480C3030F8150021490988884237
:101C800035DA2048203030F815001D49498888424F
:101C90002DDAD4E90101411A1A48203030F8150034
:101CA000814224DCD4E9010101441648203030F897
:101CB000150081421BDB13480C3030F815002168F9
:101CC000401A4043A1684943884210DC0D48203047
:101CD00030F815006168401A4043A16849438842C2
:101CE00005DC3046BDE8F081FFE70020FAE7681C1C
:101CF000C5B2BD42B7DB0A2000F04CF90020F1E785
:101D0000D20000203400002010B5002208210D4828
:101D100006F0C6F800F01AF8012240210A4806F041
:101D2000BFF800F013F800224021074806F0B8F889
:101D300000F00CF801220821024806F0B1F800F08A
:101D400005F810BD00200240001C024010B5022022
:101D500000F02AF910BD00001CB500BF1148006852
:101D600040F080000F49086000BF00BF08460068CF
:101D700040F48070086000BF0120009003460246D6
:101D800040210190084806F097F801200090034692
:101D9000024608210190054806F08EF800F098F8F8
:101DA0001CBD000030380240001C024000200240F0
:101DB00010B5012208210A4806F072F8FFF7C6FFA5
:101DC00001224021074806F06BF8FFF7BFFF002211
:101DD0004021044806F064F8FFF7B8FF10BD00008A
:101DE00000200240001C024070B505460024002679
:101DF00018E06006040E012240210F4806F050F85A
:101E0000FFF7A4FF08210D4806F042F808B1601C56
:101E1000C4B200224021084806F042F8FFF796FFBE
:101E2000701CC6B2082EE4DB15B9FFF7C1FF01E054
:101E3000FFF76AFF204670BD001C024000200240F0
:101E400070B50446002516E0E20908210E4806F0A8
:101E500027F8FFF77BFF012240210C4806F020F80D
:101E6000FFF774FF00224021084806F019F86006C9
:101E7000040E681CC5B2082DE6DB012208210248C9
:101E800006F00EF870BD000000200240001C024069
:101E900010B5012208210C4806F002F80122402169
:101EA0000A4805F0FDFFFFF751FF00220821064810
:101EB00005F0F6FFFFF74AFF00224021034805F036
:101EC000EFFFFFF743FF10BD00200240001C02405F
:101ED00010B5002208210A4805F0E2FFFFF736FF9F
:101EE00001224021074805F0DBFFFFF72FFF012209
:101EF0000821034805F0D4FFFFF728FF10BD0000BC
:101F000000200240001C024070B500240025012280
:101F10000821134805F0C4FFFFF718FF01224021F4
:101F2000104805F0BDFFFFF711FF09E0601CC4B2C7
:101F3000FA2C03DDFFF7CCFF012507E0FFF706FFD2
:101F40000821074805F0A4FF0028EFD100BF0022B8
:101F50004021044805F0A4FFFFF7F8FE284670BDB5
:101F600000200240001C02404FF0E021096941F0CE
:101F700004014FF0E022116105490860114609692A
:101F800041F0010111616FF0704151617047000033
:101F90001400002010B504464FF47A7104FB01F0E0
:101FA00000F002F810BD000070B5034600224FF0AB
:101FB000E02675690D4E366803FB06F44FF0E02607
:101FC000B16910E04FF0E026B06988420BD088423A
:101FD00002D20E1A324402E02E1A0E443244014656
:101FE000A24200D300E0EDE700BF70BD1400002066
:101FF0002DE9FC5F80460C4691469A46DDF830B0EC
:102000002046E11704EB5171CC10002621E0002599
:102010001CE0002717E006FB045018F800008021A0
:102020003941084070B10BEBC500384401900D9860
:1020300030440090009A91B2019A90B2524601F059
:1020400045F800BF7F1C082FE5DB6D1CA542E0DBD7
:10205000761C4E45DBDBBDE8FC9F08B540F2FF7007
:1020600000F072FE00204FF4C8734FF496726421A2
:102070000090104600F0D4FF00204FF4C8731A46B9
:1020800064210090184600F0CBFF0020C8234FF4D5
:10209000FA7219460090184600F0C2FF00204FF473
:1020A00096734FF4FA7219460090C82000F0B8FFFA
:1020B00000204FF4C8734FF4FA7264210090C820D6
:1020C00001F01EF808BD000070B504460D467DB94C
:1020D000621E0F4B03EBC202928891B2621E33F86C
:1020E000322090B24FF6FF732D2203F081FC0EE0F8
:1020F0006DB1621E064B03EBC202928891B2621E62
:1021000033F8322090B200232D2203F071FC70BD11
:102110007C00002000BF054A126802F04002002A3D
:10212000F9D0C2B2014B5A60704700000010014064
:102130000EB500BF3B48006840F480703949086024
:1021400000BF00BF0846006840F08000086000BF84
:10215000012000900023024601020190324805F060
:10216000ABFE0120009000231A46802101902F48E9
:1021700005F0A2FEFFF7F0FD00224FF480712A481F
:1021800005F08EFE1420FFF705FF012211022648FC
:1021900005F086FE3220FFF7FDFE00208DF80800D6
:1021A000012202A900F048F9012202A9A42000F0AE
:1021B00043F916208DF80800012202A9802000F0C2
:1021C0003BF90C208DF80800012202A9882000F0BC
:1021D00033F9022202A9A12000F030F89DF808008E
:1021E000302803D19DF8090003280DD09DF809007F
:1021F000012809D09DF80900022805D09DF80800A3
:1022000068B99DF8090050B99DF809009DF80820AB
:1022100000EB022106A0FEF755F800200EBD0120BC
:10222000FCE700003038024000200240001C024061
:102230004354502049443A25780D0A002DE9F041D5
:1022400006460F461546FFF723FE7020FFF7F8FD00
:10225000FFF75AFEF0B2FFF7F3FDFFF755FEFFF769
:1022600017FE7120FFF7ECFDFFF74EFE00240BE098
:10227000691EA14201D0012100E000210846FFF7BC
:10228000B3FD3855601CC4B2AC42F1DBFFF720FE51
:10229000BDE8F0812DE9FC410746002001900024B3
:1022A000002661480078401C5F49087008460078A5
:1022B0000A2190FBF1F201FB120018B15A48007894
:1022C0000A2867DA012201A90220FFF7B7FF9DF86B
:1022D000040000F00F0000285CD09DF8040000F01E
:1022E0000F0006287BDA9DF8040000F00F014FF67E
:1022F000FF70884085B2E84380B240F440404B49CB
:1023000088860420FFF746FE00245AE04748808E66
:102310000121A1400840E0B3454931F814000422EE
:102320006946FFF78BFF414890F8440000F0010038
:10233000C0B19DF801009DF8001001F00F0100EB05
:1023400001203A49203121F814009DF803009DF83E
:10235000021001F00F0100EB012134480C3020F88D
:1023600014101EE09DF801009DF8001001F00F010F
:1023700000EB01202F490988081A81B22B480C3044
:1023800020F814109DF803009DF8021001F00F01D1
:1023900001E014E023E000EB01202449203121F882
:1023A00014009DF8000000F0F000802807D0002104
:1023B0001E48203020F81410143820F81410601C27
:1023C000C4B2052CA2DB01261848808920B9174821
:1023D000008C08B9002001900020134908709DF876
:1023E000040000F01F00A8B91048808E00F40040DF
:1023F00030B10E48808E20F400400C49888609E0F8
:102400004FF6FF700949888108840846808E00F4E1
:102410006040888604480078F02802DD0A200249DE
:1024200008703046BDE8FC813000002034000020F8
:102430004EE00008D20000202DE9F04105460E468E
:1024400017464FF00008FFF723FD7020FFF7F8FC58
:10245000FFF75AFDE8B2FFF7F3FCFFF755FD002444
:102460000BE0305DFFF7ECFCFFF74EFD8046B8F166
:10247000000F00D003E0601CC4B2BC42F1DB00BF1F
:10248000FFF726FD4046BDE8F08100001FB500BF04
:102490004148006840F480703F49086000BF00BFB9
:1024A0000846006840F08000086000BF01200090EE
:1024B0000023024601020190384805F0FDFC01208E
:1024C000009000231A4680210190354805F0F4FC65
:1024D000FFF742FC00224FF48071304805F0E0FC29
:1024E0000A20FFF757FD012211022C4805F0D8FC05
:1024F0000A20FFF74FFD0020012103460246CDE9E7
:1025000000108021264805F0D7FC6420FFF742FD2B
:10251000042202A948F2401000F05AF800208DF879
:102520000C0020A102A8FEF71BF888B11EA102A88A
:10253000FEF716F860B11EA102A8FEF711F838B137
:102540001DA102A8FEF70CF810B1012004B010BDC7
:1025500002A91BA0FDF7B6FE17A102A8FEF700F81E
:1025600010B90A201949087002208DF808000122CC
:1025700002A948F2400000F04FFA0A20FFF70AFDD6
:1025800000208DF80800012202A948F2400000F066
:1025900043FA0020DAE70000303802400020024011
:1025A000001C02403931310039313437000000005D
:1025B0003131353800000000393237310000000079
:1025C0004354502049443A25730D0A00310000203D
:1025D0002DE9F04105460F461646FFF759FC282025
:1025E000FFF72EFCFFF790FC2812FFF729FCFFF7FE
:1025F0008BFCE8B2FFF724FCFFF786FCFFF748FCF2
:102600002920FFF71DFCFFF77FFC00240BE0711E63
:10261000A14201D0012100E000210846FFF7E4FBC0
:102620003855601CC4B2B442F1DBFFF751FCBDE881
:10263000F081000071B52DED048B83B00020019076
:102640000026EC480078401CEA49087008460078EB
:102650000A2190FBF1F201FB120018B1E548007865
:102660000A287DDA012207A948F24E10FFF7B0FFD1
:102670009DF81C0000F0800078B19DF81C0000F06F
:102680000F00DD490978884207DC00200190012213
:1026900001A948F24E1000F0BFF99DF81C0000F0AF
:1026A0000F0000285CD09DF81C0000F00F00D249FC
:1026B0000978884254DC9DF81C0000F00F014FF6A9
:1026C000FF70884084B2CD48858EE04380B240F4EC
:1026D0004040CA49888608468289C7480078401E1B
:1026E0000C3121F81020C548028CC3480078401EE8
:1026F000143121F810200020019014E1BF48808E91
:102700009DF8042001219140084000283FD0BC4999
:102710009DF8042031F81200042202A9FFF758FFA7
:10272000B848808845F2105188420BD0B54880885F
:1027300049F60601884205D0B248808847F2967172
:10274000884240D1AD4890F8440000F00100F8B153
:102750009DF80A009DF80B1000EB0120A94900E04C
:102760001FE10988081A81B2A4480C309DF80420A2
:1027700020F812109DF808009DF8091000EB0120C8
:1027800081B29E4820309DF8042020F81210C5E048
:102790009DF808009DF8091000EB012081B29748D0
:1027A0000C309DF8042020F812109DF80A009DF8C6
:1027B0000B1000EB012081B2904820309DF80420DE
:1027C00020F81210AAE08D4890F8440000F00100B3
:1027D000E8B39DF808009DF8091000EB012081B2D4
:1027E00086480C309DF8042020F812109DF80A004D
:1027F0009DF80B1000EB012081B2804820309DF83D
:10280000042020F81210A0F114019DF8042031F8E2
:10281000120006F091FD41EC190B9FED7B0B53EC80
:10282000102B06F0EDFB41EC180B06F041FD81B2D8
:1028300072480C309DF8042020F8121000F11401A9
:102840009DF8042031F8120006F076FD00E013E058
:1028500041EC190B9FED6E0B53EC102B06F0D0FBE7
:1028600041EC180B06F024FD81B2644820309DF83D
:10287000042020F8121051E09DF80A009DF80B107A
:1028800000EB0120C0F5167081B25C480C309DF859
:10289000042020F812109DF808009DF8091000EBA4
:1028A000012081B2554820309DF8042020F81210F4
:1028B000A0F114019DF8042031F8120006F03CFD4F
:1028C00041EC190B9FED520B53EC102B06F098FBCB
:1028D00041EC180B06F0ECFC81B248480C309DF836
:1028E000042020F8121000F114019DF8042031F8A2
:1028F000120006F021FD41EC190B9FED430B53EC48
:10290000102B06F07DFB41EC180B06F0D1FC81B2D8
:102910003A4820309DF8042020F812109DF8040059
:10292000401CC0B201909DF80400334909788842E8
:10293000FFF6E4AE01263148808932490988884291
:1029400005DC2E48008C2F494988884226DD9DF8F9
:102950001C0000F00F0001280ADD2848C089274923
:1029600088810846408C088400202249087018E0BD
:1029700021480078401E21490C3131F810000C39F3
:1029800088811D480078401E203131F81000203920
:102990000884802007900846858602E000201549BB
:1029A00008709DF81C0000F08F00802815D1134896
:1029B000808E00F4004030B11048808E20F400403A
:1029C0000E49888609E04FF6FF700C49888108841B
:1029D0000846808E00F46040888606480078F0281B
:1029E00002DD0A2003490870304603B0BDEC048BB9
:1029F00078BD0000320000203100002034000020AB
:102A000058E00008D20000207B14AE47E17AF43F82
:102A1000000000000000F43F2DE9F04104460E469E
:102A200017464FF00008FFF733FA2820FFF708FA9F
:102A3000FFF76AFA2012FFF703FAFFF765FAE0B230
:102A4000FFF7FEF9FFF760FA00250BE0705DFFF776
:102A5000F7F9FFF759FA8046B8F1000F00D003E00C
:102A6000681CC5B2BD42F1DB00BFFFF731FA40463A
:102A7000BDE8F08110B5002220210D4805F010FAC4
:102A800000F018F801221021094805F009FA00F0B9
:102A900011F800221021064805F002FA00F00AF8A9
:102AA00001222021024805F0FBF900F003F810BDD7
:102AB000001C024010B50220FFF776FA10BD00009E
:102AC0001CB500BF1148006840F080000F49086045
:102AD00000BF00BF0846006840F08000086000BFEB
:102AE000012000900023024610210190084805F0C3
:102AF000E3F901200090034602462021019004489A
:102B000005F0DAF900F08EF81CBD00003038024004
:102B1000001C024010B5012220210A4805F0C0F92E
:102B2000FFF7C8FF01221021064805F0B9F9FFF7A9
:102B3000C1FF00221021034805F0B2F9FFF7BAFFE8
:102B400010BD0000001C024070B5054600240026A0
:102B500018E06006040E012210210F4805F0A0F9CC
:102B6000FFF7A8FF20210C4805F092F908B1601C7E
:102B7000C4B200221021084805F092F9FFF79AFF2D
:102B8000701CC6B2082EE4DB15B9FFF7C3FF01E0E5
:102B9000FFF770FF204670BD001C024070B5044670
:102BA000002516E0E20920210E4805F079F9FFF72B
:102BB00081FF012210210B4805F072F9FFF77AFF1F
:102BC00000221021074805F06BF96006040E681C0E
:102BD000C5B2082DE6DB01222021024805F060F98C
:102BE00070BD0000001C024010B5012220210C48DD
:102BF00005F056F901221021094805F051F9FFF7B7
:102C000059FF00222021064805F04AF9FFF752FF3C
:102C100000221021024805F043F9FFF74BFF10BDD9
:102C2000001C024010B5002220210A4805F038F9A6
:102C3000FFF740FF01221021064805F031F9FFF7A8
:102C400039FF01222021034805F02AF9FFF732FF5E
:102C500010BD0000001C024070B5002400250122B8
:102C60002021124805F01CF9FFF724FF0122102152
:102C70000E4805F015F9FFF71DFF07E0601CC4B210
:102C8000FA2C03DDFFF7CEFF012505E020210748E0
:102C900005F0FEF80028F1D100BF00221021034802
:102CA00005F0FEF8FFF706FF284670BD001C024045
:102CB0001CB500BF2048006840F080001E49086035
:102CC00000BF00BF0846006840F08000086000BFF9
:102CD00000BF0846006840F00400086000BF00BF65
:102CE0000846006840F00100086000BF0120009025
:102CF00000231A4608210190104805F0DDF8012054
:102D0000009000231A46042101900C4805F0D4F8E5
:102D10000120009000231A4641030190084805F065
:102D2000CBF80220012100231A46CDE90010054806
:102D300005F0C2F81CBD000030380240001C024003
:102D4000000802400000024070B5044600260D480D
:102D500005880D48006818B1204603F011FD0FE00A
:102D60000848408845430021084603F0CBFA03F0A9
:102D7000C3FC002602E005480480761CAE42FAD36C
:102D800070BD0000D2000020E000002000000860BC
:102D900010B50446604884716048006850B1204610
:102DA00003F04CFD5D48C08A5B4908805B48008B9E
:102DB000488010BD002C58D1F020574908804FF4AE
:102DC000A07048800846808845F21051884210D192
:102DD0004FF43050504908814FF4285048814FF447
:102DE0002C5088814FF4F07008804FF44870488070
:102DF0001AE04948808841F6631188420DD12C20A1
:102E0000454908812B2048812A2088814FF4F070A1
:102E100008804FF44870488006E02C203E49088125
:102E20002A2048812B2088813B48808845F2103138
:102E3000884205D03848808847F29671884206D18A
:102E40004FF4A070344908804FF4F0704880324845
:102E5000808849F60601884258D14FF4F0702E4917
:102E600008804FF44870488050E04FF4A0702A4921
:102E70000880F02048800846808845F2105188423A
:102E800010D14FF43050244908814FF42850488124
:102E90004FF42C5088814FF4487008804FF4F07044
:102EA000488020E01C48808841F66311884205D0A4
:102EB0001948808849F6060188420DD12C20164910
:102EC00008812A2048812B2088814FF4487008808F
:102ED0004FF4F070488006E02C200F4908812A202A
:102EE00048812B2088810C48808845F21031884227
:102EF00005D00948808847F29671884206D14FF480
:102F0000F070054908804FF4A0704880002003F05D
:102F1000DBF800BF4DE70000D2000020E0000020F9
:102F20002DE9F04706460F4690469A46002445464E
:102F30000320A0EB480944E07A1B91B2321990B209
:102F4000524600F0C3F83A1B91B2721990B2524641
:102F500000F0BCF83A1991B2721990B2524600F0E2
:102F6000B5F87A1991B2321990B2524600F0AEF823
:102F70007A1991B2321B90B2524600F0A7F83A1972
:102F800091B2721B90B2524600F0A0F87A1B91B237
:102F9000321B90B2524600F099F83A1B91B2721B64
:102FA00090B2524600F092F8641CB9F1000F03DAB7
:102FB000A000801D814404E0601B80000A30814431
:102FC0006D1EAC42B8DDBDE8F0870000F8B50446E0
:102FD0000D4616461F461148807998B13EB10F48FC
:102FE0000088A04203DB0D484088A84200DAF8BD03
:102FF0003EB10A480088A04203DB08484088A84246
:1030000000DAF4E7A019401E82B22B46294620467A
:10301000009702F0B5FC00BFE9E70000D2000020F5
:103020002DE9FF4F85B081468A46002003908346F4
:103030000798A0EB09050898A0EB0A06CDF80890C0
:10304000CDF804A0002D01DD012705E00DB9002712
:1030500002E04FF0FF376D42002E02DD4FF0010815
:1030600006E016B94FF0000802E04FF0FF38764254
:10307000B54201DD2C4600E03446002004901EE0FD
:10308000019A91B2029A90B2129A00F01FF8039836
:1030900028440390B3440398A04205DD0398001B25
:1030A0000390029838440290A34504DDABEB040B77
:1030B0000198404401900498401C80B20490611C27
:1030C00004988842DCDD09B0BDE8F08F70B5054694
:1030D0000E4614460848006828B122463146284664
:1030E00003F0C2FB07E03146284603F00BF903F07A
:1030F00003FB02490C8070BDE00000200000086066
:103100002DE9F84305460E4617469846089C334677
:103110003A46314628460094FFF782FF43462A4646
:10312000314628460094FFF77BFF43463A46414626
:1031300028460094FFF774FF43463A463146384626
:103140000094FFF76DFFBDE8F88310B5CF2003F0C2
:10315000C7FA002003F0B8FAC12003F0B5FA302016
:1031600003F0B2FAED2003F0BBFA642003F0ACFAEE
:10317000032003F0A9FA122003F0A6FA812003F03D
:10318000A3FAE82003F0ACFA852003F09DFA1020A2
:1031900003F09AFA7A2003F097FACB2003F0A0FA12
:1031A000392003F091FA2C2003F08EFA002003F06E
:1031B0008BFA342003F088FA022003F085FAF72016
:1031C00003F08EFA202003F07FFAEA2003F088FA59
:1031D000002003F079FA002003F076FAC02003F013
:1031E0007FFA1B2003F070FAC12003F079FA012066
:1031F00003F06AFAC52003F073FA302003F064FA92
:10320000302003F061FAC72003F06AFAB72003F018
:103210005BFA362003F064FA482003F055FA3A20AE
:1032200003F05EFA552003F04FFAB12003F058FA8C
:10323000002003F049FA1A2003F046FAB62003F002
:103240004FFA0A2003F040FAA22003F03DFAF220E0
:1032500003F046FA002003F037FA262003F040FA84
:10326000012003F031FAE02003F03AFA0F2003F0D6
:103270002BFA2A2003F028FA282003F025FA082048
:1032800003F022FA0E2003F01FFA082003F01CFAC4
:10329000542003F019FAA92003F016FA432003F092
:1032A00013FA0A2003F010FA0F2003F00DFA0020A1
:1032B00003F00AFA002003F007FA002003F004FAF2
:1032C000002003F001FAE12003F00AFA002003F0E5
:1032D000FBF9152003F0F8F9172003F0F5F90720A2
:1032E00003F0F2F9112003F0EFF9062003F0ECF9F6
:1032F0002B2003F0E9F9562003F0E6F93C2003F017
:10330000E3F9052003F0E0F9102003F0DDF90F20C8
:1033100003F0DAF93F2003F0D7F93F2003F0D4F9A6
:103320000F2003F0D1F92B2003F0DAF9002003F08D
:10333000CBF9002003F0C8F9012003F0C5F93F20C4
:1033400003F0C2F92A2003F0CBF9002003F0BCF906
:10335000002003F0B9F9002003F0B6F9EF2003F0E4
:10336000B3F9112003F0BCF97820FEF713FE2920F1
:1033700003F0B6F910BD10B5FF2003F0B1F9FF203E
:1033800003F0A2F9982003F09FF9062003F09CF9BE
:10339000BC2003F0A5F9012003F096F90F2003F0FB
:1033A00093F9612003F090F9FF2003F08DF90120DB
:1033B00003F08AF9012003F087F90B2003F084F968
:1033C000102003F081F9372003F07EF9632003F029
:1033D0007BF9FF2003F078F9FF2003F075F9012055
:1033E00003F072F9012003F06FF9002003F06CF98B
:1033F000002003F069F9FF2003F066F9522003F082
:1034000063F9012003F060F9002003F05DF940202A
:1034100003F05AF9BD2003F063F9012003F054F9D9
:10342000232003F051F9452003F04EF9672003F003
:103430004BF9012003F048F9232003F045F945201A
:1034400003F042F9672003F03FF9BE2003F048F98A
:10345000002003F039F9012003F036F9AB2003F026
:1034600033F9602003F030F9222003F02DF92220F7
:1034700003F02AF9222003F027F9222003F024F98F
:10348000222003F021F9C72003F02AF9362003F0A7
:103490001BF9ED2003F024F97F2003F015F90F202C
:1034A00003F012F9C02003F01BF90F2003F00CF910
:1034B0000B2003F009F90A2003F006F9FC2003F0C1
:1034C0000FF9082003F000F9DF2003F009F90020CC
:1034D00003F0FAF8002003F0F7F8002003F0F4F806
:1034E000002003F0F1F8002003F0EEF8202003F0B4
:1034F000EBF8F32003F0F4F8742003F0E5F8B420BF
:1035000003F0EEF8002003F0DFF8002003F0DCF811
:10351000002003F0D9F8F72003F0E2F8822003F04E
:10352000D3F8B12003F0DCF8002003F0CDF813202D
:1035300003F0CAF8132003F0C7F8F22003F0D0F824
:10354000802003F0C1F8042003F0BEF8402003F00F
:10355000BBF8282003F0B8F8C12003F0C1F8172009
:1035600003F0B2F8882003F0AFF8882003F0ACF83D
:10357000202003F0A9F8E02003F0B2F8002003F0C7
:10358000A3F80A2003F0A0F8122003F09DF8102001
:1035900003F09AF80E2003F097F8202003F094F837
:1035A000CC2003F091F8072003F08EF8062003F0FA
:1035B0008BF80B2003F088F80E2003F085F80F201D
:1035C00003F082F80D2003F07FF8152003F07CF85B
:1035D000102003F079F8002003F076F8E12003F0E2
:1035E0007FF8002003F070F80B2003F06DF8132033
:1035F00003F06AF80D2003F067F80E2003F064F87A
:103600001B2003F061F8712003F05EF8062003F040
:103610005BF8062003F058F80A2003F055F80F2055
:1036200003F052F80E2003F04FF80F2003F04CF88F
:10363000152003F049F80C2003F046F8002003F0B1
:1036400043F82A2003F04CF8002003F03DF8002056
:1036500003F03AF8012003F037F8DF2003F034F8E4
:103660002B2003F03DF8002003F02EF8002003F09B
:103670002BF8032003F028F81F2003F025F83A2048
:1036800003F02EF8552003F01FF8362003F028F839
:10369000002003F019F8112003F022F87820FEF73B
:1036A00079FC292003F01CF81420FEF773FC2C2071
:1036B00003F016F810BD10B5ED2003F011F801204D
:1036C00003F002F8FE2002F0FFFFEE2003F008F8FE
:1036D000DE2002F0F9FF212002F0F6FFF12002F0D7
:1036E000FFFF012002F0F0FFDF2002F0F9FF1020C1
:1036F00002F0EAFFC42002F0F3FF8F2002F0E4FFA3
:10370000C62002F0EDFF002002F0DEFFE22002F012
:10371000DBFFE22002F0D8FFE22002F0D5FFBF205D
:1037200002F0DEFFAA2002F0CFFFB02002F0D8FFA7
:103730000D2002F0C9FF002002F0C6FF0D2002F0AC
:10374000C3FF002002F0C0FF112002F0BDFF0020E7
:1037500002F0BAFF192002F0B7FF002002F0B4FF18
:10376000212002F0B1FF002002F0AEFF2D2002F078
:10377000ABFF002002F0A8FF3D2002F0A5FF0020D3
:1037800002F0A2FF5D2002F09FFF002002F09CFFEC
:103790005D2002F099FF002002F096FFB12002F0B8
:1037A0009FFF802002F090FF002002F08DFF8B2011
:1037B00002F08AFF002002F087FF962002F084FFCB
:1037C000002002F081FFB22002F08AFF002002F008
:1037D0007BFF002002F078FF022002F075FF00203E
:1037E00002F072FF032002F06FFF002002F06CFF76
:1037F000B32002F075FF002002F066FF002002F007
:1038000063FF002002F060FF002002F05DFF002057
:1038100002F05AFF002002F057FF002002F054FF90
:10382000002002F051FF002002F04EFF002002F0C5
:103830004BFF002002F048FF002002F045FF00206F
:1038400002F042FF002002F03FFF002002F03CFFA8
:10385000002002F039FF002002F036FF002002F0C5
:1038600033FF002002F030FF002002F02DFF002087
:1038700002F02AFF002002F027FF002002F024FFC0
:10388000002002F021FFB42002F02AFF8B2002F07A
:103890001BFF002002F018FF962002F015FF002009
:1038A00002F012FFA12002F00FFF002002F00CFF37
:1038B000B52002F015FF022002F006FF002002F002
:1038C00003FF032002F000FF002002F0FDFE0420B1
:1038D00002F0FAFE002002F0F7FEB62002F000FF30
:1038E000002002F0F1FE002002F0EEFEB72002F010
:1038F000F7FE002002F0E8FE002002F0E5FE3F2087
:1039000002F0E2FE002002F0DFFE5E2002F0DCFEAC
:10391000002002F0D9FE642002F0D6FE002002F062
:10392000D3FE8C2002F0D0FE002002F0CDFEAC20B1
:1039300002F0CAFE002002F0C7FEDC2002F0C4FE46
:10394000002002F0C1FE702002F0BEFE002002F056
:10395000BBFE902002F0B8FE002002F0B5FEEB2086
:1039600002F0B2FE002002F0AFFEDC2002F0ACFE5E
:10397000002002F0A9FEB82002F0B2FE002002F002
:10398000A3FE002002F0A0FE002002F09DFE002019
:1039900002F09AFE002002F097FE002002F094FE52
:1039A000002002F091FE002002F08EFEBA2002F00C
:1039B00097FE242002F088FE002002F085FE002001
:1039C00002F082FE002002F07FFEC12002F088FE9D
:1039D000202002F079FE002002F076FE542002F052
:1039E00073FE002002F070FEFF2002F06DFE00204A
:1039F00002F06AFEC22002F073FE0A2002F064FEAA
:103A0000002002F061FE042002F05EFE002002F0C1
:103A10005BFEC32002F064FE3C2002F055FE002055
:103A200002F052FE3A2002F04FFE002002F04CFE5F
:103A3000392002F049FE002002F046FE372002F055
:103A400043FE002002F040FE3C2002F03DFE00203C
:103A500002F03AFE362002F037FE002002F034FE7B
:103A6000322002F031FE002002F02EFE2F2002F064
:103A70002BFE002002F028FE2C2002F025FE002064
:103A800002F022FE292002F01FFE002002F01CFEA0
:103A9000262002F019FE002002F016FE242002F07B
:103AA00013FE002002F010FE242002F00DFE002084
:103AB00002F00AFE232002F007FE002002F004FEBE
:103AC0003C2002F001FE002002F0FEFD362002F054
:103AD000FBFD002002F0F8FD322002F0F5FD002091
:103AE00002F0F2FD2F2002F0EFFD002002F0ECFDCD
:103AF0002C2002F0E9FD002002F0E6FD292002F072
:103B0000E3FD002002F0E0FD262002F0DDFD0020B4
:103B100002F0DAFD242002F0D7FD002002F0D4FDEF
:103B2000242002F0D1FD002002F0CEFD232002F07F
:103B3000CBFD002002F0C8FDC42002F0D1FD6220C0
:103B400002F0C2FD002002F0BFFD052002F0BCFD26
:103B5000002002F0B9FD842002F0B6FD002002F042
:103B6000B3FDF02002F0B0FD002002F0ADFD182002
:103B700002F0AAFD002002F0A7FDA42002F0A4FD9F
:103B8000002002F0A1FD182002F09EFD002002F0AE
:103B90009BFD502002F098FD002002F095FD0C20C6
:103BA00002F092FD002002F08FFD172002F08CFD44
:103BB000002002F089FD952002F086FD002002F031
:103BC00083FDF32002F080FD002002F07DFDE62061
:103BD00002F07AFD002002F077FDC52002F080FDA2
:103BE000322002F071FD002002F06EFD442002F050
:103BF0006BFD002002F068FD652002F065FD0020ED
:103C000002F062FD762002F05FFD002002F05CFD14
:103C1000882002F059FD002002F056FDC62002F077
:103C20005FFD202002F050FD002002F04DFD172026
:103C300002F04AFD002002F047FD012002F044FDA1
:103C4000002002F041FDC72002F04AFD002002F0F2
:103C50003BFD002002F038FD002002F035FD002081
:103C600002F032FDC82002F03BFD002002F02CFDE6
:103C7000002002F029FD002002F026FD002002F0C5
:103C800023FDC92002F02CFD002002F01DFD0020C4
:103C900002F01AFD002002F017FD002002F014FDD2
:103CA000002002F011FD002002F00EFD002002F0C5
:103CB0000BFD002002F008FD002002F005FD0020B1
:103CC00002F002FD002002F0FFFC002002F0FCFCEC
:103CD000002002F0F9FC002002F0F6FC002002F0C7
:103CE000F3FC002002F0F0FCE02002F0F9FC1620CA
:103CF00002F0EAFC002002F0E7FC1C2002F0E4FCE9
:103D0000002002F0E1FC212002F0DEFC002002F0A5
:103D1000DBFC362002F0D8FC002002F0D5FC462067
:103D200002F0D2FC002002F0CFFC522002F0CCFCCA
:103D3000002002F0C9FC642002F0C6FC002002F062
:103D4000C3FC7A2002F0C0FC002002F0BDFC8B20F6
:103D500002F0BAFC002002F0B7FC992002F0B4FC9B
:103D6000002002F0B1FCA82002F0AEFC002002F01E
:103D7000ABFCB92002F0A8FC002002F0A5FCC42096
:103D800002F0A2FC002002F09FFCCA2002F09CFC82
:103D9000002002F099FCD22002F096FC002002F0F4
:103DA00093FCD92002F090FC002002F08DFCE02072
:103DB00002F08AFC002002F087FCF32002F084FC71
:103DC000002002F081FCE12002F08AFC162002F0C3
:103DD0007BFC002002F078FC1C2002F075FC002027
:103DE00002F072FC222002F06FFC002002F06CFC5A
:103DF000362002F069FC002002F066FC452002F04B
:103E000063FC002002F060FC522002F05DFC002008
:103E100002F05AFC642002F057FC002002F054FC2F
:103E20007A2002F051FC002002F04EFC8B2002F0C0
:103E30004BFC002002F048FC992002F045FC0020D9
:103E400002F042FCA82002F03FFC002002F03CFC03
:103E5000B92002F039FC002002F036FCC42002F048
:103E600033FC002002F030FCCA2002F02DFC0020C0
:103E700002F02AFCD22002F027FC002002F024FCF1
:103E8000D82002F021FC002002F01EFCE02002F00D
:103E90001BFC002002F018FCF32002F015FC0020AF
:103EA00002F012FCE22002F01BFC052002F00CFCE8
:103EB000002002F009FC0B2002F006FC002002F0BA
:103EC00003FC1B2002F000FC002002F0FDFB34206C
:103ED00002F0FAFB002002F0F7FB442002F0F4FBB2
:103EE000002002F0F1FB4F2002F0EEFB002002F078
:103EF000EBFB612002F0E8FB002002F0E5FB7920FB
:103F000002F0E2FB002002F0DFFB882002F0DCFB85
:103F1000002002F0D9FB972002F0D6FB002002F02F
:103F2000D3FBA62002F0D0FB002002F0CDFBB7208F
:103F300002F0CAFB002002F0C7FBC22002F0C4FB63
:103F4000002002F0C1FBC72002F0BEFB002002F0FF
:103F5000BBFBD12002F0B8FB002002F0B5FBD6205D
:103F600002F0B2FB002002F0AFFBDD2002F0ACFB60
:103F7000002002F0A9FBF32002F0A6FB002002F0D3
:103F8000A3FBE32002F0ACFB052002F09DFB002028
:103F900002F09AFB0A2002F097FB002002F094FB4B
:103FA0001C2002F091FB002002F08EFB332002F077
:103FB0008BFB002002F088FB442002F085FB0020F0
:103FC00002F082FB502002F07FFB002002F07CFB1D
:103FD000622002F079FB002002F076FB782002F0EC
:103FE00073FB002002F070FB882002F06DFB0020C4
:103FF00002F06AFB972002F067FB002002F064FBEE
:10400000A62002F061FB002002F05EFBB72002F068
:104010005BFB002002F058FBC22002F055FB0020A1
:1040200002F052FBC72002F04FFB002002F04CFBD5
:10403000D12002F049FB002002F046FBD52002F01F
:1040400043FB002002F040FBDD2002F03DFB00209E
:1040500002F03AFBF32002F037FB002002F034FBC1
:10406000E42002F03DFB012002F02EFB002002F0D4
:104070002BFB012002F028FB002002F025FB022090
:1040800002F022FB002002F01FFB2A2002F01CFBA2
:10409000002002F019FB3C2002F016FB002002F089
:1040A00013FB4B2002F010FB002002F00DFB5D2003
:1040B00002F00AFB002002F007FB742002F004FB70
:1040C000002002F001FB842002F0FEFA002002F042
:1040D000FBFA932002F0F8FA002002F0F5FAA22091
:1040E00002F0F2FA002002F0EFFAB32002F0ECFA4C
:1040F000002002F0E9FABE2002F0E6FA002002F009
:10410000E3FAC42002F0E0FA002002F0DDFACD204C
:1041100002F0DAFA002002F0D7FAD32002F0D4FA43
:10412000002002F0D1FADD2002F0CEFA002002F0E9
:10413000CBFAF32002F0C8FA002002F0C5FAE5201D
:1041400002F0CEFA002002F0BFFA002002F0BCFA22
:10415000002002F0B9FA002002F0B6FA022002F0C4
:10416000B3FA002002F0B0FA292002F0ADFA0020E4
:1041700002F0AAFA3C2002F0A7FA002002F0A4FA0A
:104180004B2002F0A1FA002002F09EFA5D2002F01E
:104190009BFA002002F098FA742002F095FA0020B1
:1041A00002F092FA842002F08FFA002002F08CFADA
:1041B000932002F089FA002002F086FAA22002F091
:1041C00083FA002002F080FAB32002F07DFA00208A
:1041D00002F07AFABE2002F077FA002002F074FAB8
:1041E000C42002F071FA002002F06EFACD2002F035
:1041F0006BFA002002F068FAD32002F065FA002082
:1042000002F062FADC2002F05FFA002002F05CFAB1
:10421000F32002F059FA002002F056FAE62002F0EC
:104220005FFA112002F050FA002002F04DFA34201B
:1042300002F04AFA002002F047FA562002F044FA4F
:10424000002002F041FA762002F03EFA002002F04F
:104250003BFA772002F038FA002002F035FA6620A7
:1042600002F032FA002002F02FFA882002F02CFA35
:10427000002002F029FA992002F026FA002002F02C
:1042800023FABB2002F020FA002002F01DFA992048
:1042900002F01AFA002002F017FA662002F014FA6F
:1042A000002002F011FA552002F00EFA002002F070
:1042B0000BFA552002F008FA002002F005FA45201A
:1042C00002F002FA002002F0FFF9432002F0FCF9AC
:1042D000002002F0F9F9442002F0F6F9002002F083
:1042E000F3F9E72002F0FCF9322002F0EDF90020AA
:1042F00002F0EAF9552002F0E7F9002002F0E4F9B3
:10430000762002F0E1F9002002F0DEF9662002F0EA
:10431000DBF9002002F0D8F9672002F0D5F900207F
:1043200002F0D2F9672002F0CFF9002002F0CCF9B8
:10433000872002F0C9F9002002F0C6F9992002F0A6
:10434000C3F9002002F0C0F9BB2002F0BDF9002043
:1043500002F0BAF9992002F0B7F9002002F0B4F99E
:10436000772002F0B1F9002002F0AEF9442002F00B
:10437000ABF9002002F0A8F9562002F0A5F90020C0
:1043800002F0A2F9232002F09FF9002002F09CF92C
:10439000332002F099F9002002F096F9452002F04E
:1043A00093F9002002F090F9E82002F099F900203A
:1043B00002F08AF9002002F087F9992002F084F9CE
:1043C000002002F081F9872002F07EF9002002F03F
:1043D0007BF9882002F078F9002002F075F9772047
:1043E00002F072F9002002F06FF9662002F06CF919
:1043F000002002F069F9882002F066F9002002F03E
:1044000063F9AA2002F060F9002002F05DF9BB20F8
:1044100002F05AF9002002F057F9992002F054F9FD
:10442000002002F051F9662002F04EF9002002F05F
:104430004BF9552002F048F9002002F045F95520CB
:1044400002F042F9002002F03FF9442002F03CF96A
:10445000002002F039F9442002F036F9002002F081
:1044600033F9552002F030F9002002F02DF9E9204F
:1044700002F036F9AA2002F027F9002002F024F910
:10448000002002F021F9002002F01EF9002002F0C5
:1044900027F9AA2002F018F9CF2002F021F9002014
:1044A00002F012F9002002F00FF9002002F00CF9DE
:1044B000002002F009F9002002F006F9002002F0C5
:1044C00003F9002002F000F9002002F0FDF80020BE
:1044D00002F0FAF8002002F0F7F8002002F0F4F8F9
:1044E000002002F0F1F8002002F0EEF8002002F0C7
:1044F000EBF8002002F0E8F8002002F0E5F80020D8
:1045000002F0E2F8F02002F0EBF8002002F0DCF814
:10451000502002F0D9F8002002F0D6F8002002F076
:10452000D3F8002002F0D0F8F32002F0D9F80020F0
:1045300002F0CAF8F92002F0D3F8062002F0C4F81D
:10454000102002F0C1F8292002F0BEF8002002F08D
:10455000BBF83A2002F0C4F8552002F0B5F811205B
:1045600002F0BEF86420FDF715FD292002F0B8F82E
:10457000352002F0B5F8002002F0A6F8512002F034
:10458000AFF8FF2002F0A0F8532002F0A9F82C2089
:1045900002F09AF8552002F0A3F8822002F094F875
:1045A0002C2002F09DF810BD10B555214FF470403D
:1045B00002F0ACF8AA214FF2010002F0A7F8522154
:1045C0004FF2020002F0A2F808214FF2030002F0BD
:1045D0009DF801214FF2040002F098F80D214FF4EC
:1045E000304002F093F80D214BF2010002F08EF8FA
:1045F0000D214BF2020002F089F834214FF43640CD
:1046000002F084F834214BF2016002F07FF834218B
:104610004BF2026002F07AF80D214FF4314002F0C3
:1046200075F80D214BF2011002F070F80D214BF2DC
:10463000021002F06BF834214FF4374002F066F8B4
:1046400034214BF2017002F061F834214BF2027018
:1046500002F05CF800214FF4324002F057F80021DC
:104660004BF2012002F052F800214BF2022002F03E
:104670004DF824214FF4384002F048F824214BF63D
:10468000010002F043F824214BF6020002F03EF84C
:1046900001214FF43F4002F039F80F214FF433402D
:1046A00002F034F80F214BF2013002F02FF80F2105
:1046B0004BF2023002F02AF834214FF4394002F074
:1046C00025F834214BF6011002F020F834214BF686
:1046D000021002F01BF808214FF4354002F016F8E2
:1046E00008214BF2015002F011F808214BF2025060
:1046F00002F00CF803214FF4424002F007F82421A5
:104700004FF43A4002F002F824214BF6012001F068
:10471000FDFF24214BF6022001F0F8FF00214FF4A9
:104720003C4001F0F3FF78214BF6014001F0EEFF31
:1047300000214BF6024001F0E9FF00214FF43D401B
:1047400001F0E4FF78214BF6015001F0DFFF00217A
:104750004BF6025001F0DAFF00214FF43E4001F029
:10476000D5FF64214BF6016001F0D0FF00214FF42A
:10477000514001F0CBFF33214DF2011001F0C6FF93
:1047800000214DF2021001F0C1FF34214DF203105F
:1047900001F0BCFF00214DF2041001F0B7FF3A21F7
:1047A0004DF2051001F0B2FF00214DF2061001F0AC
:1047B000ADFF4A214DF2071001F0A8FF00214DF294
:1047C000081001F0A3FF5C214DF2091001F09EFFDB
:1047D00000214DF20A1001F099FF81214DF20B10DA
:1047E00001F094FF00214DF20C1001F08FFFA62183
:1047F0004DF20D1001F08AFF00214DF20E1001F074
:1048000085FFE5214DF20F1001F080FF01214DF2EF
:10481000101001F07BFF13214DF2111001F076FF13
:1048200001214DF2121001F071FF54214DF21310CD
:1048300001F06CFF01214DF2141001F067FF82219D
:104840004DF2151001F062FF01214DF2161001F03A
:104850005DFFCA214DF2171001F058FF02214DF201
:10486000181001F053FF00214DF2191001F04EFF16
:1048700002214DF21A1001F049FF01214DF21B10E7
:1048800001F044FF02214DF21C1001F03FFF3421E2
:104890004DF21D1001F03AFF02214DF21E1001F001
:1048A00035FF67214DF21F1001F030FF02214DF25C
:1048B000201001F02BFF84214DF2211001F026FF82
:1048C00002214DF2221001F021FFA4214DF223100C
:1048D00001F01CFF02214DF2241001F017FFB72157
:1048E0004DF2251001F012FF02214DF2261001F0C9
:1048F0000DFFCF214DF2271001F008FF02214DF2EC
:10490000281001F003FFDE214DF2291001F0FEFE18
:1049100002214DF22A1001F0F9FEF2214DF22B1086
:1049200001F0F4FE02214DF22C1001F0EFFEFE2109
:104930004DF22D1001F0EAFE03214DF22E1001F090
:10494000E5FE10214DF22F1001F0E0FE03214DF2A3
:10495000301001F0DBFE33214DF2311001F0D6FEB4
:1049600003214DF2321001F0D1FE6D214DF23310D2
:1049700001F0CCFE00214FF4524001F0C7FE33217C
:104980004DF2012001F0C2FE00214DF2022001F0A3
:10499000BDFE34214DF2032001F0B8FE00214DF29E
:1049A000042001F0B3FE3A214DF2052001F0AEFEE5
:1049B00000214DF2062001F0A9FE4A214DF2072008
:1049C00001F0A4FE00214DF2082001F09FFE5C21C1
:1049D0004DF2092001F09AFE00214DF20A2001F06B
:1049E00095FE81214DF20B2001F090FE00214DF249
:1049F0000C2001F08BFEA6214DF20D2001F086FE69
:104A000000214DF20E2001F081FEE5214DF20F2034
:104A100001F07CFE01214DF2102001F077FE132100
:104A20004DF2112001F072FE01214DF2122001F031
:104A30006DFE54214DF2132001F068FE01214DF26C
:104A4000142001F063FE82214DF2152001F05EFE7C
:104A500001214DF2162001F059FECA214DF2172016
:104A600001F054FE02214DF2182001F04FFE00210A
:104A70004DF2192001F04AFE02214DF21A2001F0F8
:104A800045FE01214DF21B2001F040FE02214DF2B6
:104A90001C2001F03BFE34214DF21D2001F036FEBA
:104AA00002214DF21E2001F031FE67214DF21F2040
:104AB00001F02CFE02214DF2202001F027FE84217E
:104AC0004DF2212001F022FE02214DF2222001F0C0
:104AD0001DFEA4214DF2232001F018FE02214DF20B
:104AE000242001F013FEB7214DF2252001F00EFE27
:104AF00002214DF2262001F009FECF214DF22720A0
:104B000001F004FE02214DF2282001F0FFFDDE211C
:104B10004DF2292001F0FAFD02214DF22A2001F088
:104B2000F5FDF2214DF22B2001F0F0FD02214DF2B6
:104B30002C2001F0EBFDFE214DF22D2001F0E6FDD1
:104B400003214DF22E2001F0E1FD10214DF22F2026
:104B500001F0DCFD03214DF2302001F0D7FD3321BF
:104B60004DF2312001F0D2FD03214DF2322001F04F
:104B7000CDFD6D214DF2332001F0C8FD00214FF431
:104B8000534001F0C3FD33214DF2013001F0BEFD71
:104B900000214DF2023001F0B9FD34214DF2033015
:104BA00001F0B4FD00214DF2043001F0AFFD3A21D7
:104BB0004DF2053001F0AAFD00214DF2063001F062
:104BC000A5FD4A214DF2073001F0A0FD00214DF274
:104BD000083001F09BFD5C214DF2093001F096FD9B
:104BE00000214DF20A3001F091FD81214DF20B3090
:104BF00001F08CFD00214DF20C3001F087FDA62163
:104C00004DF20D3001F082FD00214DF20E3001F029
:104C10007DFDE5214DF20F3001F078FD01214DF2CF
:104C2000103001F073FD13214DF2113001F06EFDD3
:104C300001214DF2123001F069FD54214DF2133083
:104C400001F064FD01214DF2143001F05FFD82217D
:104C50004DF2153001F05AFD01214DF2163001F0F0
:104C600055FDCA214DF2173001F050FD02214DF2E1
:104C7000183001F04BFD00214DF2193001F046FDD6
:104C800002214DF21A3001F041FD01214DF21B309D
:104C900001F03CFD02214DF21C3001F037FD3421C2
:104CA0004DF21D3001F032FD02214DF21E3001F0B7
:104CB0002DFD67214DF21F3001F028FD02214DF23C
:104CC000203001F023FD84214DF2213001F01EFD42
:104CD00002214DF2223001F019FDA4214DF22330C2
:104CE00001F014FD02214DF2243001F00FFDB72137
:104CF0004DF2253001F00AFD02214DF2263001F07F
:104D000005FDCF214DF2273001F000FD02214DF2CB
:104D1000283001F0FBFCDE214DF2293001F0F6FCD9
:104D200002214DF22A3001F0F1FCF2214DF22B303C
:104D300001F0ECFC02214DF22C3001F0E7FCFE21E9
:104D40004DF22D3001F0E2FC03214DF22E3001F046
:104D5000DDFC10214DF22F3001F0D8FC03214DF283
:104D6000303001F0D3FC33214DF2313001F0CEFC74
:104D700003214DF2323001F0C9FC6D214DF2333088
:104D800001F0C4FC00214FF4544001F0BFFC33217A
:104D90004DF2014001F0BAFC00214DF2024001F059
:104DA000B5FC34214DF2034001F0B0FC00214DF27E
:104DB000044001F0ABFC3A214DF2054001F0A6FCA5
:104DC00000214DF2064001F0A1FC4A214DF20740BE
:104DD00001F09CFC00214DF2084001F097FC5C21A1
:104DE0004DF2094001F092FC00214DF20A4001F021
:104DF0008DFC81214DF20B4001F088FC00214DF229
:104E00000C4001F083FCA6214DF20D4001F07EFC28
:104E100000214DF20E4001F079FCE5214DF20F40EA
:104E200001F074FC01214DF2104001F06FFC1321E0
:104E30004DF2114001F06AFC01214DF2124001F0E7
:104E400065FC54214DF2134001F060FC01214DF24C
:104E5000144001F05BFC82214DF2154001F056FC3C
:104E600001214DF2164001F051FCCA214DF21740CC
:104E700001F04CFC02214DF2184001F047FC0021EA
:104E80004DF2194001F042FC02214DF21A4001F0AE
:104E90003DFC01214DF21B4001F038FC02214DF296
:104EA0001C4001F033FC34214DF21D4001F02EFC7A
:104EB00002214DF21E4001F029FC67214DF21F40F6
:104EC00001F024FC02214DF2204001F01FFC84215E
:104ED0004DF2214001F01AFC02214DF2224001F076
:104EE00015FCA4214DF2234001F010FC02214DF2EB
:104EF000244001F00BFCB7214DF2254001F006FCE7
:104F000002214DF2264001F001FCCF214DF2274055
:104F100001F0FCFB02214DF2284001F0F7FBDE21FD
:104F20004DF2294001F0F2FB02214DF22A4001F03E
:104F3000EDFBF2214DF22B4001F0E8FB02214DF296
:104F40002C4001F0E3FBFE214DF22D4001F0DEFB91
:104F500003214DF22E4001F0D9FB10214DF22F40DC
:104F600001F0D4FB03214DF2304001F0CFFB33219F
:104F70004DF2314001F0CAFB03214DF2324001F005
:104F8000C5FB6D214DF2334001F0C0FB00214FF411
:104F9000554001F0BBFB33214DF2015001F0B6FB4F
:104FA00000214DF2025001F0B1FB34214DF20350CB
:104FB00001F0ACFB00214DF2045001F0A7FB3A21B7
:104FC0004DF2055001F0A2FB00214DF2065001F018
:104FD0009DFB4A214DF2075001F098FB00214DF254
:104FE000085001F093FB5C214DF2095001F08EFB5B
:104FF00000214DF20A5001F089FB81214DF20B5046
:1050000001F084FB00214DF20C5001F07FFBA62142
:105010004DF20D5001F07AFB00214DF20E5001F0DF
:1050200075FBE5214DF20F5001F070FB01214DF2AF
:10503000105001F06BFB13214DF2115001F066FB93
:1050400001214DF2125001F061FB54214DF2135039
:1050500001F05CFB01214DF2145001F057FB82215D
:105060004DF2155001F052FB01214DF2165001F0A6
:105070004DFBCA214DF2175001F048FB02214DF2C1
:10508000185001F043FB00214DF2195001F03EFB96
:1050900002214DF21A5001F039FB01214DF21B5053
:1050A00001F034FB02214DF21C5001F02FFB3421A2
:1050B0004DF21D5001F02AFB02214DF21E5001F06D
:1050C00025FB67214DF21F5001F020FB02214DF21C
:1050D000205001F01BFB84214DF2215001F016FB02
:1050E00002214DF2225001F011FBA4214DF2235078
:1050F00001F00CFB02214DF2245001F007FBB72117
:105100004DF2255001F002FB02214DF2265001F034
:10511000FDFACF214DF2275001F0F8FA02214DF2AD
:10512000285001F0F3FADE214DF2295001F0EEFA99
:1051300002214DF22A5001F0E9FAF2214DF22B50F2
:1051400001F0E4FA02214DF22C5001F0DFFAFE21C9
:105150004DF22D5001F0DAFA03214DF22E5001F0FC
:10516000D5FA10214DF22F5001F0D0FA03214DF263
:10517000305001F0CBFA33214DF2315001F0C6FA34
:1051800003214DF2325001F0C1FA6D214DF233503E
:1051900001F0BCFA00214FF4564001F0B7FA332178
:1051A0004DF2016001F0B2FA00214DF2026001F00F
:1051B000ADFA34214DF2036001F0A8FA00214DF25E
:1051C000046001F0A3FA3A214DF2056001F09EFA65
:1051D00000214DF2066001F099FA4A214DF2076074
:1051E00001F094FA00214DF2086001F08FFA5C2181
:1051F0004DF2096001F08AFA00214DF20A6001F0D7
:1052000085FA81214DF20B6001F080FA00214DF208
:105210000C6001F07BFAA6214DF20D6001F076FAE8
:1052200000214DF20E6001F071FAE5214DF20F60A0
:1052300001F06CFA01214DF2106001F067FA1321C0
:105240004DF2116001F062FA01214DF2126001F09D
:105250005DFA54214DF2136001F058FA01214DF22C
:10526000146001F053FA82214DF2156001F04EFAFC
:1052700001214DF2166001F049FACA214DF2176082
:1052800001F044FA02214DF2186001F03FFA0021CA
:105290004DF2196001F03AFA02214DF21A6001F064
:1052A00035FA01214DF21B6001F030FA02214DF276
:1052B0001C6001F02BFA34214DF21D6001F026FA3A
:1052C00002214DF21E6001F021FA67214DF21F60AC
:1052D00001F01CFA02214DF2206001F017FA84213E
:1052E0004DF2216001F012FA02214DF2226001F02C
:1052F0000DFAA4214DF2236001F008FA02214DF2CB
:10530000246001F003FAB7214DF2256001F0FEF9A7
:1053100002214DF2266001F0F9F9CF214DF227600C
:1053200001F0F4F902214DF2286001F0EFF9DE21DD
:105330004DF2296001F0EAF902214DF22A6001F0F4
:10534000E5F9F2214DF22B6001F0E0F902214DF276
:105350002C6001F0DBF9FE214DF22D6001F0D6F951
:1053600003214DF22E6001F0D1F910214DF22F6092
:1053700001F0CCF903214DF2306001F0C7F933217F
:105380004DF2316001F0C2F903214DF2326001F0BB
:10539000BDF96D214DF2336001F0B8F955214FF49C
:1053A000704001F0B3F9AA214FF2010001F0AEF90B
:1053B00052214FF2020001F0A9F908214FF2030037
:1053C00001F0A4F900214FF2040001F09FF9CC2173
:1053D0004FF4314001F09AF900214BF2011001F035
:1053E00095F905214FF4364001F090F970214FF402
:1053F000374001F08BF970214BF2017001F086F912
:1054000001214FF4384001F081F903214BF60100EE
:1054100001F07CF903214BF6020001F077F903213A
:105420004BF6030001F072F902214FF43C4001F009
:105430006DF900214BF6014001F068F900214BF6AF
:10544000024001F063F9D0214FF4494001F05EF9C8
:1054500002214CF6011001F059F950214CF60210CE
:1054600001F054F950214CF6031001F04FF950218E
:105470004CF6041001F04AF900214FF4545001F0A9
:1054800045F955214FF4685001F040F94FF4885028
:1054900001F026F97820FCF787FD4FF4245001F045
:1054A0001FF910BD10B5E22001F01AF91D2001F01E
:1054B0000BF9022001F008F9042001F005F964203D
:1054C000FCF772FDE02001F00BF9012001F0FCF87F
:1054D0000A20FCF75FFDE02001F002F9032001F053
:1054E000F3F80C20FCF756FD012001F0F9F80A2032
:1054F000FCF750FDE62001F0F3F82F2001F0E4F86E
:10550000FF2001F0E1F8FF2001F0DEF8B02001F00B
:10551000E7F8202001F0D8F8002001F0D5F80320AA
:1055200001F0D2F840F21F3001F0CEF8012001F076
:10553000CBF840F2DF1001F0C7F8002001F0C4F80A
:10554000B42001F0CDF8042001F0BEF840F21F4075
:1055500001F0BAF8002001F0B7F82E2001F0B4F8FD
:10556000002001F0B1F8002001F0AEF8002001F0B9
:10557000ABF8002001F0A8F8B62001F0B1F8022045
:1055800001F0A2F84FF4037001F09EF8002001F042
:105590009BF8172001F098F8152001F095F80020ED
:1055A00001F092F8002001F08FF8F02001F098F857
:1055B000032001F089F8292001F092F8D02001F0B1
:1055C0008FF8002001F080F8BE2001F089F8052056
:1055D00001F07AF8FE2001F077F8012001F074F86C
:1055E000002001F071F8002001F06EF8002001F0B9
:1055F0006BF8B82001F074F8032001F065F8012081
:1056000001F062F8BA2001F06BF8012001F05CF8BB
:1056100010BD10B5112001F063F87820FCF7BAFC3A
:10562000362001F05DF8002001F04EF83A2001F03C
:1056300057F8052001F048F8B22001F051F80C208D
:1056400001F042F80C2001F03FF8002001F03CF896
:10565000332001F039F8332001F036F8B72001F09B
:105660003FF8352001F030F8BB2001F039F8322046
:1056700001F02AF8C02001F033F80C2001F024F8E2
:10568000C22001F02DF8012001F01EF8C32001F026
:1056900027F8102001F018F8C42001F021F820208C
:1056A00001F012F8C62001F01BF80F2001F00CF8F1
:1056B000D02001F015F8A42001F006F8A12001F097
:1056C00003F8E02001F00CF8D02000F0FDFF0020EE
:1056D00000F0FAFF022000F0F7FF072000F0F4FFCF
:1056E0000A2000F0F1FF282000F0EEFF322000F049
:1056F000EBFF442000F0E8FF422000F0E5FF062029
:1057000000F0E2FF0E2000F0DFFF122000F0DCFFCF
:10571000142000F0D9FF172000F0D6FFE12000F0A0
:10572000DFFFD02000F0D0FF002000F0CDFF0220EE
:1057300000F0CAFF072000F0C7FF0A2000F0C4FFF6
:10574000282000F0C1FF312000F0BEFF542000F0FF
:10575000BBFF472000F0B8FF0E2000F0B5FF1C2073
:1057600000F0B2FF172000F0AFFF1B2000F0ACFFED
:105770001E2000F0A9FF2A2000F0B2FF002000F058
:10578000A3FF002000F0A0FF002000F09DFFEF200D
:1057900000F09AFF2B2000F0A3FF002000F094FF00
:1057A000002000F091FF012000F08EFF3F2000F06C
:1057B0008BFF292000F094FF10BD10B5112000F0E0
:1057C0008FFF7820FCF7E6FB362000F089FF4820A9
:1057D00000F07AFF3A2000F083FF552000F074FFBC
:1057E000F02000F07DFFC32000F06EFFF02000F0FD
:1057F00077FF962000F068FFB42000F071FF0120D1
:1058000000F062FFB62000F06BFF0A2000F05CFFA2
:10581000A22000F059FFB72000F062FFC62000F080
:1058200053FFB92000F05CFF022000F04DFFE020A4
:1058300000F04AFFC02000F053FF802000F044FF3A
:10584000162000F041FFC12000F04AFF192000F0AF
:105850003BFFC22000F044FFA72000F035FFC52029
:1058600000F03EFF162000F02FFFE82000F038FF88
:10587000402000F029FF8A2000F026FF002000F0E1
:1058800023FF002000F020FF292000F01DFF192039
:1058900000F01AFFA52000F017FF332000F014FFDE
:1058A000E02000F01DFFF02000F00EFF072000F0C8
:1058B0000BFF0D2000F008FF042000F005FF05207D
:1058C00000F002FF142000F0FFFE362000F0FCFE86
:1058D000542000F0F9FE4C2000F0F6FE382000F0D5
:1058E000F3FE132000F0F0FE142000F0EDFE2E2059
:1058F00000F0EAFE342000F0E7FEE12000F0F0FEC8
:10590000F02000F0E1FE102000F0DEFE142000F098
:10591000DBFE0E2000F0D8FE0C2000F0D5FE0820A3
:1059200000F0D2FE352000F0CFFE442000F0CCFE87
:105930004C2000F0C9FE262000F0C6FE102000F02A
:10594000C3FE122000F0C0FE2C2000F0BDFE32206D
:1059500000F0BAFEF02000F0C3FE3C2000F0B4FEE0
:10596000F02000F0BDFE692000F0AEFE7820FCF7CC
:1059700011FB212000F0B4FE292000F0B1FE10BD83
:105980002DE9F84F05460E4617469846DDF8289053
:105990004FF0000B1448006840B143463A46314688
:1059A0002846CDF8009000F087FF1BE0781B401CD4
:1059B0001FFA80FB344613E02146284600F0A2FC83
:1059C00000F09AFE4FF0000A06E00849A1F80090A6
:1059D0000AF101001FFA80FADA45F6DB601C84B296
:1059E0004445E9DDBDE8F88FE000002000000860D4
:1059F0002DE9F05F0746884616469A4640F2C320D6
:105A000070434FF47A71B0FBF1F000F1010906FB2D
:105A100006F000EB560B344671040A0CB91B88B231
:105A200053464146FDF7D2FA012535E005FB05F066
:105A300004FB040058451AD94C4517D96B1E5B046A
:105A40001A0C08EB040399B27B1B5B1C98B25346FB
:105A5000FDF7BCFA6B1E5B041A0CA8EB040399B2A9
:105A60007B1B5B1C98B25346FDF7B0FA641E6304BF
:105A70001A0C08EB050399B23B1B98B25346FDF78D
:105A8000A5FA63041A0CA8EB050399B23B1B98B264
:105A90005346FDF79BFA6D1C4D45C7D9BDE8F09FF5
:105AA0001CB501F0D3FAFE4988800846808810B101
:105AB00000F0C2FF0AE200BFFA48006840F00800A8
:105AC000F849086000BF00BF0846006840F00800C1
:105AD000086000BF00BF0846006840F0080008608A
