:020000040800F2
:100000004009002029020008671E0008AF1C0008F4
:10001000651E0008490500080925000800000000C9
:100020000000000000000000000000009520000813
:10003000FD05000800000000691E00089D21000861
:10004000430200084302000843020008430200087C
:10005000430200084302000843020008430200086C
:10006000430200084302000843020008430200085C
:100070006905000843020008430200084302000823
:100080007505000843020008430200084302000807
:10009000430200084302000843020008430200082C
:1000A000430200084302000843020008430200081C
:1000B000430200084302000843020008430200080C
:1000C00043020008430200084302000843020008FC
:1000D00043020008E5240008F1240008FD2400087C
:1000E00043020008430200084302000843020008DC
:1000F00043020008430200084302000843020008CC
:1001000043020008430200084302000843020008BB
:1001100043020008430200084302000843020008AB
:10012000430200084302000843020008430200089B
:10013000430200084302000843020008430200088B
:10014000430200084302000843020008430200087B
:10015000430200084302000843020008430200086B
:10016000430200084302000843020008430200085B
:100170004302000843020008430200080000000098
:10018000430200084302000800F002F800F03CF8C7
:100190000AA090E8000C82448344AAF10107DA45E2
:1001A00001D100F031F8AFF2090EBAE80F0013F0F8
:1001B000010F18BFFB1A43F001031847BC350000BC
:1001C000DC350000103A24BF78C878C1FAD852074D
:1001D00024BF30C830C144BF04680C6070470000C1
:1001E0000023002400250026103A28BF78C1FBD840
:1001F000520728BF30C148BF0B6070471FB503F0DE
:100200009BFA1FBD10B510BD00F0CFF81146FFF7E7
:10021000F5FF02F07FFB00F0EDF803B4FFF7F2FF0B
:1002200003BC00F0F5F80000094880470948004782
:10023000FEE7FEE7FEE7FEE7FEE7FEE7FEE7FEE796
:10024000FEE7FEE704480549054A064B70470000F3
:1002500035220008890100084003002040090020E1
:10026000400500204005002053EA020C00F06980A0
:100270002DE9F04B4FF00006002B1FBFB3FA83F5BA
:1002800003FA05F424FA05F65E4012BF1643B2FAEB
:1002900082F502FA05F4C5F120051EBF22FA05FC1D
:1002A00044EA0C04203556EA044C4FEA144418BFC3
:1002B000641C4FF000084FF00009904271EB030CF2
:1002C00039D3002919BFB1FA81F701FA07F6B0FA5C
:1002D00080F700FA07F6C7F120071EBF20FA07FCD7
:1002E00046EA0C062037B6FBF4FCA7EB0507103FE7
:1002F00007F01F0BCBF120060CFA0BFB2CFA06F6CD
:1003000044BFB3460026202FA4BF5E464FF0000B2B
:100310005BEA060C08BF4FF0010B19EB0B09ABFBB6
:10032000027C48EB0608C01B06FB02CC0BFB03CC8F
:1003300071EB0C01C1E70B46024641464846BDE859
:10034000F08B13B54FF000004FF00001AFF30080C9
:10035000BDE81C4070474FF0000200B513469446BC
:100360009646203922BFA0E80C50A0E80C50B1F10D
:100370002001BFF4F7AF090728BFA0E80C5048BF21
:100380000CC05DF804EB890028BF40F8042B08BFBF
:10039000704748BF20F8022B11F0804F18BF00F8BB
:1003A000012B7047704770477047754600F02CF876
:1003B000AE4605006946534620F00700854618B052
:1003C00020B5FFF73FFFBDE820404FF000064FF09B
:1003D00000074FF000084FF0000B21F00701AC467A
:1003E000ACE8C009ACE8C009ACE8C009ACE8C00999
:1003F0008D46704710B50446AFF300802046BDE837
:100400001040FFF70ABF000000487047DC020020E0
:1004100001491820ABBEFEE726000200704700002D
:10042000464910B54A6822F440324A604A68436837
:100430001A434A6001684A6822F480724A6001687F
:100440004A68036942EA03224A6001684A6822F066
:1004500040724A6001684A6883681A434A600168CA
:100460008A6822F400628A6001688A68C3681A4355
:100470008A60816A6FF07062D14201688A6822F0F6
:1004800070628A6001688A680CD0836A1A438A6045
:1004900001688A6822F040528A6001688A68C36AEB
:1004A0001A4301E022F040528A6001688A6822F013
:1004B00002028A6001688A68037E42EA43028A6017
:1004C00090F82010002901684A680FD042F40062B9
:1004D0004A6001684A6822F460424A6001684A68DA
:1004E000174C436A04EB43331A4301E022F40062E1
:1004F0004A600168CA6A22F47002CA620168CA6A64
:10050000838B104C04EB03531A43CA6201688A6858
:1005100022F400728A6001688A6890F8303042EAFA
:1005200043228A6001688A6822F480628A600168D6
:100530008A68406942EA8020886010BD002301403B
:1005400000E0FFFF0000F0FFFEE70000054B002089
:10055000014603F1090219541154401C0928FADB21
:100560007047000030000020014800F029BA000068
:100570007C020020014800F023BA00001C02002089
:1005800001681823CAB2103AB2FBF3F2054B6FF3BD
:100590000901032A9B5CC36500D9091D81650846D2
:1005A000704700005637000810B5014600208B69DF
:1005B0008A6A4FF0C07453B1B3F5005F15D072B1C1
:1005C000012A0CD0022A0AD0032A09D104E01AB168
:1005D000012A06D0022A03D1C96AC90100D5012027
:1005E00010BDC96AA142FAD010BD002AF7D0012A75
:1005F000F2D0022AF3D0032AF3D010BD704772B6AE
:10060000FEE7000078B50024009490F83C20012A11
:1006100019D0012280F83C200A6807230568092ABE
:1006200013D9EE680A3A02EB420293409E43EE6011
:100630000B788A680A3B03EB43039A400368DD6842
:100640002A43DA6010E0022078BD2E6902EB4202F4
:1006500093409E432E610B788A6803EB43039A40D4
:1006600003681D692A431A614A681F23072A13D2A7
:1006700005686E6B521E02EB820293409E436E63CE
:100680000B790A885B1E92B203EB83039A400368DE
:100690005D6B2A435A6327E005680D2A12D22E6B40
:1006A000D21F02EB820293409E432E630B790A888D
:1006B000DB1F92B203EB83039A4003681D6B2A434E
:1006C0001A6311E0EE6A0D3A02EB820293409E43F8
:1006D000EE620B790A880D3B92B203EB83039A40DA
:1006E0000368DD6A2A43DA62164B0568144A9D42A4
:1006F00006D10D68122D03D1556845F4800555606B
:1007000005689D4218D10B68102B01D0112B13D115
:10071000536843F400035360096810290CD10A4957
:100720000A4A0968B1FBF2F101EB8101490000E0DE
:10073000491E00910029FBD180F83C40002078BD83
:1007400000230140002001402C00002040420F0007
:100750000068C06C704770B504004FF0000503D00E
:10076000206C002610B107E0012070BD204600F08B
:100770001DF8666484F83C60206CC00610D4206CC0
:1007800020F4885040F0020020642046FFF748FE25
:100790006664206C20F0020040F00100206400E05C
:1007A000012584F83C60284670BD000010B586B075
:1007B000044614216846FFF7CEFD1149206888429F
:1007C0001BD110480021026842F480720260006868
:1007D00000F4807005900B481438026842F0010262
:1007E0000260006800F00100059003200090CDE950
:1007F00001016946044800F02FFA06B010BD000060
:1008000000200140443802400000024018B5002199
:10081000009190F83C20012A07D0012280F83C206A
:1008200002689368DB0702D011E0022018BD9368CC
:1008300043F0010393602E4A2E4B1268B2FBF3F291
:1008400002EB420200E0521E0092002AFBD1026835
:100850009368DB0742D0036C40F20164A34343F486
:100860008073036453685B0505D5036C23F4005360
:1008700043F480530364036CDB0404D5436C23F01E
:100880000603436400E0416480F83C101A496FF0AD
:100890002203136049680068CA06184906D08842D6
:1008A00024D1816811F0405F13D01FE08842F8D056
:1008B000134A904203D1D1F80423D206F1D0114A51
:1008C000904213D1D1F8041301F01F011029E8D38D
:1008D0000CE0816841F08041816007E0016C41F0EB
:1008E00010010164416C41F001014164002018BD18
:1008F0002C00002040420F00002301400020014056
:1009000000210140002201402DE9F0410446876D9D
:1009100000F0A4FA064694F835000025022806D017
:100920008020606584F834500120BDE8F0812068A3
:10093000016821F0160101602068416921F0800101
:100940004161206C08B9A06C20B12068016821F0D9
:10095000080101602068016821F0010101600CE0DC
:1009600000F07CFA801B052807D920206065032051
:1009700084F8350084F83450D7E720680068C00751
:10098000EED194F85C103F208840B860012084F8D4
:10099000350084F834500020C7E790F8351002295C
:1009A00003D08021416501207047052180F8351072
:1009B0000068016821F0010101600020704700001B
:1009C0002DE9F84304464FF00009CDF80090634844
:1009D0004FF41651A56D0068B0FBF1F72E6894F83E
:1009E0005C10082000FA01F131420FD021680A683A
:1009F00052070BD50A6822F004020A6094F85C10D2
:100A00008840A860606D40F00100606594F85C105B
:100A10004FF0010808FA01F0304208D02168496916
:100A2000090604D5A860606D40F00200606594F886
:100A30005C1004208840304208D02168096889078A
:100A400004D5A860606D40F00400606594F85C1007
:100A500010208840304218D021680968090714D551
:100A6000A86020680168490304D50068000308D520
:100A7000A16C07E00168C90503D4016821F00801F1
:100A80000160216C09B12046884794F85C10202051
:100A90008840304231D021680968C9062DD5A86048
:100AA00094F8350005282068016806D0490347D529
:100AB000006800031DD4616C1CE021F01601016088
:100AC0002068416921F080014161206C08B9A06C67
:100AD00020B12068016821F00801016094F85C10E1
:100AE0003F208840A86084F8358084F83490216DD8
:100AF0001FE0E16B09B120468847606D00282BD0CC
:100B0000606DC00714D0052084F8350020680168A6
:100B100021F0010101600098401C0090B84203D808
:100B200020680068C007F6D184F8358084F83490D6
:100B3000E16C002910D001B02046BDE8F043084721
:100B40000168C905D5D4016821F01001016084F85D
:100B5000358084F83490CCE7BDE8F8832C00002081
:100B60002DE9F041044600F079F906465CB1022017
:100B700084F83500002584F834502068016821F09D
:100B8000010101600DE00120BDE8F08100F066F98F
:100B9000801B052805D920206065032084F83500D6
:100BA000F2E720680068C007F0D122681168204889
:100BB0000140D4E901031843D4E903363343184311
:100BC00063691843A3691843E3691843236A184308
:100BD0000843616A042903D1D4E90B13194308437C
:100BE000106020684069666A20F0070130460E43B5
:100BF000012704280CD1A06A0643E06A40B12046D0
:100C0000FFF7D2FC20B14020606584F83570BAE768
:100C1000206846612046FFF7B3FC94F85C203F2132
:100C200091408160656584F835700020ACE7000074
:100C30003F8010F070B5044600F010F90546601CC6
:100C400002D004480078044400F008F9401BA04298
:100C5000FAD370BD200000202DE9F84FDFF8BCA1C9
:100C60000022012503264FF00F090AF1040BAAF117
:100C7000040E00BF0B6805FA02F42340A34270D1B2
:100C80000F7907F00307012F01D0022F16D18768D3
:100C90004FEA420806FA08FC27EA0C07D1F80CC014
:100CA0000CFA08FC4CEA070CC0F808C04768A743D8
:100CB0000C79C4F3001494403C4344600C79E44341
:100CC000A4070AD0C4684FEA420C06FA0CF7BC43EA
:100CD0008F6807FA0CF72743C7600C7904F0030408
:100CE000022C12D1D40800EB840CDCF8204057070A
:100CF000FF0E09FA07F824EA0804D1F8108008FA70
:100D000007F848EA0408CCF8208004684FEA420C4F
:100D100006FA0CF7BC430F7907F0030707FA0CF744
:100D2000274307604C6814F4403F70D03C4C276860
:100D300047F480472760246822F0030704F48044C6
:100D40000094384C07EB040CDCF8084897074FEA8E
:100D5000177809FA08F7BC43334FB84202D100278D
:100D600024E054E0314FB84201D101271EE0304F5A
:100D7000B84201D1022719E02E4FB84201D1032712
:100D800014E02D4FB84201D104270FE02B4FB84299
:100D900001D105270AE02A4FB84201D1062705E014
:100DA000284FB84201D1072700E0082707FA08F7C3
:100DB0002743CCF80878DAF800405746D1F804C049
:100DC0009C435FEACC2C00D51C433C60DBF8004020
:100DD0005F46D1F804C09C435FEA8C2C00D51C43CD
:100DE0003C60DEF800407746D1F804C09C435FEADF
:100DF0008C3C00D51C433C60084F083F3C68D1F850
:100E000004C09C435FEACC3C00D51C433C60521CB0
:100E1000102AFFF42FAFBDE8F88F0000083C014016
:100E2000443802400030014000000240000402400B
:100E300000080240000C0240001002400014024072
:100E400000180240001C02400069084000D0012048
:100E500070470AB1816170470904FBE70148806867
:100E60007047000020000020024881680278114489
:100E700081607047200000200B4810B5016841F4E4
:100E800000710160016841F480610160016841F412
:100E900080710160032000F06FF80F2000F006F869
:100EA00000F024F8002010BD003C024070B50D4D4C
:100EB00004464FF47A712878B1FBF0F00A490968CA
:100EC000B1FBF0F000F00CFB48B9102C07D2002267
:100ED0002146501E00F030F800206C6070BD0120EB
:100EE00070BD0000200000202C0000200A4808B53A
:100EF000016841F480410160006800F48040009086
:100F00000548001F016841F080510160006800F051
:100F10008050009008BD000044380240002809DBE2
:100F200000F01F02012191404009800000F1E02003
:100F3000C0F8001170470000F0B40E4B1B680C465F
:100F4000C3F30223C3F10705042D00D90425191D9D
:100F5000072901D2002300E0DB1E012606FA05F175
:100F6000491E214099409E40761E16403143F0BCF8
:100F700001F0CBBA0CED00E0064900F0070208686A
:100F80004FF6FF03184040EA0220034A104308606E
:100F9000704700000CED00E00000FA052DE9F04775
:100FA0000E46050065D0DFF81481D8F80000F7B2CE
:100FB00000F00700B04207D288F80070D8F80000AF
:100FC00000F00700B04254D128683D4C810712D58B
:100FD000400703D5206840F4E050206028780007DF
:100FE00003D5206840F4604020602068A96820F0A4
:100FF000F000084320602878C0072DD03049686889
:101000000839012812D0022813D0032811D009680A
:10101000890700292DDA216821F0030101432160AD
:10102000FFF71CFF814641F2883A0EE00968890308
:10103000EFE709688901ECE7FFF710FFA0EB090172
:10104000514502D90320BDE8F0872068696800F0A7
:101050000C00B0EB810FEFD1D8F80010404601F042
:101060000701B14207D90770006800F00700B042DD
:1010700001D00120E7E72878400705D52068E96816
:1010800020F4E050084320602878000706D5206847
:10109000296920F4604040EAC100206000F038F87F
:1010A0002168084AC1F30311515CC8400649086031
:1010B00006480068FFF7FAFE0020C4E7003C024043
:1010C000083802405E3700082C0000202400002071
:1010D0000448054900680968044AC1F38221515C4B
:1010E000C84070472C000020083802406E370008C6
:1010F0000448054900680968044AC1F34231515C5B
:10110000C84070472C000020083802406E370008A5
:10111000154810B5006810F00C02144813D014499B
:10112000042A0FD0082A0ED10F4C241F22682368EE
:1011300002F03F025B0207D52068C0F38810A0FBD5
:10114000010106E0084610BD2168C1F38811A1FB2A
:1011500000010023FFF788F82168C1F30141491C11
:101160004900B0FBF1F010BD083802400024F40043
:1011700040787D012DE9F84F04006ED02078DFF82B
:101180004C93C007A9F104054AD009F10400016895
:10119000C1F38101012908D00068C0F38100022851
:1011A0000AD1D9F80000400206D52868800337D557
:1011B00060680028E1D033E06068B0F5803F10D06F
:1011C000B0F5A02F286810D020F48030286028685F
:1011D00020F4802028606068A8B1FFF73FFE064633
:1011E0000DE0286840F48030F4E740F48020286067
:1011F000F7E700BFFFF732FE801B642873D828682A
:101200008003F7D50CE0FFF729FE064605E000BF96
:10121000FFF724FE801B6428F0D828688003F7D4E9
:101220002078DFF8AC8280074FF0000A3ED5A7484F
:10123000001D016811F00C0F08D00068C0F3810098
:1012400002280BD1D9F80000400207D42868800793
:1012500016D5E068012800D112E033E1E068B8B1AA
:101260000120C8F80000FFF7F9FD064605E000BFC1
:10127000FFF7F4FD801B0228C0D828688007F7D547
:101280002868216920F0F80040EAC10028600DE0DC
:10129000C8F800A0FFF7E2FD064604E0FFF7DEFD18
:1012A000801B02281FD828688007F7D42078000701
:1012B00022D5864F87486169703771B1012101607D
:1012C000FFF7CCFD064604E0FFF7C8FD801B0228AF
:1012D00009D838688007F7D50EE0C0F800A0FFF7FE
:1012E000BDFD064605E082E0FFF7B8FD801B022841
:1012F0007DD838688007F7D42078400768D5DFF8B4
:10130000CCB100270BF13C0BDBF80000C0000BD484
:10131000DBF8001041F08051CBF80010DBF8000042
:10132000012700F0805000906B4E3068C00510D44B
:10133000306840F480703060FFF790FD009005E069
:10134000FFF78CFD0099401A022850D83068C0057C
:10135000F6D55E4EA0686C3601280FD0052830689F
:1013600010D020F001003060306820F004003060C0
:10137000A068B8B1FFF772FD00900FE0306840F050
:101380000100F4E740F004003060F7E7FFF766FD86
:101390000099411A41F28830814266D8306880074E
:1013A000F4D50EE0FFF75AFD009007E0FFF756FD79
:1013B0000099411A41F28830814256D8306880073E
:1013C000F4D42FB1DBF8001021F08051CBF80010DD
:1013D000A069C8B33D49091D0968C1F3810102290B
:1013E0004AD00228504607D0C8F8600000E03CE030
:1013F000FFF734FD04463BE04746C8F86000FFF7BE
:101400002DFD064605E000BFFFF728FD801B0228E2
:101410002BD828688001F7D4D4E907010843A16AD2
:101420002E4A490802EB0141626A41EA82110843EF
:1014300094F82C1040EA0161C9F8001001203866C8
:10144000FFF70CFD044606E03EE000BFFFF706FD97
:10145000001B022809D828688001F7D534E000BFB6
:10146000FFF7FCFC001B022802D90320BDE8F88F1F
:1014700028688001F4D427E00128F7D0D9F80000CB
:10148000E26900F4800191421CD1226A00F03F0120
:10149000914217D147F6C071626A0140B1EB821FD9
:1014A00010D1A26A4FF0FF3300F4403103EB520237
:1014B000B1EB024F06D194F82C1000F07060B0EB45
:1014C000016F01D00120D1E70020CFE704380240AE
:1014D00000004742800E4742007000400000FFFFBE
:1014E00010B5401EB0F1807F01D3012010BD4FF038
:1014F000E02460610F21601701F007F80020A0616F
:1015000007202061002010BD70477047F8B50168C2
:1015100004460868CA684B6910F00F0F4FF00005C9
:1015200059D003F0010602F49077374365D0C10724
:1015300005D0D10503D5616C41F00101616441071B
:1015400005D5D90703D0616C41F0020161648107C0
:1015500005D5D90703D0616C41F00401616401072E
:1015600007D502F02001314303D0616C41F008013E
:101570006164616C00293AD0800604D5900602D5DA
:10158000204600F08EFE20684069616CC0F3801038
:10159000090700D460B3204600F05CFE2068406973
:1015A000400621D52068143050E8001F21F040018A
:1015B00040E80012002AF5D1E06BA8B16E49016540
:1015C000E06BFFF7EAF9002811D0E06B016D01B084
:1015D000BDE8F040084783060FD593060DD5204699
:1015E000BDE8F84000F05DBE2046FFF78EFFF8BD75
:1015F0002046FFF78AFF6564F8BD266B2023012E85
:101600007DD1C6067BD5D60679D508684868009096
:1016100048694FF00206400641D5E16B0868406812
:101620000004000CE8D0A28D8242E5D9E085C869AB
:10163000B0F5807F2DD020680C3050E8001F21F4D9
:10164000807140E80012002AF5D12068143050E87B
:10165000001F21F0010140E80012002AF5D12068A6
:10166000143050E8001F21F0400140E80012002A29
:10167000F5D184F84230256320680C3050E8001F13
:1016800021F0100140E80012002AF5D1E06BFFF7CD
:101690003BF96663A08DE18D401A81B22AE0A08DEE
:1016A000E18D401A81B2E08D0028A5D00029A3D099
:1016B00022680C3252E8000F20F4907042E80007D4
:1016C000002FF5D12068143050E8002F22F00102DD
:1016D00040E80027002FF5D184F8423025632068C8
:1016E0000C3050E8002F22F0100240E80023002BBD
:1016F000F5D166632046FFF707FFF8BDFFE7050653
:101700002BD5150629D594F841002128F5D1A068DC
:10171000B0F5805F01D12069B0B1206A411C21621F
:10172000216800784860E08C401E0004000CE084D2
:10173000E3D12068C16821F08001C1602068C168E0
:1017400041F04001C160D8E7206A0088C0F308007A
:101750004860206A801C2062E5E74006CDD550062F
:10176000CBD5CA68204622F04002CA6084F84130D6
:1017700000F09CFAC1E700004522000870B50400A3
:1017800004D094F84100002510B106E0012070BD9E
:1017900084F84050204600F023F8242084F84100CB
:1017A0002068C16821F40051C160204600F0DAFDD4
:1017B0002068016921F4904101612068416921F0AC
:1017C0002A0141612068C16841F40051C16065642B
:1017D000202084F8410084F842006563002070BD39
:1017E0002DE9F04F87B0064614216846FEF7B3FD99
:1017F0005749D6F800C00024564802220323072583
:10180000DFF854B18C4521D1524914310E6846F0AD
:1018100010060E60096801F010010591016841F0A1
:10182000010101600068694600F00100059058025E
:101830008DE81500CDE903355846FFF70DFA002273
:1018400011462520FFF778FB25203FE04149DFF8CE
:101850000C8110314F054FF480694FF4807AC445F4
:1018600039D1D1F800C04CF4003CC1F800C009687F
:1018700001F400310591016841F001010160006847
:10188000694600F0010005900C208DE81500CDE9B7
:1018900003355846FFF7E0F9324D31482860C5E975
:1018A0000174C5E903496C61C5E9064A2C62284602
:1018B0006C62FFF755F908B1FEF7A1FEF56300224F
:1018C00011462620AE63FFF737FB2620FFF726FBE5
:1018D00007B0BDE8F08FDFF89080C445F8D1D1F8AB
:1018E00000C04CF4802CC1F800C0096801F48021CC
:1018F0000591016841F0020101600068694600F04D
:10190000020005904FF440608DE81500CDE90335E5
:101910001648FFF7A1F9134D11486035603828606B
:10192000C5E90174C5E903496C61C5E9064A2C6241
:1019300028466C62FFF714F908B1FEF760FEF56304
:10194000002211462720AE63FFF7F6FA2720BDE7F5
:1019500000100140303802400000024000440040C6
:10196000886002401C020020004800400004024041
:101970002DE9F84F044690F842009A4616460D4667
:10198000202802D00220BDE8F88FB5B1AEB100200A
:101990006064222184F842102063FFF75FFAA68575
:1019A0008146E685A0684FF480582027404501D144
:1019B000206920B12E46002529E00120E3E700261A
:1019C00025E04B46002220212046CDF800A000F063
:1019D0004FFD18B184F842700320D4E726B1A06807
:1019E00040451AD038B108E020684068C0F30800CC
:1019F00025F8020B08E0206978B12068406800F003
:101A00007F0000BF06F8010BE08D401EE085E08DF1
:101A10000028D6D184F84270B5E720684068F1E725
:101A200070B500687549764B88427DD10020754CB1
:101A3000122103F1120200BF00F10F0595FBF1F630
:101A400001FB1655555D452D11D100F1100595FB93
:101A5000F1F601FB1655555D4F2D08D100F111052A
:101A600095FBF1F601FB1655555D4D2D0FD0401C31
:101A70001228E1DB00F000FF002807D02078401C8E
:101A8000C0B220700A2801D10020207070BD451D11
:101A900095FBF1F601FB1655555D303D257090FB29
:101AA000F1F501FB1505555D632DE3D1451C95FB53
:101AB000F1F601FB1655555D682DDBD1851C95FBB4
:101AC000F1F601FB1655555D652DD3D1C51C95FB6F
:101AD000F1F601FB1655555D732DCBD1051D95FB18
:101AE000F1F601FB1655555D732DC3D1851D95FB90
:101AF000F1F601FB1655555D303D1D70C51D95FB7A
:101B0000F1F601FB1655555D303D5D7000F108059D
:101B100095FBF1F601FB1655555D303D9D7000F1CA
:101B2000090595FBF1F600E031E001FB1655555D26
:101B3000303DDD7000F10A0595FBF1F601FB16550D
:101B4000555D303D1D7100F10B0595FBF1F601FB74
:101B50001655555D303D5D7100F10C0595FBF1F6B4
:101B600001FB1655555D303D9D7100F10D0595FB4E
:101B7000F1F601FB16550E30555D303DDD7190FBE1
:101B8000F1F501FB1500105C3038187272E71E4940
:101B900088427FF47BAF1A4C00201E2214F12404EB
:101BA00000F11B0191FBF2F502FB1511615C452967
:101BB00011D100F11C0191FBF2F502FB1511615CE2
:101BC0004F2908D100F11D0191FBF2F502FB15111F
:101BD000615C4D2903D0401C1E28E1DB70BD002153
:101BE00001EB4105054495FBF2F602FB1655655DD8
:101BF0005D54491C0929F3DB70BD00000010014051
:101C00003000002000000020004400402DE9F8438F
:101C1000044690F84100984616460D46202802D00A
:101C20000220BDE8F88385B17EB1002060642120E8
:101C300084F84100FFF712F9A6848146E684A06883
:101C40002027B0F5805F02D003E00120E9E720699A
:101C500010B12E4600250EE000260CE08021204623
:101C600000F006FCA8B9C6B116F8010B216848605F
:101C7000E08C401EE084E08C4B464FF00002CDF833
:101C800000800028EAD14FF04001204600F0F0FB30
:101C900040B184F841700320C3E735F8020BC0F36C
:101CA0000800E3E784F841700020BAE77047FEE7D8
:101CB0007FB50024154800940194029412490394BE
:101CC00001604FF48031C0E901140461047680F8AA
:101CD00020400F49C0E90A140125C561C46080F89D
:101CE00030404561FEF737FD08B1FEF788FCCDE9CD
:101CF0000045694605480294FEF784FC002801D09F
:101D0000FEF77DFC7FBD000000200140FC000020AC
:101D10000100000F0D4808B5016841F40011016091
:101D20000068002200F40010009011460C20FFF71C
:101D300003F90C20FFF7F2F8002211461020FFF7FC
:101D4000FBF8BDE808401020FFF7E8B83038024043
:101D500030B587B014216846FEF7FDFA1548002417
:101D6000016841F080010160016801F08001059186
:101D7000016841F001010160016801F00101059174
:101D8000016841F00201016000680B4D00F00200A3
:101D90000590002280212846FFF75BF88020009004
:101DA0001120CDE90104694628460394FEF754FF4B
:101DB00007B030BD30380240000002400C4810B57A
:101DC0000A4901604FF4E1314160002181600C2239
:101DD000C160C0E904128161C161FFF7CFFC002836
:101DE00003D0BDE81040FEF70ABC10BD0010014052
:101DF000440100200C4810B50A4901604FF4E1315C
:101E00004160002181600C22C160C0E9041281613F
:101E1000C161FFF7B3FC002803D0BDE81040FEF716
:101E2000EEBB10BD004400408C0100200C4810B5F2
:101E30000A4901604FF4E1314160002181600C22C8
:101E4000C160C0E904128161C161FFF797FC0028FD
:101E500003D0BDE81040FEF7D2BB10BD00480040E3
:101E6000D4010020FEE7FEE77047000010B54FF4F4
:101E70007A73122235493648FFF77AFD002033493C
:101E8000122200BF00F10F0393FBF2F402FB1433A4
:101E9000CB5C452B11D100F1100393FBF2F402FB54
:101EA0001433CB5C4F2B08D100F1110393FBF2F4F8
:101EB00002FB1433CB5C4D2B03D0401C1228E1DB1A
:101EC00010BD90FBF2F302FB1303CB5C632BF7D145
:101ED000431C93FBF2F402FB1433CB5C682BEFD171
:101EE000831C93FBF2F402FB1433CB5C652BE7D12C
:101EF000C31C93FBF2F402FB1433CB5C732BDFD1D6
:101F0000031D93FBF2F402FB1433CB5C732BD7D18C
:101F1000401D90FBF2F302FB1300085C0D49E13811
:101F2000052808D2DFE800F003050B0D0F000120A3
:101F300000E002200860BDE81040FEF707BB032068
:101F4000F8E70420F6E70520F4E70000420000204F
:101F500044010020180000202DE9F04700262F4DF5
:101F60004FF47A791E244B461E222C492C48FFF749
:101F7000FFFC002000F11B0191FBF4F204FB1211A5
:101F8000695C452911D100F11C0191FBF4F204FBBD
:101F90001211695C4F2908D100F11D0191FBF4F287
:101FA00004FB1211695C4D2907D0401C1E28E1DB9F
:101FB000761C022ED7DBBDE8F087DFF860800021B9
:101FC000A8F1240808F1440301EB41073A1892FBF9
:101FD000F4FC04FB1C2C15F80CC008F801C092FBA3
:101FE000F4FC04FB1C2C491C15F80CC043F827C05A
:101FF00092FBF4FC04FB1C2CAC4403EB87079CF81D
:1020000001C0C7F804C092FBF4FC04FB1C222A4464
:1020100009299278BA60D7DBCAE700005400002093
:102020008C01002070B50024FFF796FF641C022C81
:10203000FADB154C154AD4E9001001EB41010A44C2
:10204000825C002A1ED1084400EB40010F48A4F135
:102050000C06443000EB81000D4D037A0279706864
:1020600005EB4001401C4978706015F8100000F045
:1020700061F8D4E90021054B012002EB420209334B
:102080001A44885470BD00000C000020300000206D
:1020900042370008704700001FB510490978F02941
:1020A00000D908468DF800000D4A01206946131832
:1020B00013F8013C0B54401C0A28F8DB45208DF82E
:1020C0000A004F208DF80B004D208DF80C004FF4C6
:1020D0007A730D220348FFF799FD1FBD0000002011
:1020E00030000020440100201FB50F480F496A4608
:1020F00000788DF8000001200B1813F8013C1354F0
:10210000401C0A28F8DB45208DF80A004F208DF886
:102110000B004D208DF80C004FF47A730D226946A8
:102120000348FFF773FD1FBD0000002039000020A9
:10213000440100203EB50024009401940294154C03
:1021400025788DF8005064788DF80140114C641E9C
:10215000257A8DF804108DF805208DF802508DF841
:1021600003008DF8063045208DF807004F208DF8CC
:1021700008004D208DF8090064230A2269460648AC
:10218000FFF744FDA06810B10020A0603EBD012013
:10219000FBE7000001000020D4010020FEF764BE30
:1021A00030B593B030216846FEF7D5F814210CA85D
:1021B000FEF7D1F81D480025016841F0805101600B
:1021C000006800F0805011901948016841F4804186
:1021D00001600068022400F4804011900120039007
:1021E00010200490009406940820CDE90750A82000
:1021F000CDE9090404200B906846FEF7BBFF08B147
:1022000072B6FEE70CA90F2081E831004FF4A05010
:102210000F904FF48050109005210CA8FEF7BEFEE1
:10222000002801D072B6FEE713B030BD403802403E
:10223000007000400248016841F47001016070477D
:1022400088ED00E010B5806B0021C185C184FFF7E7
:102250005CF910BD01680C3151E8002F22F4907236
:1022600041E80023002BF5D10168143151E8002F1B
:1022700022F0010241E80023002BF5D1016B012976
:1022800009D101680C3151E8002F22F0100241E819
:102290000023002BF5D1202180F84210002101639A
:1022A000704708B590F84210222901D0022008BDDD
:1022B00082684FF480539A4201D1016921B1816A49
:1022C0009A421BD04AB10AE00268816A5268C2F39E
:1022D00008020A80816A891C08E0026972B10268FA
:1022E000526802F07F020A70816A491C8162C18DC6
:1022F000491E0904090CC18503D01BE0026852681D
:10230000F1E70168CA6822F02002CA600168CA6861
:1023100022F48072CA6001684A6922F001024A61AF
:10232000202180F8421000214163026B012A03D072
:10233000FFF776FB002008BD016301680C3151E80E
:10234000002F22F0100241E80023002BF5D1016894
:102350000A68D20602D50A6849680091818DFFF7A4
:10236000D3F8E7E770B5044600680169E26821F434
:102370004051114301612169A068E2690843616924
:10238000114308432168CA6849F20C639A43024327
:10239000CA6020684169A26921F44071114341611A
:1023A00031492068884202D03049884202D1FEF784
:1023B0009FFE01E0FEF78CFEE269002319216425EF
:1023C0003226B2F5004F626828D0A0FB0101930FBE
:1023D0009200FDF749FF0146B0FBF5F06FF01802DF
:1023E000504301EB800006EB0010B0FBF5F000F06D
:1023F000F002B1FBF5F002EB0012B1FBF5F06FF06B
:102400001803584301EB800006EB0010B0FBF5F019
:1024100000F00F0021681044886070BDA0FB01012E
:1024200092185B41FDF720FF0146B0FBF5F0020179
:10243000B1FBF5F06FF01803584301EB800006EB99
:10244000C000B0FBF5F000F0F80002EB4002B1FB79
:10245000F5F0584301EB800006EBC000B0FBF5F04F
:1024600000F00700D6E70000001001400014014012
:102470002DE9F843984617460D460446089E24E089
:10248000701C22D0FEF7EAFCA0EB0800B0421AD87C
:10249000CEB12068C168490717D5802D15D0402DD1
:1024A00013D00168C94309070FD4016800254068AB
:1024B00000902046FFF7CEFE0820606484F840506C
:1024C0000120BDE8F8830320FBE72068006835EAB7
:1024D000000004D00020B842D2D00020F1E7012053
:1024E000F9E700000148FFF711B80000440100209F
:1024F0000148FFF70BB800008C0100200148FFF7EE
:1025000005B80000D4010020FEE70907090E0028E5
:1025100004DB00F1E02080F80014704700F00F00A9
:1025200000F1E02080F8141D7047000030B502462D
:102530000820002101EB4104002302EB840400BFCA
:1025400054F82350022D31D05B1C032BF8DB491CBF
:102550000329EFDB0021002303EB430402EB840497
:1025600054F82140022C23D05B1C032BF4DB491CC4
:102570000329F0DB5FF0000101EB410302EB830371
:1025800053F82130022B15D0491C0329F4DB00211C
:1025900001EB410302EB8303C1F1020453F8243041
:1025A000022B09D0491C0329F2DB30BD401ECEE7C7
:1025B000401EDCE7401EEAE7401E30BD10B500219A
:1025C00001EB410300EB830450F8232063689A4237
:1025D00008D1A468A34205D122B101EB410150F812
:1025E000210010BD491C0329EADB002100EB810317
:1025F00050F82140DA68944205D19B699A4202D191
:102600000CB1204610BD491C0329EFDB02680169AB
:102610008A4203D1036A994200D132B982688A4260
:1026200005D18069814202D10AB1104610BD002057
:1026300010BD000030B5294A002112684518435CDE
:10264000EC78A3420CD1AD79AC4209D143B1032A55
:1026500004D1DAB2012A3DD0022B3DD0D8B230BD30
:10266000491C0329EADB002101EB41042518035D25
:102670006C78A34210D1AD78AC420DD163B1032A7E
:1026800006D101EB4102825C012A23D0022B23D028
:1026900001EB4101405C30BD491C0329E4DB0178BA
:1026A000037999420AD1047AA34207D131B1032AAE
:1026B0000ED001E002290FD0084630BD8179994241
:1026C00004D18078834201D10029F0D1002030BDAF
:1026D0000129EFD1022030BD012030BD18000020BB
:1026E0002DE9F04F89B00F4604464FF0FF39242101
:1026F0006846FDF730FE20784FF0010A4FF00008E1
:10270000012812D1607802280FD1A07868B9E0784A
:1027100058B92079012808D1607930B9A07920B959
:10272000E07910B9207A022816D000216E4601EB1C
:102730004102002006EB82031518655D43F8205026
:10274000401C0328F8DB491C0329F0DB00984FF0FC
:10275000020B022805D017E0C7E900A809B0BDE8C0
:10276000F08F019801280FD1029868B9039858B9E1
:102770000498012808D1059830B9069820B907981F
:10278000022801D1089878B10024032594FBF5F0C4
:1027900094FBF5F100EB400005FB114106EB8000D6
:1027A00050F8210018B130E0C7E900B8D6E794FB33
:1027B000F5F094FBF5F100EB400005FB114206EB50
:1027C000800040F822A06846FFF7F8FE01282BD0D1
:1027D00094FBF5F000EB400006EB800194FBF5F074
:1027E00005FB1042684641F822B0FFF7E7FE0228D9
:1027F0001AD094FBF5F000EB400006EB800194FB4F
:10280000F5F005FB104241F82280641C092CBDDB69
:102810000025B34605EB450100240BEB810600BF04
:1028200056F82400A8B120E094FBF5F000EB40003E
:1028300006EB800194FBF5F005FB104294FBF5F0EC
:1028400041F82280386094FBF5F005FB1040786079
:1028500084E746F824A0684600F000FF814502DACC
:10286000C7E90054814646F82480641C032CD7DB5A
:102870006D1C032DCEDB71E7F0B500200E4D034635
:102880000246014605F109076C5C7E5CB44200D04B
:102890000120032C08D204B15B1C06B1521C491C58
:1028A0000929F1DB934202DA4FF00000F0BDFDD1BF
:1028B0004FF00200F0BD00003000002010B5094CC0
:1028C00080212046FEF7C0FA002809D03220FEF70A
:1028D000B1F980212046FEF7B7FA0028F9D101208E
:1028E00010BD00000000024010B50948FFF7A2FE2D
:1028F000074A0021535C0BB100B9641C491C09292B
:10290000F8DB092C01D0002010BD012010BD000013
:1029100030000020FEF7B0FAFFF742FCFFF718FA8C
:10292000FFF7F8F9FFF74AFAFFF764FAFFF77EFAC4
:10293000FFF7BEF9FFF7D8FBDFF8F0A3DFF8F0B33D
:10294000DFF8F083DFF8F093FC4CFD4EFFF704FB5B
:10295000FC489AF80D2002709AF80E104170FFF7AB
:1029600085FA30680628F1D2DFE800F0030BF5F4B1
:10297000F3F2F548FDF74AFFF348FDF7E9FE706012
:10298000E4E7FDF7E3FD00BFFFF7E6FA4FF47A73E3
:102990001222EE49EE48FEF7EBFF0020EB4A12212F
:1029A00000F10F0393FBF1F501FB1533D35C452BCD
:1029B00011D100F1100393FBF1F501FB1533D35C4A
:1029C0004F2B08D100F1110393FBF1F501FB1533F7
:1029D000D35C4D2B21D0401C1228E1DBFFF74CFFCC
:1029E0000028D1D00027384649460A5C02B17F1C36
:1029F000401C0928F9DB002518F8051019F80520F6
:102A000091427DD009F80510002F7AD0012F78D09F
:102A1000022F77D0032F75D0B2E0431D93FBF1F561
:102A200001FB1533D35C303B237090FBF1F301FBCA
:102A30001303D35C632BD1D1431C93FBF1F501FB52
:102A40001533D35C682BC9D1831C93FBF1F501FBD3
:102A50001533D35C652BC1D1C31C93FBF1F501FB8E
:102A60001533D35C732BB9D1031D93FBF1F501FB37
:102A70001533D35C732BB1D1831D93FBF1F501FBAF
:102A80001533D55C4346303D88F80050C51D95FB95
:102A9000F1F701FB1755555D303D88F8015000F105
:102AA000080595FBF1F701FB1755555D303D88F89A
:102AB000025000F1090595FBF1F701FB1755555D33
:102AC000303DDD7000F10A0595FBF1F701FB17556C
:102AD000555D303D1D7100F10B0595FBF1F701FBD4
:102AE0001755555D303D5D7100F10C0595FBF1F713
:102AF00001FB1755555D303D9D7100F10D0502E05C
:102B000040E011E028E095FBF1F701FB17550E308E
:102B1000555D303DDD7190FBF1F501FB1500105C5A
:102B2000303888F8080059E78B4A8A49106801EB69
:102B30004003401C93F801C01060884A05EB450330
:102B400002EB830211F81000137A1279614615E046
:102B5000FEE345E3CDE11CE0824ADFF804C205EB69
:102B6000450310680CEB4001401C497810607B4A1B
:102B70001CF8100002EB8302137A1279FFF7DAFADD
:102B8000FFF7B2FA6D1C092DFFF636AF042F7FF464
:102B9000FBAEFDF7DBFC32207349034602460860BA
:102BA00048608860C8600146FFF7C4FAFFF79CFAE6
:102BB0002078F02801D2401C2070C0B20A2801D130
:102BC000002020705A495B48FFF78AFDDBE90002CC
:102BD00000EB4000454628440121115498F800209C
:102BE000494689F8002001202A5C0A54401C092823
:102BF000FADBFFF779FAFFF777FA0227FFF774FAA3
:102C00007F1C642FFADB00BFFFF736FE38BB4FF4A2
:102C10007A7312224D494E48FEF7AAFE00204B4A15
:102C2000122100BF00F10F0797FBF1F301FB1373B3
:102C3000D35C452B10D17B1C93FBF1F701FB1733C1
:102C4000D35C4F2B08D100F1110393FBF1F701FB8B
:102C50001733D35C4D2B0CD0401C1228E2DBFFF75E
:102C60000BFEE8B32078401CC0B220700A287DD04B
:102C70009BE090FBF1F301FB1303D35C632BEED1DC
:102C8000431C93FBF1F701FB1733D35C682BE6D1B0
:102C9000831C93FBF1F701FB1733D35C652BDED16B
:102CA000C31C93FBF1F701FB1733D35C732BD6D115
:102CB000031D93FBF1F701FB1733D35C732BCED1CC
:102CC000831D93FBF1F701FB1733D35C303B2B7073
:102CD000C31D93FBF1F701FB1733D35C303B00E0DE
:102CE0006EE06B7000F1080393FBF1F701FB173303
:102CF000D35C303BAB7000F1090393FBF1F701FBB0
:102D00001733D35C303BEB7000F10A0393FBF1F710
:102D100001FB1733D35C303B2B7100F10B0393FBAA
:102D2000F1F701FB1733D35C303B20E05400002067
:102D30000C0000203000002039000020000000209E
:102D40001800002001000020FC00002042000020AC
:102D500044010020423700080400002074000020D5
:102D60004C37000814000020EC0000201BE06B71C1
:102D700000F10C0393FBF1F701FB1733D35C303BFD
:102D8000AB7100F10D0393FBF1F701FB17330E302C
:102D9000D35C303BEB7190FBF1F301FB1300105C53
:102DA000303828725BE70020207029782B464A468D
:102DB00089F800100120195C1154401C0928FADB25
:102DC0002078C1072CD1F02806D2401CC0B2207058
:102DD0000A2801D100202070F849F948FFF780FC4B
:102DE000DBE9000300EB40002946084401221A54A5
:102DF0002B784A4689F8003001200B5C1354401CA4
:102E00000928FADBFFF770F9FFF76EF95FF00207A8
:102E1000FFF76AF97F1C642FFADB2078C00701D026
:102E2000FFF762F93068022824D1E548FFF702FC79
:102E300001283DD0E248FFF7FDFB02287FF4E4AE15
:102E4000F2202070FFF750F9FFF74EF95FF002050E
:102E5000FFF74AF96D1C642DFADB0220FFF71CF91D
:102E60000220FFF719F902250220FFF715F96D1C62
:102E7000322DF9DBFFF738FDA8B3F32020700320D3
:102E8000FFF70AF90320FFF707F902250320FFF7F0
:102E900003F96D1C322DF9DBFFF726F9FFF724F952
:102EA0005FF00205FFF720F96D1C642DFADB4DE59C
:102EB000F1202070FFF718F9FFF716F95FF002050F
:102EC000FFF712F96D1C642DFADB0120FFF7E4F81F
:102ED0000120FFF7E1F802250120FFF7DDF86D1C66
:102EE000322DF9DBC6E7FFE7FEF7C0FF30680228A6
:102EF000DDD1FDF72BFBF020FFF7CEF8F020FFF738
:102F0000CBF80225F020FFF7C7F86D1C322DF9DB56
:102F1000FFF7EAF8FFF7B0FC40BB4FF47A731222D8
:102F2000A849A948FEF724FD0020A64A122100BFA7
:102F300000F10F0393FBF1F501FB1533D35C452B37
:102F400011D100F1100393FBF1F501FB1533D35CB4
:102F50004F2B08D100F1110393FBF1F501FB153361
:102F6000D35C4D2B0CD0401C1228E1DBFFF784FC16
:102F7000F0B32078401CC0B220700A287ED07FE0D9
:102F800090FBF1F301FB1303D35C632BEED1431CE5
:102F900093FBF1F501FB1533D35C682BE6D1831C61
:102FA00093FBF1F501FB1533D35C652BDED1C31C1C
:102FB00093FBF1F501FB1533D35C732BD6D1031DC5
:102FC00093FBF1F501FB1533D35C732BCED1831D3D
:102FD00093FBF1F501FB1533D55C4346303D88F892
:102FE0000050C51D95FBF1F701FB1755555D00E03D
:102FF00052E0303D88F8015000F1080595FBF1F7EB
:1030000001FB1755555D303D88F8025000F1090568
:1030100095FBF1F701FB1755555D303DDD7000F173
:103020000A0595FBF1F701FB1755555D303D1D7104
:1030300000F10B0595FBF1F701FB1755555D303D90
:103040005D7100F10C0595FBF1F701FB1755555D1E
:10305000303D9D7100F10D0595FBF1F701FB175512
:103060000E30555D303DDD7190FBF1F501FB150033
:10307000105C303888F8080078E7FFE700202070FF
:1030800098F8003041464A4689F8003001200B5C30
:103090001354401C0928FADB2078C1072CD0F028F3
:1030A00006D2401CC0B220700A2801D10020207036
:1030B00042494348FFF714FBDBE9000300EB400003
:1030C0004146084402221A5498F800304A4689F8CA
:1030D000003001200B5C1354401C0928FADBFFF779
:1030E00003F8FFF701F80225FEF7FEFF6D1C642DC3
:1030F000FADB2078C00701D1FEF7F6FF3048FFF772
:1031000099FA012822D02E48FFF794FA022839D0E4
:10311000FFF7EAFBA8B3F32020700320FEF7BCFF03
:103120000320FEF7B9FF02250320FEF7B5FF6D1C53
:10313000322DF9DBFEF7D8FFFEF7D6FF5FF0020570
:10314000FEF7D2FF6D1C642DFADB43E0F120207006
:10315000FEF7CAFFFEF7C8FF5FF00205FEF7C4FFE7
:103160006D1C642DFADB0120FEF796FF0120FEF7AF
:1031700093FF02250120FEF78FFF6D1C322DF9DB36
:1031800028E023E0F2202070FEF7AEFFFEF7ACFF50
:103190005FF00205FEF7A8FF6D1C642DFADB02202C
:1031A000FEF77AFF0220FEF777FF02250220FEF7E6
:1031B00073FF6D1C322DF9DB0CE000000C000020C9
:1031C0003000002042000020440100203068032825
:1031D0003FF4A0AEFEF74AFE306803287FF467AEE6
:1031E000FDF7B4F9FEF7B8FEFE4DFD49FE4A2B6827
:1031F00011F8130001EB4301106049785B1C51602A
:103200002B60FA4B5D6B95609B6BD360DBB2EAB2CF
:10321000FEF790FFFEF768FF2078F02806D2401CEA
:10322000C0B220700A2801D100202070F049F14876
:10323000FFF756FADBE9000200EB40004546284460
:103240000121115498F80020494689F800200120F6
:103250002A5C0A54401C0928FADBFEF745FFFEF7FA
:1032600043FF0227FEF740FF7F1C642FFADB00BFFD
:10327000FEF772FEFEF738FFFFF720FBF0B3FEF714
:103280006BFEFFF7F9FAF0B12078401CC0B2207055
:103290000A2801D1002020702B782A46494689F857
:1032A00000300120135C0B54401C0928FADBFEF7A8
:1032B0001BFFFEF719FF0227FEF716FF7F1C052FE5
:1032C000FADBFEF749FE2078C10731D1F02806D29B
:1032D000401CC0B220700A2801D100202070C449CF
:1032E000C448FFF7FDF9DBE9001201EB41012F466D
:1032F000394401205054FEF795FE00E061E0FEF7EE
:103300002BFE3A78494689F8002001202A5C0A54AD
:10331000401C0928FADBFEF7E7FEFEF7E5FE022770
:10332000FEF7E2FE7F1C642FFADB2078C00701D095
:10333000FEF7DAFE3068042865D1AE48FFF77AF967
:10334000012823D0AB48FFF775F902283AD000E0F6
:103350005FE0FFF7C9FAA0B3F32020700320FEF767
:103360009BFE0320FEF798FE02250320FEF794FE45
:103370006D1C052DF9DBFEF7B7FEFEF7B5FE022545
:10338000FEF7B2FE6D1C0A2DFADB3CE0F120207046
:10339000FEF7AAFEFEF7A8FE5FF00205FEF7A4FE08
:1033A0006D1C0A2DFADB0120FEF776FE0120FEF7E8
:1033B00073FE02250120FEF76FFE6D1C052DF9DB63
:1033C00021E01AE0F2202070FEF78EFEFEF78CFE60
:1033D0005FF00205FEF788FE6D1C0A2DFADB022065
:1033E000FEF75AFE0220FEF757FE02250220FEF7E6
:1033F00053FE6D1C052DF9DB05E0FEF737FD306847
:1034000004283FF435AFFEF731FD306804287FF41F
:103410004EADFDF79BF8F020FEF73EFEF020FEF7E4
:103420003BFE0225F020FEF737FE6D1C052DF9DB73
:10343000FEF75AFEFFF742FA0028FBD04FF47A73EA
:103440001E226D496D48FEF793FA002053461E2256
:1034500000F11B0191FBF2F502FB1511595C4529A6
:1034600011D100F11C0191FBF2F502FB1511595C21
:103470004F2908D100F11D0191FBF2F502FB151156
:10348000595C4D290BD0401C1E28E1DBFFF7F4F9F5
:10349000012814D0FFF7F0F9022831D032E00021E2
:1034A0004FEA080501EB4107074497FBF2FC02FBDA
:1034B0001C77DF5D6F54491C0929F3DBE6E72078B0
:1034C000401CC0B220700A2801D10020207098F85A
:1034D00000304246494689F800300120135C0B5405
:1034E000401C0928FADBFEF7FFFDFEF7FDFD022573
:1034F000FEF7FAFD6D1C052DFADBFEF793FD01E0EA
:1035000000F0D0F82078C1072ED0F02806D2401C59
:10351000C0B220700A2801D10020207034493548FB
:10352000FFF7DEF8DBE9000300EB4000414608440A
:1035300002221A5498F800304A4689F800300120D7
:103540000B5C1354401C0928FADBFEF76BFDFEF7F9
:10355000CBFDFEF7C9FD0225FEF7C6FD6D1C0A2D49
:10356000FADB2078C00701D1FEF7BEFD2148FFF746
:1035700061F8012822D01F48FFF75CF802284AD0E2
:10358000FFF7B2F9E0B3F32020700320FEF784FDCB
:103590000320FEF781FD02250320FEF77DFD6D1C53
:1035A000052DF9DBFEF7A0FDFEF79EFD5FF002059D
:1035B000FEF79AFD6D1C0A2DFADB4CE0F12020701D
:1035C000FEF792FDFEF790FD5FF00205FEF78CFD21
:1035D0006D1C0A2DFADB0120FEF75EFD012010E0D4
:1035E0004237000804000020EC0000207400002096
:1035F0000C00002030000020540000208C0100202E
:1036000023E0FEF749FD02250120FEF745FD6D1C74
:10361000052DF9DB1FE0F2202070FEF765FDFEF7B7
:1036200063FD0225FEF760FD6D1C0A2DFADB02200A
:10363000FEF732FD0220FEF72FFD02250220FEF7E5
:103640002BFD6D1C052DF9DB05E0FEF70FFC306846
:1036500005283FF4EFAEFEF709FC28E42DE9F0471A
:103660000925002682464FF00208B14606EB4600C7
:1036700000240AEB800700BF57F8240048B947F838
:1036800024805046FEF752FF854200DD054647F88C
:103690002490641C032CEFDB761C032EE6DB28460B
:1036A000BDE8F0872DE9F041224E0024A6F109077C
:1036B00006F13B08385D315D884235D0012902D0E2
:1036C000022919D030E078BB0025705D80B9785DA3
:1036D00001280DD104EB440108EB81010B7A0A7932
:1036E00005EB450108EB8100017A0079FEF722FD28
:1036F0006D1C092DE9DB17E0B0B90025705D80B9BC
:10370000785D02280DD104EB440008EB8000037AB9
:10371000027905EB450008EB8000017A0079FEF79D
:1037200009FD6D1C092DE9DB641C092CC2DBBDE819
:10373000F0810000390000204FF04070E1EE100AE7
:103740007047F5FFC8FF9BFF73FF46FFF5C8C8C869
:103750009BC873C846C80006101600061016000065
:103760000000000000000102030406070809000031
:103770000000010203040000983700080000002048
:1037800030000000C4010008C837000830000020E5
:1037900010090000E0010008000000000000000027
:1037A0000000000000000000000000000000000019
:1037B000FFFFFFFF000000000100000010000000FC
:0837C000000000000024F400E9
:040000050800018965
:00000001FF
