:020000040800F2
:100000006808002089010008E71D0008851B00081A
:10001000E51D0008AF020008E92500080000000007
:10002000000000000000000000000000111E000899
:10003000E902000800000000E91D0008DD1E0008BC
:10004000A3010008A3010008A3010008A301000800
:10005000A3010008A3010008A3010008A3010008F0
:10006000A3010008A3010008A3010008A3010008E0
:10007000A3010008A3010008A3010008B1020008C1
:10008000A3010008A3010008A3010008A3010008C0
:10009000A3010008A3010008A3010008A3010008B0
:1000A000411F0008651F0008591F00084D1F000868
:1000B000711F00087D1F0008A3010008A3010008AC
:1000C000A3010008A3010008A3010008A301000880
:1000D000A3010008DD250008A3010008A301000812
:1000E000A3010008A3010008A301000800F002F822
:1000F00000F03AF80AA090E8000C82448344AAF188
:100100000107DA4501D100F02FF8AFF2090EBAE885
:100110000F0013F0010F18BFFB1A43F0010318473B
:10012000243D0000443D0000103A24BF78C878C147
:10013000FAD8520724BF30C830C144BF04680C60ED
:10014000704700000023002400250026103A28BF35
:1001500078C1FBD8520728BF30C148BF0B60704739
:100160001FB51FBD10B510BD00F06CF81146FFF7AC
:10017000F7FF02F081FD00F08AF803B4FFF7F2FF09
:1001800003BC00F08DF8000009488047094800478B
:10019000FEE7FEE7FEE7FEE7FEE7FEE7FEE7FEE737
:1001A000FEE7FEE704480549054A064B7047000094
:1001B0003F1F0008ED0000086802002068080020CA
:1001C00068040020680400204FF0000200B51346C8
:1001D00094469646203922BFA0E80C50A0E80C5067
:1001E000B1F12001BFF4F7AF090728BFA0E80C5018
:1001F00048BF0CC05DF804EB890028BF40F8042B11
:1002000008BF704748BF20F8022B11F0804F18BF7D
:1002100000F8012B704770477047704710B500F029
:1002200009F8006810BD10B5044600F003F804603A
:1002300010BD0000004870470402002000487047CD
:10024000040200207546FFF7F9FFAE460500694637
:10025000534620F00700854618B020B5FFF7A2FFEF
:10026000BDE820404FF000064FF000074FF00008B7
:100270004FF0000B21F00701AC46ACE8C009ACE838
:10028000C009ACE8C009ACE8C0098D46704710B59C
:100290000446AFF300802046BDE81040FFF76DBF75
:1002A00001491820ABBEFEE7260002007047FEE7BA
:1002B000014800F08BB800006C01002030B590F8C8
:1002C00040500124AC40C56B6C60046863604368B7
:1002D000102B04D0036899600068C26030BD0368C9
:1002E0009A600068C16030BD704772B6FEE710B515
:1002F00090F821100022022905D00421816380F8A2
:100300002020012010BD01680B6823F00E030B6054
:1003100001680B6823F001030B6090F84030C46B58
:10032000012101FA03F3636080F8211080F8202096
:10033000104610BD10B5002490F82110022903D0FA
:100340000421816301243DE001680A6822F00E0265
:100350000A6001680A6822F001020A601A4A01680C
:10036000914201D1012121E0174A1432914201D179
:1003700010211BE0144A2832914201D1891515E061
:10038000114A3C32914201D189140FE00E4A503299
:10039000914202D14FF4803108E00B4A643291421D
:1003A00002D14FF4801101E04FF08071064A083A03
:1003B0005160012180F82110002180F82010416B4C
:1003C00001B18847204610BD080002402DE9F05FCA
:1003D000C16B0A6801680B68046C4FF0040A0AFAE2
:1003E00004FA4E4D4E4E4F4FDFF83CC1DFF83C81D2
:1003F000DFF83C911AEA020F31D05FEA437A2ED53A
:100400000A68920603D40A6822F004020A600168AE
:10041000A94201D1042119E0B14201D1402115E0E6
:10042000B94202D14FF4806110E0614502D14FF42E
:1004300080410BE0414502D14FF4802106E049455F
:1004400002D14FF4800101E04FF08061334A083A55
:100450005160C16A00295FD0BDE8F05F08474FF0E6
:10046000020E0EFA04FE1EEA020F4FF0000A4FF0D1
:10047000010B35D05FEA837E32D50A68920605D437
:100480000A6822F00A020A6080F821B00168A942D5
:1004900001D1022119E0B14201D1202115E0B94278
:1004A00002D14FF4007110E0614502D14FF40051C8
:1004B0000BE0414502D14FF4003106E0494502D13D
:1004C0004FF4001101E04FF00071144A083A5160F6
:1004D00080F820A0816A00291ED0BDE8F05F08479F
:1004E0000825A540154217D01A0715D50A6822F02D
:1004F0000E020A6090F84010C26B0BFA01F15160D5
:10050000C0F838B080F821B080F820A0016B002935
:1005100002D0BDE8F05F0847BDE8F09F0800024048
:100520001C000240300002404400024058000240DB
:100530006C00024030B5002827D0001D144A50F846
:10054000041C14230A44B2FBF3F29200C263114A62
:100550008263022242770A6843F6F0739A43D0E935
:1005600000342343D0E902452C4323430469234349
:10057000446923438469234313430B60002141638F
:10058000012242770177002030BD012030BD0000FC
:10059000F8FFFDBF0000024070B50446002594F846
:1005A000200001280CD0012084F8200094F821605C
:1005B0000020012E06D084F820000225284670BDB8
:1005C000022070BD022684F82160A06320680668BE
:1005D00026F0010606602046FFF770FEE06A28B1AB
:1005E0002068016841F00E01016009E0206801689F
:1005F00021F0040101602068016841F00A010160F6
:100600002068016841F001010160D7E770B5044638
:1006100000F006F90546601C02D004480078044446
:1006200000F0FEF8401BA042FAD370BD000000208D
:100630002DE9F84F00240023DFF8C4914FF00F0894
:10064000A9F1040B09F1040AABF1040ED1E0012772
:10065000A7403A40BA4275D1DFF8A8C14D68A5EB72
:100660000C0665452BD00DDC032D34D005DC35B3ED
:10067000012D19D0022D2FD11BE0112D16D0122DD6
:100680002AD119E0B6F5881F19D006DCB6F5803FEF
:1006900015D0B6F5801F1FD111E0B6F5001F0ED0A2
:1006A000B6F5041F18D10AE0CB6815E0CB681B1D16
:1006B00012E0CB6808330FE0CB680C330CE08B689A
:1006C00023B1012B04D00823476105E0042303E094
:1006D0000823076100E00023FF2A01D8054601E056
:1006E00000F1040502D84FEA840603E0A4F10806ED
:1006F0004FEA86062F6808FA06FC27EA0C0703FA79
:1007000006F647EA06072F604D68ED0070D53E4DAE
:10071000AE6946F00106AE61AD6905F001050095D0
:100720003A4D24F003067719BE68A5072D0F08FA85
:1007300005FC26EA0C06DFF8D8C0604503D14FF06F
:10074000000C17E054E0DFF8CCC0604502D14FF058
:10075000010C0FE0DFF8C0C0604502D14FF0020C81
:1007600008E0DFF8B8C0604502D14FF0030C01E0AB
:100770004FF0040C0CFA05FC4CEA060CC7F808C054
:100780004D68ED0205D5D9F800501543C9F8005061
:1007900004E0D9F800509543C9F800504D68AD0207
:1007A00005D5DAF800501543CAF8005004E0DAF82D
:1007B00000509543CAF800504D68AD0305D5DBF8ED
:1007C00000501543CBF8005004E0DBF8005095438F
:1007D000CBF800504D68ED0305D5DEF80050154309
:1007E000CEF8005004E0DEF800509543CEF80050FB
:1007F000641C0A6832FA04F57FF429AFBDE8F88F6B
:1008000008040140000011100010024000000140E7
:1008100000080140000C014000100140001401409C
:10082000014880687047000000000020024881688D
:1008300002781144816070470000002010B507481D
:10084000016841F010010160032000F077F80F20EB
:1008500000F006F800F026F8002010BD002002404D
:1008600070B504460D4D4FF47A712878B1FBF0F065
:100870000B490968B1FBF0F000F02AFB08B1012038
:1008800070BD102C07D200222146501E00F036F811
:100890006C60002070BD012070BD000000000020D1
:1008A0000C00002008B50C48816941F0010181610C
:1008B000816901F001010091C16941F08051C1617C
:1008C000C06900F0805000900449486820F0E06062
:1008D00040F00070486008BD001002400000014078
:1008E000002809DB00F01F0201219140400980002F
:1008F00000F1E020C0F8001170470000F0B40D4690
:100900000D4B1B68C3F30223C3F10704042C00D969
:100910000424191D072901D2002300E0DB1E012653
:1009200006FA04F1491E294099409E40761E164061
:100930003143F0BC01F06CBE0CED00E000F00701AB
:10094000054A10684FF6FF03184040EA01200349AA
:1009500008431060704700000CED00E00000FA054D
:100960002DE9F04704460D46002C17D0DFF8308102
:10097000D8F8000000F00700A84211D2D8F8000013
:1009800020F007002843C8F80000D8F8000000F065
:100990000700A84204D00120BDE8F0870120FBE752
:1009A0002068404E810712D5400703D5706840F497
:1009B000E06070602078000703D5706840F46050F4
:1009C00070607068A16820F0F000084370602078C3
:1009D000C0072CD06068012806D0022809D03168F1
:1009E00089070BD40120D7E73168890306D4012099
:1009F000D2E73168890101D40120CDE7716821F087
:100A0000030101437160FFF70BFF074641F288398C
:100A100006E0FFF705FFC01B484501D90320BBE7EF
:100A20007068616800F00C00B0EB810FF1D1D8F86C
:100A3000000000F00700A8420ED9D8F8000020F00E
:100A400007002843C8F80000D8F8000000F00700AD
:100A5000A84201D001209FE72078400705D57068A3
:100A6000E16820F4E060084370602078000706D554
:100A70007068216920F4605040EAC100706000F0A5
:100A80003FF87168084AC1F30311515CC840074937
:100A9000086007480068FFF7E3FE00207CE70000DD
:100AA00000200240001002402C3E00080C000020F4
:100AB0000400002001480068704700000C0000207E
:100AC00000B5FFF7F7FF04494968044AC1F3022162
:100AD000515CC84000BD0000001002403C3E0008D0
:100AE00000B5FFF7E7FF04494968044AC1F3C22192
:100AF000515CC84000BD0000001002403C3E0008B0
:100B00000E4B59680E4801F00C02042A11D0082A35
:100B10000FD10C48C1F38342805CC9030AD55968E0
:100B2000084AC1F34041921E515C054A5043B0FB54
:100B3000F1F070470449484370470000001002403C
:100B400000127A001C3E000800093D002DE9F84F14
:100B50000446002C0ED02078D94DC0075ED06868BE
:100B6000C0F3810001280BD06868C0F3810002281F
:100B700003D00CE00120BDE8F88F6868C00306D5FB
:100B8000286880034AD56068A8BB0120F3E7606845
:100B9000B0F5803F11D0A8B1B0F5A02F1BD02868C8
:100BA00020F480302860286820F480202860606865
:100BB00030B3FFF735FE06461EE0286840F480306B
:100BC0002860F4E7286820F480302860286820F442
:100BD00080202860EBE7286840F48020286028689F
:100BE00040F480302860E2E7FFF71AFE801B64289B
:100BF00002D90320BFE711E028688003F4D50DE097
:100C0000FFF70EFE064606E0FFF70AFE801B64288B
:100C100001D90320AFE728688003F5D42078DFF8F6
:100C2000A48280074FF0010A4FF0000945D568689B
:100C300010F00C0F07D06868C0F38100022812D1B1
:100C40006868C0030FD42868800704D5206901288C
:100C500001D001208FE72868616920F0F80040EAA0
:100C6000C100286029E02069B8B1C8F800A0FFF7EA
:100C7000D7FD064606E0FFF7D3FD801B022801D909
:100C8000032078E728688007F5D52868616920F097
:100C9000F80040EAC10028600FE0C8F80090FFF7B4
:100CA000BFFD064606E0FFF7BBFD801B022801D909
:100CB000032060E728688007F5D42078000726D550
:100CC0008148A16999B1C0F800A0FFF7A9FD0646C7
:100CD00006E0FFF7A5FD801B022801D903204AE7A3
:100CE000686A8007F5D5012001F080F80FE0C0F8B0
:100CF0000090FFF795FD064606E0FFF791FD801B8B
:100D0000022801D9032036E7686A8007F5D42078E5
:100D1000400773D50026E869C00008D4E86940F0B0
:100D20008050E861E86900F0805000900126DFF80B
:100D30009CB1DBF80000C00514D4DBF8000040F4DF
:100D40008070CBF80000FFF76BFD074606E0FFF769
:100D500067FDC01B642801D903200CE7DBF8000005
:100D6000C005F4D5E068012812D0B0B105281DD027
:100D7000286A20F001002862286A20F00400286216
:100D8000E06841F2883B28B3FFF74AFD07461DE0C3
:100D9000286A40F001002862F2E7286A20F001008A
:100DA0002862286A20F004002862E9E7286A40F0F7
:100DB00004002862286A40F001002862E0E7FFF79B
:100DC0002FFDC01B584501D90320D4E6286A8007AF
:100DD000F5D50DE0FFF724FD074606E0FFF720FDFF
:100DE000C01B584501D90320C5E6286A8007F5D401
:100DF000012E03D1E86920F08050E861E069A0B3DA
:100E00006968C1F38101022946D0022805D0C8F8DB
:100E10006090FFF705FD04463AE0C8F86090FFF7E0
:100E2000FFFC064606E0FFF7FBFC801B022801D909
:100E30000320A0E628688001F5D4206AB0F5803F41
:100E400005D16868A16820F4003008436860D4E9DF
:100E500008010843696821F4741108436860C8F800
:100E600060A0FFF7DDFC044607E026E0FFF7D8FCB2
:100E7000001B022801D903207DE628688001F5D5F2
:100E80001BE0FFF7CDFC001B022801D9032072E60E
:100E900028688001F5D410E001280CD06868226A27
:100EA00000F48031914204D1616A00F470108842EC
:100EB00003D001205FE601205DE600205BE6000034
:100EC0000010024000004242800442420070004094
:100ED00010B5401EB0F1807F01D3012010BD4FF04E
:100EE000E02460610F21601701F092FB0020A061F7
:100EF00007202061002010BD7047704710B590F8A2
:100F00003C20012A22D0012280F83C20CA6800231C
:100F10008C6822F4407222434C6822F4806222439F
:100F20000C6822F4006222430C6922F480522243AE
:100F30004C6922F400522243C96922F480420A43D8
:100F400001684A6480F83C30002010BD022010BDCA
:100F500070B590F83C20012A25D0012680F83C602D
:100F6000022280F83D2002685468936824F07005DE
:100F70000C682C4354600D4C0268A24208D0B2F1B8
:100F8000804F05D00A4CA24202D00A4CA24204D1A2
:100F900023F080034968194391603C30467000217A
:100FA0000170002070BD022070BD0000002C0140C7
:100FB000000400400008004010B50446002C03D097
:100FC00094F83D0010B107E0012010BD002084F826
:100FD0003C00204600F016F8022084F83D00211D58
:100FE000206800F0D1FF01203D3460726070A07075
:100FF000E07020716071A071E0712072207000209B
:1010000010BD000008B500680B49884212D10B489A
:10101000C16941F00201C161C06900F002000090A5
:10102000002205211D20FFF769FCBDE808401D20B6
:10103000FFF756BC08BD000000040040001002404D
:1010400090F83D10012901D001207047022180F85D
:101050003D100168CA6842F00102CA6000680E498A
:10106000884208D0B0F1804F05D00C49884202D0A8
:101070000B49884209D1816801F00701062908D08F
:10108000016841F00101016003E0016841F00101E4
:101090000160002070470000002C01400004004067
:1010A0000008004070B50446002594F83C00012873
:1010B00017D0012684F83C60022084F83D002068A7
:1010C000826822F0770222F47F428260086850280A
:1010D00038D00DDC202853D005DC90B3102811D176
:1010E0004EE0022070BD30284AD040280AD13DE0B1
:1010F000602831D070280CD0B0F5805F03D0B0F5F7
:10110000005F12D001253C34667000202070284614
:1011100070BDCB68D1E90121206800F078FF20681C
:10112000816841F077018160EDE7CB68D1E9012169
:10113000206800F06CFF2068816841F48041816084
:10114000E1E71DE0CA684968206801F029F85021EC
:10115000206800F066FFD6E7CA684968206801F099
:1011600030F86021206800F05CFFCCE7CA6849686D
:10117000206801F015F84021206800F052FFC2E716
:1011800022680146104600F04CFFBCE7704770B57E
:101190000446206801694FF00005C943890716D449
:1011A000C168C943890712D4E91E01610120207773
:1011B00020688069800703D02046FFF7E7FF05E03D
:1011C000204600F0D5F8204600F0AEF925772068DB
:1011D0000169C943490718D4C168C943490714D4F0
:1011E0006FF004010161022020772068806910F40B
:1011F000407F03D02046FFF7C9FF05E0204600F0FE
:10120000B7F8204600F090F9257720680169C943B6
:10121000090717D4C168C943090713D46FF008013F
:101220000161042020772068C069800703D0204630
:10123000FFF7ACFF05E0204600F09AF8204600F0EA
:1012400073F9257720680169C943C90618D4C168B4
:10125000C943C90614D46FF010010161082020773A
:101260002068C06910F4407F03D02046FFF78EFF4E
:1012700005E0204600F07CF8204600F055F925777F
:1012800020680169C943C90708D1C168C943C907B2
:1012900004D1891E0161204600F09EF92068016991
:1012A000C943090609D4C168C943090605D46FF0CA
:1012B000800101612046FFF71FFE20680169C943D4
:1012C000490609D4C168C943490605D46FF04001F5
:1012D0000161204600F0BEF920680169C943890612
:1012E0000BD4C168C943890607D46FF0200101619E
:1012F0002046BDE87040FFF700BE70BD10B586B057
:1013000000210291039104910591164C0168164A3F
:1013100002231648A14211D1916941F00401916163
:10132000916901F0040101914FF4706102910393FE
:10133000059302A9FFF77CF906B010BDB1F1804F0B
:10134000FAD1916941F004019161916901F00401C0
:101350000191012102910393059302A9FFF768F916
:10136000EAE70000002C01400010024000080140A4
:10137000704770B504460D46002694F83C000128DD
:101380000FD0012084F83C006AB1042A1FD0082A3B
:1013900032D00C2A44D00126002084F83C0030468C
:1013A00070BD022070BD2946206800F043FE206811
:1013B000816941F0080181612068816921F004019F
:1013C0008161206881692A6911438161E4E72946C6
:1013D000206800F05FFE2068816941F4006181614E
:1013E0002068816921F480618161206881692A69AE
:1013F00041EA02218161CFE72946206800F07CFEA6
:101400002068C16941F00801C1612068C16921F00B
:101410000401C1612068C1692A691143C161BBE748
:101420002946206800F098FE2068C16941F40061F7
:10143000C1612068C16921F48061C1612068C1690E
:101440002A6941EA0221C161A6E710B50446002CD1
:1014500003D094F83D0010B107E0012010BD00203A
:1014600084F83C00204600F015F8022084F83D0086
:10147000211D206800F088FD01203D3460726070FD
:10148000A070E07020716071A071E0712072207016
:10149000002010BD08B50068214A2249904229D198
:1014A000886940F400608861886900F400600090F9
:1014B000002211461820FFF721FA1820FFF710FA32
:1014C000002211461920FFF719FA1920FFF708FA30
:1014D000002211461A20FFF711FA1A20FFF700FA2E
:1014E000002211461B20FFF709FABDE808401B2027
:1014F000FFF7F6B9B0F1804F11D1C86940F0010093
:10150000C861C86900F001000090002211461C204B
:10151000FFF7F4F9BDE808401C20FFF7E1B908BD6A
:10152000002C0140001002407047000010B5044636
:10153000002909D004290AD008290BD094F84100C9
:1015400001280AD0012010BD94F83E00F8E794F875
:101550003F00F5E794F84000F2E7022039B3042990
:1015600028D0082929D084F841000122206800F001
:1015700041FD16492068884203D1426C42F4004282
:1015800042642068884208D0B0F1804F05D01049ED
:10159000884202D00F49884212D1816801F00701C8
:1015A000062911D0016841F0010101600CE084F8C6
:1015B0003E00DAE784F83F00D7E784F84000D4E73C
:1015C000016841F001010160002010BD002C0140C4
:1015D000000400400008004070B51449884224D13E
:1015E000134C606802F0AAF90546206802F0A6F9DB
:1015F000104A2946126801F073F900F04DFC0E48BC
:1016000001680E48026851630D49026809689163D8
:101610000C4902680968D1630B49006809680164D4
:101620000B490A4809680068486370BDDC00002067
:10163000B001002018000020340000204C000020E1
:10164000380000203C000020400000204400002022
:10165000940000207047704770470000F8B50446BA
:1016600022681068D168536900F00F06002E08D177
:10167000850606D58D0604D52046BDE8F84000F065
:1016800073BE0025002E66D003F0010601F49077AA
:10169000374360D0C20705D0CA0503D5626C42F05B
:1016A00001026264420705D5DA0703D0626C42F09A
:1016B00002026264820705D5DA0703D0626C42F049
:1016C00004026264020707D501F02002324303D00E
:1016D000626C42F008026264626C002A31D08006BB
:1016E00004D5880602D5204600F03EFE20684069F9
:1016F000C0F38010616C090700D438B3204600F0B5
:10170000F1FD2068406940061CD52068143050E87F
:10171000001F21F0400140E80012002AF5D1E06BE3
:1017200060B159494163E06BFEF704FE002808D020
:10173000E06B416B01B0BDE8F04008472046FFF781
:101740008BFFF8BD2046FFF787FFF8BD2046FFF767
:1017500083FF6564F8BD236B012B7DD1C3067BD568
:10176000CB067ED510685068009050694FF020037A
:1017700040064FF0020643D5E16B0868406880B22E
:101780000028E7D0A28D8242E4D9E085886920282C
:101790002DD020680C3050E8001F21F4807140E803
:1017A0000012002AF5D12068143050E8001F21F003
:1017B000010140E80012002AF5D12068143050E8F9
:1017C000001F21F0400140E80012002AF5D184F802
:1017D0004230256320680C3050E8001F21F01001D2
:1017E00040E80012002AF5D1E06BFEF780FD666349
:1017F000A08DE18D401A81B22046FFF72CFFF8BD85
:10180000A08DE18D401A81B2E08D0028F7D000292B
:10181000F5D020680C3050E8002F22F4907240E898
:101820000027002FF5D12068143050E8002F22F057
:10183000010240E80027002FF5D184F842302563EB
:1018400020680C3050E8002F22F0100240E80023FE
:10185000002BF5D1666300E003E02046FFF7FBFEB6
:10186000F8BD020606D50A0604D52046BDE8F840B4
:1018700000F084BE4006F3D54806F1D52046BDE809
:10188000F84000F056BD0000E721000870B504469E
:10189000002C04D094F84100002510B106E001208E
:1018A00070BD84F84050204600F024F8242084F8CD
:1018B00041002068C16821F40051C160204600F059
:1018C000B7FD2068016921F49041016120684169F8
:1018D00021F02A0141612068C16841F40051C160D2
:1018E0006564202084F8410084F84200656300208C
:1018F00070BD0000F0B585B0064600240194029446
:101900000394049426493068884246D12549886961
:1019100040F480408861886900F4804000908869C4
:1019200040F008008861886900F0080000904020BD
:10193000019002200290032004901B4D01A928462B
:10194000FEF776FE802701970294039401A92846AA
:10195000FEF76EFE1549486840F0E06040F0040074
:101960004860144D124828606C60AC60EF602C61D8
:101970006C612020A861C001E8612846FEF7DAFD0D
:1019800008B1FEF7B2FCF5636E6200220221252049
:10199000FEF7B4FF2520FEF7A3FF05B0F0BD000061
:1019A0000038014000100240000C014000000140DE
:1019B000580002406C01002090F84230202B01D0EA
:1019C0000220704721B11AB10023036300F08CBDDF
:1019D000012070472DE9FC5F00685849884223D1F7
:1019E000574F386800281FD10024564E0A20E11DA9
:1019F00091FBF0F200FB1211715C452911D104F149
:101A0000080191FBF0F200FB1211715C4F2908D123
:101A100004F1090191FBF0F200FB1211715C4D29F8
:101A200004D0641C0A2CE2DBBDE8FC9F4749464811
:101A3000086001904748DFF81881C0F80080CDF8B1
:101A40000080A01CC11700EB517121F00701401A62
:101A5000355C41480570201DC11700EB517121F024
:101A60000701401A305C01F081FF414602F0F0F8B6
:101A7000DFF8E8A0514601F08DFF6FF0010B5946E9
:101A800002F08DF936490860DFF8D880DFF8D89089
:101A9000404501DDC1F80090E01CC11700EB517119
:101AA00021F00701401A305C01F060FF019902F05B
:101AB0003DF8514601F06EFF594602F070F92B498E
:101AC00001F0F6FD2A490860A01DC11700EB517115
:101AD00021F00701401A305C01F048FF009902F044
:101AE000B7F8514601F056FF594602F058F921491E
:101AF0000860404501DDC1F80090641DE01704EB6B
:101B0000507020F00700201A305C01F02FFF01997F
:101B100002F00CF8514601F03DFF594602F03FF942
:101B2000124901F0C5FD1449086014480178A94222
:101B30003FF47AAF01213960057075E70038014044
:101B400020000020BC01002000001B4310000020EA
:101B50000000B042140000201D00002000004040A2
:101B6000240000200000C8420000C2C2000016434A
:101B70002C00002028000020300000201C00002045
:101B800070477047FEE7000008B50948416941F019
:101B900001014161406900F00100009000221146FE
:101BA0000F20FEF7ABFEBDE808400F20FEF798BE01
:101BB0000010024008B51148816941F010018161AF
:101BC000816901F010010091816941F0200181617A
:101BD000816901F020010091816941F00401816176
:101BE000816901F004010091816941F0080181617E
:101BF000806900F00800009008BD0000001002405D
:101C000010B592B00024109411941C2109A8FEF77D
:101C1000DBFA202101A8FEF7D7FA2D482B490160F5
:101C200047214160846044F61F61C16004614461E2
:101C300080218161FFF709FC08B1FEF756FB109483
:101C4000119410A92248FFF783F908B1FEF74DFB64
:101C5000602009900A940B940C940D940E940F94A8
:101C6000002209A91A48FFF784FB08B1FEF73DFBE3
:101C7000042209A91648FFF77CFB08B1FEF735FBE3
:101C8000082209A91248FFF774FB08B1FEF72DFBE3
:101C90000C2209A90E48FFF76CFB08B1FEF725FBE3
:101CA000019402940394049405944FF40050069018
:101CB000089401A90648FFF721F908B1FEF715FBC2
:101CC0000348FFF71BFB12B010BD0000002C0140C1
:101CD0004C00002010B58AB00024089409941C21FF
:101CE00001A8FEF771FA16484FF0804101604721C4
:101CF0004160846044F61F61C1600461802181619C
:101D0000FFF7A3FB08B1FEF7F0FA0894099408A9BD
:101D10000B48FFF71DF908B1FEF7E7FA60200190C4
:101D2000029403940594002201A90548FFF721FBC2
:101D300008B1FEF7DAFA0248FFF7E0FA0AB010BD80
:101D40009400002010B586B00024029403940494FB
:101D500005940094019414481249016040F2CF2187
:101D6000416084606321C160046180218161FFF76B
:101D700023F908B1FEF7B9FA4FF48050029002A996
:101D80000948FFF78FF908B1FEF7AFFA0094019404
:101D900069460548FFF7DCF8002801D0FEF7A5FAF0
:101DA00006B010BD00040040DC00002010B50C4857
:101DB0000A4901604FF4E131416000218160C16056
:101DC00001610C2242618161C161FFF75FFD002862
:101DD00003D0BDE81040FEF788BA10BD00380140BE
:101DE00024010020FEE7FEE77047000008B5074920
:101DF0004FF4FA520968B1FBF2F14143009100BF80
:101E00000098411E0091FAD208BD00000C0000208D
:101E10007047000010B51648FFF712F90021154869
:101E2000FFF784FB04211348FFF780FB08211148CA
:101E3000FFF77CFB0C210F48FFF778FB00210E48D1
:101E4000FFF774FB0D496FF06300086000204860E5
:101E500088600C4A0A4951629162D16211630A4951
:101E600008600A4908600A4908600A49086010BD0C
:101E7000DC0000204C00002094000020B001002075
:101E80000080BB44C801002024000020280000205E
:101E90002C0000203000002010B50B4C606A01F0CF
:101EA00031FD0A490860A06A01F02CFD084908606C
:101EB000E06A01F027FD07490860206B01F022FD70
:101EC0000549086010BD0000C80100203400002052
:101ED000380000203C00002040000020FEF7A6BC97
:101EE00030B58FB0282105A8FEF76EF91421684699
:101EF000FEF76AF901210591080406900024079471
:101F0000099102250C950D904FF4E0100E9005A854
:101F1000FEF71CFE08B1FEF7E8F90F2000900195CE
:101F200002944FF480600390049402216846FEF707
:101F300017FD002801D0FEF7D8F90FB030BD70476B
:101F40000148FFF724B900004C0000200148FFF7CA
:101F50001EB900004C0000200148FFF718B900002E
:101F60004C0000200148FFF712B900004C0000208F
:101F70000148FFF70CB90000940000200148FFF76A
:101F800006B90000DC000020F0B50268164C174DC1
:101F9000174E4FF08047A04205D0B84203D0A84268
:101FA00001D0B04203D122F070034A681A43A04224
:101FB00005D0B84203D0A84201D0B04203D122F4E8
:101FC0004073CA681A434B6922F080021A430260C8
:101FD0008A68C2620A688262A04201D1096901630B
:101FE00001214161F0BD0000002C014000040040CF
:101FF0000008004010B501F01F0101238B40046A66
:102000009C430462036A8A401343036210BD10B507
:10201000846824F47F4442EA03220A432243826014
:1020200010BD826822F070020A4342F0070181600D
:102030007047000030B5026A036A23F001030362AF
:102040004368846924F0700424F003050C682C4371
:1020500022F002058A682A430D4DA84206D122F0DB
:102060000802CD6845EA020525F0040209D123F4EF
:10207000807323F400734D6945EA03058B6943EAD5
:1020800005034360846149684163026230BD00001A
:10209000002C014030B5036A026A22F0100202628D
:1020A0004268846924F4E04424F440740D6844EAEE
:1020B000052423F020038D6843EA05130D4DA84243
:1020C00006D123F08003CD6843EA051323F04003D3
:1020D00009D122F4806222F400624D6942EA85024D
:1020E0008D6942EA850242608461496881630362C6
:1020F00030BD0000002C014030B5026A036A23F4B1
:10210000807303624368C46924F0700424F00305FB
:102110000C682C4322F400728D6842EA05220D4DB2
:10212000A84206D122F40062CD6842EA052222F4D8
:10213000806209D123F4805323F400534D6943EAAC
:1021400005138D6943EA05134360C4614968C1639F
:10215000026230BD002C014030B5036A026A22F4ED
:10216000805202624268C46924F4E04424F440745A
:102170000D6844EA052423F400538D6843EA0533CF
:10218000064DA84204D122F480424D6942EA8512EC
:102190004260C46149680164036230BD002C0140A3
:1021A00010B5036A046A24F001040462846924F00F
:1021B000F00444EA021423F00A020A438461026232
:1021C00010BD10B5036A046A24F010040462846927
:1021D00024F4704444EA023223F0A00343EA0111DC
:1021E0008261016210BD10B5406A0021C185C184C1
:1021F000FFF732FA10BD70B5446A20684069C0F339
:10220000C01094F841100025212904D118B1E584AB
:10221000204600F09BF820684069C0F3801094F8D5
:102220004210222904D118B1E585204600F05AF861
:10223000606C40F0100060642046FFF70DFA70BD3E
:1022400010B50146486A096809684FF0000389061D
:102250002ED4C38501680C3151E8002F22F480721E
:1022600041E80024002CF5D10168143151E8002F19
:1022700022F0010241E80024002CF5D1016814315C
:1022800051E8002F22F0400241E80024002CF5D153
:10229000202180F84210016B012909D101680C311D
:1022A00051E8002F22F0100241E80024002CF5D163
:1022B0004363016B012902D0FFF78CFB10BD818DB8
:1022C000FFF7C9F910BD10B5406A01214163016BE8
:1022D000012902D0FFF754FC10BD818D4908FFF79A
:1022E000BAF910BD01680C3151E8002F22F4907248
:1022F00041E80023002BF5D10168143151E8002F8B
:1023000022F0010241E80023002BF5D1016B0129E5
:1023100009D101680C3151E8002F22F0100241E888
:102320000023002BF5D1202180F842100021016309
:10233000704710B50168CA6822F04002CA602021C7
:1023400080F84110FFF71DFC002010BD01680C3122
:1023500051E8002F22F0C00241E80023002BF5D104
:10236000202180F84110704708B590F842102229CA
:1023700001D0022008BD82684FF480539A4201D1F7
:10238000016921B1816A9A421DD052B10BE0816A84
:1023900002685268C2F308020A80816A891C81625D
:1023A00009E002697AB10268526802F07F020A709D
:1023B000816A491C8162C18D491E0904090CC185CD
:1023C00005D0002008BD026852680A70F0E7016875
:1023D000CA6822F02002CA600168CA6822F48072CA
:1023E000CA6001684A6922F001024A61202180F82E
:1023F000421000214163026B012A03D0FFF7EAFA81
:10240000002008BD016301680C3151E8002F22F063
:10241000100241E80023002BF5D101680A68D206BA
:1024200002D50A6849680091818DFFF714F9E7E742
:1024300070B5044620680169E26821F440511143F7
:102440000161A16820690143606901432068C26895
:1024500041F20C639A430A43C26020684169A26951
:1024600021F44071114341611E492068884202D124
:10247000FEF736FB01E0FEF723FB00EBC00101EBAA
:102480000010616864228900B0FBF1F3B3FBF2F342
:102490006FF018067343B0FBF1F5B0FBF1F605EBF6
:1024A0008305322303EB0515B5FBF2F5B6FBF2F617
:1024B00005F0F00505EB0615B0FBF1F6B0FBF1F009
:1024C000B0FBF2F06FF01801484306EB800003EB1D
:1024D0000010B0FBF2F0216800F00F002844886083
:1024E00070BD00000038014037B582B00446134685
:1024F000039AA262A38500206064222184F842101E
:10250000E56B1B49A962E56B1A49E962E56B1A495B
:102510002963E16B48632168E06B091DFEF73CF815
:102520002068016840680190206948B120680C303B
:1025300050E8001F41F4807140E80012002AF5D1F4
:102540002068143050E8001F41F0010140E80012FB
:10255000002AF5D12068143050E8001F41F04001F6
:1025600040E80012002AF5D105B0002030BD00007F
:1025700041220008C7220008F721000890F8411006
:10258000212901D0022070478168B1F5805F01D117
:10259000016961B1016A4A1C0262026809785160EE
:1025A000C18C491E0904090CC1840AD013E0016AD8
:1025B00002680988C1F308015160016A891C01623F
:1025C000EEE70168CA6822F08002CA600068C1684C
:1025D00041F04001C1600020704700000148FFF752
:1025E0003DB8000024010020FEE74100080218BFAA
:1025F00004200A0E18BF40F001004FF07F4232EA7B
:10260000010108BF40F00200012808BF0520704703
:102610000907090E002804DB00F1E02080F800140F
:10262000704700F00F0000F1E02080F8141D7047A3
:10263000012101F0B4BB0021084601F0A1B86FF000
:102640005E01080701F0ABBB2DE9F04104464FF0F5
:102650001A4000EB4400B0F1C85F204655D84FF057
:10266000FC41B1EB440F1CD224F000404FF07E51EE
:1026700001F05CFA4FF0FF3101F091FB054600F0EC
:10268000F1FB14F0004F1DBF2C4F2D4E80F0004089
:10269000002708BF3E464FF0404101F07BF9044659
:1026A00005E0284F284E014601F074F905462749F8
:1026B000284601F06FF9264900F0FAFF294601F09B
:1026C00069F9244900F0F4FF294601F063F9224931
:1026D00000F0EEFF294601F05DF9204900F0E8FF27
:1026E00080462946204601F055F9414601F052F94D
:1026F00005463146204601F019FA294601F0A8FAAC
:102700003946BDE8F04100F0D3BF4FF0CC41B1EB0A
:10271000440F84BF1248BDE8F0814FF07F41B1EB18
:10272000440F03D2BDE8F041FFF782BF0120FDF75F
:102730007AFDBDE8F041FFF77EBF00000000494090
:1027400022AA7D3A0000C93F22AAFD3924FE1C3D81
:10275000C78AD83C1E67383D1B93993DAFAA2A3ED5
:10276000DB0FC93F2DE9F041054604464FF00E400E
:1027700000EB4400B0F1145F76D24FF0FE40B0EBB6
:10278000440F24BF002637460CD214F0004F19BF67
:10279000454F464E464F474E2146474800F0F0FF12
:1027A000054604464FF0FC40B0EB440F2CD24349A1
:1027B000DFF80C8114F0004F0AD04FF03F44384648
:1027C00001F046FA07464146304601F041FA09E079
:1027D0004FF07C54384600F06BFF074641463046C8
:1027E00000F066FF06462146284601F0D3F84FF078
:1027F0007E5100F05DFF80462146284601F028FA10
:10280000414600F0BDFF05462946084601F0C2F8E2
:1028100080462C4901F0BEF82B4900F049FF4146A3
:1028200001F0B8F8294900F043FF414601F0B2F841
:10283000274900F03DFF414601F0ACF8254900F082
:1028400037FF04464146284601F0A4F8214601F02E
:10285000A1F8314600F02CFF294600F029FF394647
:10286000BDE8F04100F024BF4FF0E440B0EB440F6E
:1028700009D92846FFF7B9FE042808BFFFF7DFFE95
:102880002846BDE8F0814FF07F40B0EB440F04D202
:102890002046BDE8F041FFF7CBBE14F0004F14BF57
:1028A0000D480E48BDE8F0810000C9BF22AAFDB95D
:1028B0000000C93F22AAFD39000080BF0060ED3E44
:1028C000C30ACE372DAD65BD8FB8D53D0FB511BE4E
:1028D00061C84C3EA8AAAABEDB0FC9BFDB0FC93F27
:1028E0002DE9F74F88B00999084601F053F8089987
:1028F0000446084601F04EF8214600F0D9FE00F0EB
:10290000ABFE00F089FA00F0C3FA0446CA4920463B
:1029100001F09EF9C94E0146304600F031FFFFF745
:1029200021FF05463146204601F092F90446C4498C
:102930008C4200DD0C46C348844200DA0446DFF8CE
:1029400008B3DBF80060DBF80470C048806800F072
:10295000F5FFDBF8081001F0E9F8814649464846E2
:1029600001F018F8804607902146204601F012F841
:102970004146069000F09CFE00F06EFE00F04CFA1E
:1029800000F086FA8046284600F066FE0022B04B32
:1029900000F088FB00F07CFA02900121404601F033
:1029A000FEF98246214600F0F5FF044641464046C6
:1029B000079D00F0EFFF01460590069800F078FEB5
:1029C000294601F045F9214600F0DAFEFFF73CFE0A
:1029D00000F042FE9F4AA04B00F064FB04460D4607
:1029E0005046314600F0D6FF82463946384600F060
:1029F000D1FF04900190059800903146304600F0D8
:102A0000C9FF0390009900F053FE019901F020F9ED
:102A1000514600F0B5FEFFF717FE00F01DFE8D4A8F
:102A20008D4B00F03FFB00228C4B00F039FC22461E
:102A30002B4600F027FD00F02BFA82460121384694
:102A400001F0ADF90446314600F0A4FF054603A8A5
:102A500043C800F02DFE314601F0FAF8294600F097
:102A60008FFEFFF7F1FD00F0F7FD7A4A7A4B00F098
:102A700019FB00227A4B00F013FC00F009FA06461D
:102A80002046414600F086FFDDE9035104460598E3
:102A900000F00EFE294601F0DBF8214600F070FE42
:102AA000FFF7D2FD00F0D8FD6A4A6B4B00F0FAFA4E
:102AB00004460D460121484601F071F9414600F0F7
:102AC00069FFDDE906810746059800F0F1FD414602
:102AD00001F0BEF8394600F053FEFFF7B5FD00F0F7
:102AE000BBFD5C4A5C4B00F0DDFA00225C4B00F061
:102AF000D7FB22462B4600F0C5FC00F0C9F9814601
:102B00000998584FDFF8608110F0FF4F1BD00298F2
:102B100000F0A2FD04460D46DDE9080100F030FE9C
:102B2000FFF720FE00F098FD4A4A4B4B00F0BAFA3E
:102B30003A46434600F0DEF922462B4600F0A2FC5E
:102B400000F0A6F91EE00898B0F5000F0DDB029822
:102B500000F082FD3A46434600F0A2FB00223F4BC4
:102B600000F0C8F900F094F90CE0029800F074FD50
:102B70003A46434600F094FB0022384B00F082FCBA
:102B800000F086F90546CBF80C00CBF810A0CBF886
:102B900014602A49484601F05BF80446CBF8180057
:102BA000284600F059FD314D314F2A463B4600F092
:102BB00079FADFF8C0800022434600F071FB00F094
:102BC00041FA00F0BBFECBF82400304600F044FD93
:102BD0002A463B4600F066FA0022434600F08AF996
:102BE00000F030FA00F0AAFECBF82800504600F0C2
:102BF00033FD2A463B4600F055FA0022434600F0DA
:102C000079F900F01FFA00F099FECBF82C0020466D
:102C100000F022FD2A463B4600F044FA00224346DB
:102C200000F068F900F00EFA00F088FECBF83000F2
:102C30000BB0BDE8F08F00000000A0400000204174
:102C4000000075430000B442C8010020B00100201C
:102C500000000440B694631ADCA54C400080564046
:102C600000806640CDCCCCCCCCCC3A4059A5F44CBD
:102C70002FA11D4000709740FDF7E0FDFFF730F9F0
:102C8000FEF798FFFEF780FFFEF7BAFFFFF75AF84E
:102C9000FFF78CF8FFF71EF8FFF7BCF800234D4A4A
:102CA0004D494E4800F0B0F84D48002505704D4F95
:102CB0004D4CDFF838914FF096084FF0280B4FF449
:102CC0007A7A4FF4FA760A2249494A48FEF774FEA6
:102CD0003868002879D02560C4F80480A560504683
:102CE000FDF794FC4448006800F00CFE2060434867
:102CF000006800F007FE6060A56040F2DC50FDF760
:102D000085FC6068A0F15A01792906D221683C311E
:102D1000792902D2C4F808B00AE04B389C2806D2C0
:102D200020686E30DD2802D23720A06000E0A56068
:102D30003046FDF76BFC44F62060C9F800003046D1
:102D4000FDF764FCA5603046FDF760FC2560C4F823
:102D50000480A5605046FDF759FC2948006800F042
:102D6000D1FD20602748006800F0CCFD606050462F
:102D7000FDF74CFC6068A0F15A01792906D2216860
:102D80003C31792902D2C4F808B00AE04B389C28BB
:102D900006D220686E30DD2802D23720A06000E025
:102DA000A5603046FDF732FCC9F800506420FDF7FD
:102DB0002DFCA5603046FDF729FC6FF06300206014
:102DC00065605046FDF722FC3D600A20FDF71EFCC1
:102DD00079E700000000024300002D430000D242CA
:102DE0004800002020000020B00100204400002006
:102DF000BC01002024010020240000202C00002021
:102E00002800002030000020024B186059609A60B2
:102E100070470000C80100202DE9F04106460F462A
:102E200000F04AFA041E0D4618BF0120284320F086
:102E30000040C0F17F6000F1E040C00F0ED0301CB8
:102E400018BF0120384320F00040C0F17F6000F13E
:102E5000E040C00F04BF0120FDF7E5F920462946F8
:102E6000BDE8F08170B5054600F06AFE044620F02A
:102E70000040C0F1FF40C00F08D025F00040C0F175
:102E8000FF40C00F04BF0120FDF7CDF9204670BD03
:102E900021F00042A2F16052B2F5801F01F0004320
:102EA00028BFD2F17F6C0BD95FEA001C43EAC20253
:102EB00042EB507018BF704728BF20F001007047E8
:102EC000B2F5801FBCBF184670474FEA410C1CF595
:102ED000001F02D2084600F024BE70B500F08CF945
:102EE00000000089FFF7F6BF4FF00040A0F580001A
:102EF0007047000010B591EA030F48BF83F000430C
:102F000000F1C882841A71EB030C05D2121943EB4D
:102F10000C03001B61EB0C01DFF824E14FEA1154B4
:102F2000A4EB135C1EEA430F18BF9EEA445F73D004
:102F300023EA0E03DCF1200E21EA045143F480134E
:102F400032D322FA0CFE10EB0E0023FA0CFE41EBFA
:102F50000E01CCF1200E03FA0EFE10EB0E0051F123
:102F60000001B1F5801FCCF1200E32D201EB0451EB
:102F700012FA0EF2BDE8104058BF7047401C38BF2F
:102F80005FEA420218BF7047002814BF20F001001A
:102F900041F100014FEA410313F5001F38BF7047AC
:102FA000A1F1C04100F076B9012A43EB0302ACF174
:102FB000200CDCF11F0E32BF4FF0000E23FA0CF391
:102FC00010EB030041EB0451B4EB115FD0D0A1EB47
:102FD000045101F5801149085FEA300001EB04510A
:102FE0000ED350F1000038BF12FA0EFE08D1BDE832
:102FF0001040C9E7401C38BF5FEA4202CAD1C3E7AC
:10300000BDE810404FEA410313F5001F38BF704779
:10301000A1F1C04100F03EB99EEA445F08D011EA38
:103020005E0FBDE8104004BF01F000410020704772
:10303000BDE8104070B500F0DFF800BF64FBBE3E95
:103040000000E0FF4FEA41034FEA5353A3F58063CA
:10305000D3F11E03C8BFD3F1210C0CDD4FF00042A9
:1030600042EAC12242EA505232FA03FC8CEAE17C85
:10307000ACEBE1707047102BC4BF0020704703F524
:10308000787CBCF1FF3F04D06FF0004282EA21005F
:10309000704770B500F0B0F8499224800020704766
:1030A000F2E70000DFF848C170B51CEA111E1EBF30
:1030B0001CEA13159EEA0C0F95EA0C0F00F06F80C6
:1030C00081EA030423EA4C134EEAD47E21EA4C1130
:1030D00041F4801143F48013AE44A1FB024CA0FBE9
:1030E0000365AEF17F7E361955EB0C05A1FB034C51
:1030F0004CF10003A0FB021C16EB0C06654153F1DA
:103100000003094218BF46F0010613F4007F0BD1FB
:103110004FEA03314FEA0530340341EA155140EAE2
:1031200016506FF003020AE04FEAC3214FEAC520B0
:10313000F40241EA555140EA56506FF0020202EBA8
:103140002E4201EB025585EACE710AD05FEA440CAB
:1031500018BF24F0004450F1000041F1000120EAC2
:10316000D47040F2FE7C624500D270BDA84214BF0C
:103170004FF080444FF04044002E08BF0024BEF1C1
:10318000806FA8BFA1F1C041BDE8704080F282808D
:103190004FF0000001F1C04101F0004170479EEA8C
:1031A0000C0F0CEA131518BF95EA0C0F06D04FF060
:1031B000000081EA030E0EF0004170BD00F01CF823
:1031C0008900013E00F007B800F009B84FEA430C4F
:1031D0005FEA5C5C08D081EA030100F05BB84FEA6B
:1031E000410C5FEA5C5CF6D14FF00000014970478A
:1031F0000000FF070000F87F0EF1020E2EF0030E14
:103200005EF8046B364205D4012A43EB030515F53D
:10321000001F12D8012841EB010C1CF5001F0CD82F
:103220000ED14FEAD17C15F5001F0CEB4C0C0CF1C4
:10323000020C08BF4CEBD37C04E04FF0080C01E01B
:103240004FEAD37C0CEB4C0526FA05F606F0070690
:10325000B6F1040C06D20EEB860CBDE870404CF0C3
:10326000010C6047DFE80CF0090B02024FF000414F
:103270004FF00000A1F5002170BD1946104601284D
:1032800051EB010418BFD4F5001484BF002001F0F5
:10329000004170BD0808A0F500114FEA31017047E8
:1032A00091EA030F10B581F000413FF52BAE83F09A
:1032B000004300F0EFB800002DE9F04101F5801C5B
:1032C000BCF5001FC0F2C3804FEA115C21EA0C512B
:1032D0000CF1FD0C41F480115FEA5C0C0CF5C07C34
:1032E00001D3400049413DA4890241EA905187023F
:1032F0008E0E0A0CA45D04FB04F602FB06F6C6F172
:103300004046A4FB0662F60D46EA422606FB06F49A
:10331000A4FB01235242C3F1404338BF5B1EA6FB0E
:1033200002420024E6FB0324D20B42EA4446A6FBF9
:103330000623A1FB02E2A3FB07E4A4184FF000025E
:1033400052F10002E3FB01426442C2F1404E38BF39
:10335000AEF1010EA6FB04234FF00002E6FB0E3295
:10336000A2FB03464FF00004B61954F10004E2FB3F
:103370000264A1FB06E6A4FB07E816EB08064FF083
:10338000000858F10008E4FB01687642C8F1405893
:1033900038BFA8F10108A2FB06E4A3FB08E52D193C
:1033A0004FF0000454F10004E2FB0854A1FB05E6D1
:1033B000A7FB04E818EB06084FF0000656F10006DC
:1033C000E1FB048618F1200556F10006A809A8F1D2
:1033D0001B08B10908F03F08B8F10A0F40EA8660FF
:1033E0001CD901EB0C51BDE8F08100BFFCF5EEE803
:1033F000E2DDD8D3CFCBC7C3C0BDB9B6B4B1AEAC94
:10340000A9A7A5A3A19F9D9B9A9896959392908F0B
:103410008D8C8B898887868584838281A0FB006858
:1034200000FB01F208EB4208B8EB872807D53418F7
:1034300058EB0104D5D5401C51F10001D1E7341AF5
:1034400078EB0104CDD4401E71F10001C9E75FEAB9
:103450004C0C5FEA9C5C0DD105D34FF0000001F0ED
:103460000041BDE8F081BDE8F04170B5FFF7C4FE52
:103470006DDBFFBEBDE8F0414FF000000049704732
:103480000000F87F10B591EA030F48BF83F00043B6
:103490003FF538AD841A71EB030C07D212198CF08A
:1034A000004C43EB0C03001B61EB0C01DFF8A4E1C3
:1034B0004FEA1154A4EB135C1EEA430F18BF9EEAB7
:1034C000445F00F0B08023EA6E03524221EA0451C7
:1034D000C3EB6E0338BF5B1EDCF1200E25D322FA4E
:1034E0000CFE10EB0E0043FA0CFE41EB0E01CCF18A
:1034F000200E03FA0EFE10EB0E0051F10001CCF18C
:10350000200E29D412FA0EF201EB0451BDE810404E
:1035100058BF7047401C1CBFB2F1004F70470028D5
:103520000CBF491C20F00100704712EB020E43EB68
:10353000030218BF4FF0010E4EEA4202ACF1200C1C
:10354000DCF11E0E54D943FA0CFE10EB0E0051F1C3
:10355000FF31CCF11E0ED5D50EF1010E12FA0EFE82
:10356000404141EB010101EB445C5FEA5C5C10D936
:1035700010EBDE7001EB045138BFBEF1004FBDE827
:10358000104018BF704700280CBF491C20F00100F4
:10359000704730D24FEAD42C11F5001124F40064A6
:1035A0001BD0B1FA81F20B3AA41AA41ED2F1200367
:1035B000914030FA03F31943904001EBCC71002C99
:1035C00001EB0451BDE81040A8BF704701F1C041B4
:1035D0004FF0000001F000417047B0FA80F310FA9C
:1035E00003F100D110BDE41A173C4805C90AE4E70D
:1035F00001EB045110BD491001EB0451BDE810402E
:103600004FEA300002E04FF0000170474A0008BF67
:103610000042F8D0B2F5001F28BF704701F000410A
:103620004FF0000070479EEA445F07D011EA5E0F3A
:10363000BDE8104004BF002100207047BDE81040E5
:1036400070B5FFF7D9FD00BF40DFF63E83F00041C3
:10365000104670470000E0FF43004FEAD30C4FEAEA
:103660003C0C43401FBF40070CF1605113F0FE4F6C
:1036700070471CF0006F03D100200CF00041704730
:103680000CF0004343EA507010B540EACC0000F063
:1036900002FA00BF000000924FEA0001FFF7FABDF6
:1036A0004FF000414FF00000A1F5002170470000ED
:1036B00090EA010F48BF81F0004100F1D082421A28
:1036C0003CBF801A89184FEAD0524FF07F4C1CEA59
:1036D000410FA2EBD15318BF9CEA026F00F03B8070
:1036E0004FF0004C4CEA00204CEA012121FA03FC87
:1036F00010EB0C0C1ED202F1FF325FEA1C2040EBF3
:10370000C25038BF70471CF07F0F4FEA400C18BF03
:10371000BCF17F4F38BF7047C3F12003994008BF09
:1037200020F00100BCF17F4F38BF7047A0F1C040CE
:1037300000F0F7B94FEA3C00000A40EBC25028BF46
:103740001CF0FF0F4FEA400CE6D018BFBCF17F4FD2
:1037500038BF7047EAE79CEA026F05D010EA5C0FB9
:1037600008BF00F00040704710B500F094F900BFAA
:1037700064FBBE3E014800F0E0BA00BF0000C07F1D
:103780004FF47F0C1CEAD0121EBF1CEAD11392EA40
:103790000C0F93EA0C0F00F0858090EA010F48BFF0
:1037A00042F4807240F4000C41F400002CF07F41A0
:1037B00020F07F4000B58142A2EB03020FF2081C0B
:1037C000ACEB504EC0F100009EF800E04FEA4E0E08
:1037D00000FB0EFC38BF49004FEA2C1C02F5FA0230
:1037E0000CFB0EF34FEACE1E4FEA112C4FEAC1211B
:1037F0000EEB635E42EB22420EFB0CFC4FEA1C53C5
:1038000000FB03114FEA112C4FEA01310EFB0CFCB7
:103810004FEADC4C00FB0C11C14228BF09184CEBED
:1038200003335DF804EB10EB410143EBC250B2F5FA
:103830007C0F38BF704729D512F0F00F1CBF00F184
:10384000C04000F0004070470081828384858687F5
:1038500088898B8C8D8E8F919293959697999A9C4F
:103860009D9FA0A2A3A5A7A8AAACAEB0B2B3B5B7BE
:10387000B9BCBEC0C2C5C7C9CCCED1D4D7D9DCDF94
:10388000E2E6E9ECF0F3F7FAFE0000004FEA400C44
:103890000CF1807CBCF17E4F28BF7047B0F1C04076
:1038A00000F03FB990EA010F0CEAD11348BF42F48F
:1038B0008072624538BF634507D213F47F0F16D07C
:1038C00080EA010000F00040704710B500F0E3F816
:1038D000097EFC3E00F005B880EA010000F00040DF
:1038E000704780EA010000F0004000F01AB912F4BD
:1038F0007F0F04BF0248704780EA010000F011B951
:103900000000C07F41000B0ED3F19E0208D950F495
:1039100000034FEA032323FA02F048BF40427047F6
:1039200010B500F0B8F800BF49922480002070471D
:103930006FF0004282EA20007047000010F0004162
:1039400048BF4042B0FA80F310FA03F2C3F19D037E
:103950000BD051EAC35101EB1220530638BF704718
:1039600000F1010008BF20F001007047B0FA80F3B9
:1039700010FA03F2C3F19D030AD0D90501EB12201E
:10398000530638BF704700F1010008BF20F0010066
:10399000704700004FF47F0C1CEAD0121EBF1CEAD7
:1039A000D11392EA0C0F93EA0C0F00F0478090EAD3
:1039B000010F48BF42F480724FF0004C4CEA0020E7
:1039C0004CEA012102EB0302A0FB0113A2F5000265
:1039D000002918BF43F001035B0028BF4FEA3303FF
:1039E00042EB22425FEA132C4CEBC2502EBFBCEBE1
:1039F000436FB2F57C0F70474FEA036CBCF1004F88
:103A000008BF20F00100B2F57C0F38BF70470BD51E
:103A100082F0FF0212F5803FC8BF704700F1C0403E
:103A2000D8BF00F00040704700F5000C5FEA4C0C76
:103A300048BF7047B0F1C04000F073B890EA010F82
:103A40000CEAD11348BF42F48072624538BF634527
:103A500004D280EA010000F00040704710B500F089
:103A60001AF800BF8900013E00F007B800F009B85D
:103A70005FEA410C5FEA1C6C08D080EA010000F0AC
:103A800050B85FEA400C5FEA1C6CF6D14FF0004082
:103A9000A0F5800070470EF1020E2EF0030E5EF8C6
:103AA000044B244204D44FEA4102B2F17F4F11D8B3
:103AB0004FEA4003B3F17F4F0CD80ED14FEAD07CD0
:103AC000B2F17F4F0CEB4C0C0CF1020C08BF4CEB2D
:103AD000D17C04E04FF0080C01E04FEAD17C0CEB04
:103AE0004C0324FA03F404F00704B4F1040C06D2E6
:103AF0000EEB840CBDE810404CF0010C6047DFE891
:103B00000CF0070802024FF00040A0F5800010BD45
:103B10000846420018BFD2F1807288BF00F0004012
:103B200010BDFF2141EAD050C005704780F0004031
:103B300090EA010F7FF5C3AD81F0004100F08FB82E
:103B40004FEAD051002988BFD1F1FF0240F27580C1
:103B500001F17D014FEA002070B5490840F00040B6
:103B600038BF40080EA2430E040CD25C02FB02F3E5
:103B700004FB03F3C3F14043A3FB0254ED0D45EAFC
:103B8000442202FB02F3A0FB03546D42C4F1404403
:103B900038BF641EA2FB05350023E2FB0453EA0B89
:103BA00042EA4342A0FB023212F14004A2F1210397
:103BB000E40903F07F031F2B32D904EBC15070BD21
:103BC000FEFAF7F3F0ECE9E6E4E1DEDCD9D7D4D293
:103BD000D0CECCCAC8C6C4C2C1BFBDBCBAB9B7B6C4
:103BE000B4B3B2B0AFAEACABAAA9A8A7A6A4A3A227
:103BF000A1A09F9E9E9D9C9B9A999897979695941D
:103C00009393929190908F8E8E8D8C8C8B8A8A89D3
:103C10008988878786868584848383828281818060
:103C200004FB04F6B6EB004603D5E64248BF641C2D
:103C3000C3E7A64258BF641CBFE711F0FF0F02D1D3
:103C400000F00040704710B5FFF725FF7FDBFFBE97
:103C500090EA010F48BF81F000413FF530AD421AB4
:103C600004D882F00042A0EB020011444FEAD05287
:103C70004FF07F4C1CEA410FA2EBD15318BF9CEAD6
:103C8000026F4AD04FF0004C4CEA00204CEA012170
:103C900021FA03FCB0EB0C0C0FD412F0FE0F36D05F
:103CA0005FEA4C001DD5001240EBC25038BF704790
:103CB0001CF03F0F18BF70470BE0A2F101025FEA52
:103CC0001C2040EBC25038BF70471CF07F0F18BF5C
:103CD0007047C3F12003994014BF401E20F001003B
:103CE000704780084FEA122308BF7047B0FA80FC83
:103CF000A2EB0C02CCF1280C60FA0CF093EA122F24
:103D000004BF00EBC25070474FEAC3707047130AFC
:103D10005FEADC1008BF7047F6E79CEA026F04D048
:103D200010EA5C0F08BF0020704710B5FFF7B3FE24
:103D300040DFF63E81F0004070470CF00F03092B86
:103D400008BF082000F051800A2B0BD0082B18BFA9
:103D5000704708BF1CF0400F0AD04FF000004FF032
:103D6000000170471CF0400F18BF4FF00040704733
:103D70001CF0100F08D020F0704300F07F4242EAA0
:103D8000D3014FEA4370704700F0604021F07F425A
:103D900042EA000201F07F4040EA727070474FF043
:103DA000FF0212EAD0521CBF92F0FF038B42C2BF47
:103DB000D14200EBC1507047002A0AD0002B0BD033
:103DC000002900F00040A4BF40F0FE4040F4000095
:103DD000704700F00040704743024FF00B0C18BFD3
:103DE0004CF0806C7FF4C6AC70471CF4801F11D07F
:103DF0001CF4E02F03D06FEACC31490070474FF03C
:103E00004050EFF3008222F0704242EA000282F357
:103E1000008870474FF0000070470102020304055C
:103E2000060708090A0B0C0D0E0F10100000000009
:103E3000000000000102030406070809000000005A
:103E400001020304643E0008000000204C00000052
:103E500028010008B03E00084C0000201C080000AB
:103E600044010008010000001000000000000000F4
:103E70000024F4000000000000000000000000002A
:103E80000200000000000000000000000000000030
:103E90000000000000000000000000000000000022
:103EA0000000000000000000000000000000000012
:04000005080000ED02
:00000001FF
